{
  "address": "0x2508151286461F0b6d813e656d940DD51Fc70c6E",
  "abi": [
    {
      "inputs": [
        {
          "internalType": "contract IMisoTokenFactory",
          "name": "_misoTokenFactory",
          "type": "address"
        },
        {
          "internalType": "contract IPointList",
          "name": "_pointListFactory",
          "type": "address"
        },
        {
          "internalType": "contract IMisoLauncher",
          "name": "_misoLauncher",
          "type": "address"
        },
        {
          "internalType": "contract IMisoMarket",
          "name": "_misoMarket",
          "type": "address"
        },
        {
          "internalType": "address",
          "name": "_factory",
          "type": "address"
        }
      ],
      "stateMutability": "nonpayable",
      "type": "constructor"
    },
    {
      "inputs": [],
      "name": "factory",
      "outputs": [
        {
          "internalType": "address",
          "name": "",
          "type": "address"
        }
      ],
      "stateMutability": "view",
      "type": "function"
    },
    {
      "inputs": [],
      "name": "misoLauncher",
      "outputs": [
        {
          "internalType": "contract IMisoLauncher",
          "name": "",
          "type": "address"
        }
      ],
      "stateMutability": "view",
      "type": "function"
    },
    {
      "inputs": [],
      "name": "misoMarket",
      "outputs": [
        {
          "internalType": "contract IMisoMarket",
          "name": "",
          "type": "address"
        }
      ],
      "stateMutability": "view",
      "type": "function"
    },
    {
      "inputs": [],
      "name": "misoTokenFactory",
      "outputs": [
        {
          "internalType": "contract IMisoTokenFactory",
          "name": "",
          "type": "address"
        }
      ],
      "stateMutability": "view",
      "type": "function"
    },
    {
      "inputs": [],
      "name": "pointListFactory",
      "outputs": [
        {
          "internalType": "contract IPointList",
          "name": "",
          "type": "address"
        }
      ],
      "stateMutability": "view",
      "type": "function"
    },
    {
      "inputs": [
        {
          "internalType": "bytes",
          "name": "tokenFactoryData",
          "type": "bytes"
        },
        {
          "internalType": "address[]",
          "name": "_accounts",
          "type": "address[]"
        },
        {
          "internalType": "uint256[]",
          "name": "_amounts",
          "type": "uint256[]"
        },
        {
          "internalType": "bytes",
          "name": "marketData",
          "type": "bytes"
        },
        {
          "internalType": "bytes",
          "name": "launcherData",
          "type": "bytes"
        }
      ],
      "name": "prepareMiso",
      "outputs": [],
      "stateMutability": "payable",
      "type": "function"
    }
  ],
  "transactionHash": "0xc73ac46123510ab535e7902e5ee5baebf0e730c8f8881be45786147822904a16",
  "args": [
    "0x4B4643d8b49c8e43818A0D2E362B75276CDB2F12",
    "0x3e2679B15eeBebd94Cb7b51875AA9Eaf68b48414",
    "0x224474cb76D3A529D5D08B68009F22Ff9672F5b4",
    "0x7452F79df8ed62B131e7949Ac2c34cF80232DE17",
    "0xc35DADB65012eC5796536bD9864eD8773aBc74C4"
  ],
  "numDeployments": 1,
  "solcInputHash": "5f16f235179430f8f431a3a607dd8012",
  "bytecode": "0x608060405234801561001057600080fd5b5060405161135a38038061135a833981810160405260a081101561003357600080fd5b508051602082015160408301516060840151608090940151600080546001600160a01b039586166001600160a01b031991821617909155600180549486169482169490941790935560028054928516928416929092179091556003805494841694831694909417909355600480549290931691161790556112a1806100b96000396000f3fe6080604052600436106100555760003560e01c80630b1481291461005a57806327257e091461008b578063790528d2146100a0578063b811cefc146100b5578063c45a0155146100ca578063fa18022c146100df575b600080fd5b34801561006657600080fd5b5061006f610393565b604080516001600160a01b039092168252519081900360200190f35b34801561009757600080fd5b5061006f6103a2565b3480156100ac57600080fd5b5061006f6103b1565b3480156100c157600080fd5b5061006f6103c0565b3480156100d657600080fd5b5061006f6103cf565b610391600480360360a08110156100f557600080fd5b810190602081018135600160201b81111561010f57600080fd5b82018360208201111561012157600080fd5b803590602001918460018302840111600160201b8311171561014257600080fd5b91908080601f0160208091040260200160405190810160405280939291908181526020018383808284376000920191909152509295949360208101935035915050600160201b81111561019457600080fd5b8201836020820111156101a657600080fd5b803590602001918460208302840111600160201b831117156101c757600080fd5b9190808060200260200160405190810160405280939291908181526020018383602002808284376000920191909152509295949360208101935035915050600160201b81111561021657600080fd5b82018360208201111561022857600080fd5b803590602001918460208302840111600160201b8311171561024957600080fd5b9190808060200260200160405190810160405280939291908181526020018383602002808284376000920191909152509295949360208101935035915050600160201b81111561029857600080fd5b8201836020820111156102aa57600080fd5b803590602001918460018302840111600160201b831117156102cb57600080fd5b91908080601f0160208091040260200160405190810160405280939291908181526020018383808284376000920191909152509295949360208101935035915050600160201b81111561031d57600080fd5b82018360208201111561032f57600080fd5b803590602001918460018302840111600160201b8311171561035057600080fd5b91908080601f0160208091040260200160405190810160405280939291908181526020018383808284376000920191909152509295506103de945050505050565b005b6003546001600160a01b031681565b6002546001600160a01b031681565b6000546001600160a01b031681565b6001546001600160a01b031681565b6004546001600160a01b031681565b825184511461041d576040805162461bcd60e51b8152602060048083019190915260248201526310b632b760e11b604482015290519081900360640190fd5b600080600060608060008a806020019051608081101561043c57600080fd5b815160208301805160405192949293830192919084600160201b82111561046257600080fd5b90830190602082018581111561047757600080fd5b8251600160201b81118282018810171561049057600080fd5b82525081516020918201929091019080838360005b838110156104bd5781810151838201526020016104a5565b50505050905090810190601f1680156104ea5780820380516001836020036101000a031916815260200191505b5060405260200180516040519392919084600160201b82111561050c57600080fd5b90830190602082018581111561052157600080fd5b8251600160201b81118282018810171561053a57600080fd5b82525081516020918201929091019080838360005b8381101561056757818101518382015260200161054f565b50505050905090810190601f1680156105945780820380516001836020036101000a031916815260200191505b5060405260200180519060200190929190505050935093509350935060008054906101000a90046001600160a01b03166001600160a01b031663870837d785600086863387604051602001808060200180602001856001600160a01b03168152602001848152602001838103835287818151815260200191508051906020019080838360005b8381101561063257818101518382015260200161061a565b50505050905090810190601f16801561065f5780820380516001836020036101000a031916815260200191505b50838103825286518152865160209182019188019080838360005b8381101561069257818101518382015260200161067a565b50505050905090810190601f1680156106bf5780820380516001836020036101000a031916815260200191505b5096505050505050506040516020818303038152906040526040518463ffffffff1660e01b815260040180848152602001836001600160a01b0316815260200180602001828103825283818151815260200191508051906020019080838360005b83811015610738578181015183820152602001610720565b50505050905090810190601f1680156107655780820380516001836020036101000a031916815260200191505b50945050505050602060405180830381600087803b15801561078657600080fd5b505af115801561079a573d6000803e3d6000fd5b505050506040513d60208110156107b057600080fd5b50516003546040805163095ea7b360e01b81526001600160a01b03928316600482015260248101859052905192985092965086929088169163095ea7b3916044808201926020929091908290030181600087803b15801561081057600080fd5b505af1158015610824573d6000803e3d6000fd5b505050506040513d602081101561083a57600080fd5b50506002546040805163095ea7b360e01b81526001600160a01b0392831660048201526024810184905290519188169163095ea7b3916044808201926020929091908290030181600087803b15801561089257600080fd5b505af11580156108a6573d6000803e3d6000fd5b505050506040513d60208110156108bc57600080fd5b50508951600094501592506109d89150505760015460405163424599a360e01b815233600482018181526060602484019081528b5160648501528b516001600160a01b039095169463424599a3948d938d939092909160448101916084909101906020808801910280838360005b8381101561094257818101518382015260200161092a565b50505050905001838103825284818151815260200191508051906020019060200280838360005b83811015610981578181015183820152602001610969565b5050505090500195505050505050602060405180830381600087803b1580156109a957600080fd5b505af11580156109bd573d6000803e3d6000fd5b505050506040513d60208110156109d357600080fd5b505190505b600080600060608880602001905160408110156109f457600080fd5b815160208301805160405192949293830192919084600160201b821115610a1a57600080fd5b908301906020820185811115610a2f57600080fd5b8251600160201b811182820188101715610a4857600080fd5b82525081516020918201929091019080838360005b83811015610a75578181015183820152602001610a5d565b50505050905090810190601f168015610aa25780820380516001836020036101000a031916815260200191505b5060405250505091509150808060200190516020811015610ac257600080fd5b5051600354604080516001600160a01b0392831660208281018290528c851683850152835180840385018152606084018552306080850152948b1660a08401523360c0808501919091528451808503909101815260e084019094528451959850909463aa1bd2f69488948e948b946000948b939261010001918291908601908083835b60208310610b645780518252601f199092019160209182019101610b45565b51815160209384036101000a600019018019909216911617905286519190930192860191508083835b60208310610bac5780518252601f199092019160209182019101610b8d565b51815160209384036101000a600019018019909216911617905285519190930192850191508083835b60208310610bf45780518252601f199092019160209182019101610bd5565b6001836020036101000a03801982511681845116808217855250505050505090500193505050506040516020818303038152906040526040518663ffffffff1660e01b815260040180868152602001856001600160a01b03168152602001848152602001836001600160a01b0316815260200180602001828103825283818151815260200191508051906020019080838360005b83811015610ca0578181015183820152602001610c88565b50505050905090810190601f168015610ccd5780820380516001836020036101000a031916815260200191505b509650505050505050602060405180830381600087803b158015610cf057600080fd5b505af1158015610d04573d6000803e3d6000fd5b505050506040513d6020811015610d1a57600080fd5b50518851909450600092508291508190819060208b01906060811015610d3f57600080fd5b81019080805190602001909291908051906020019092919080519060200190929190505050925092509250600260009054906101000a90046001600160a01b03166001600160a01b031663632cef90848b8860008b600460009054906101000a90046001600160a01b031633338b8b60405160200180876001600160a01b03168152602001866001600160a01b03168152602001856001600160a01b03168152602001846001600160a01b0316815260200183815260200182815260200196505050505050506040516020818303038152906040526040518663ffffffff1660e01b815260040180868152602001856001600160a01b03168152602001848152602001836001600160a01b0316815260200180602001828103825283818151815260200191508051906020019080838360005b83811015610e8a578181015183820152602001610e72565b50505050905090810190601f168015610eb75780820380516001836020036101000a031916815260200191505b509650505050505050602060405180830381600087803b158015610eda57600080fd5b505af1158015610eee573d6000803e3d6000fd5b505050506040513d6020811015610f0457600080fd5b50516040805163196545c760e21b815233600482015290519195506001600160a01b0388169450636595171c9350602480820193506000929182900301818387803b158015610f5257600080fd5b505af1158015610f66573d6000803e3d6000fd5b50505050826001600160a01b0316639a87222c826040518263ffffffff1660e01b815260040180826001600160a01b03168152602001915050600060405180830381600087803b158015610fb957600080fd5b505af1158015610fcd573d6000803e3d6000fd5b505050506000866001600160a01b03166370a08231306040518263ffffffff1660e01b815260040180826001600160a01b0316815260200191505060206040518083038186803b15801561102057600080fd5b505afa158015611034573d6000803e3d6000fd5b505050506040513d602081101561104a57600080fd5b5051905080156110dc576040805163095ea7b360e01b81523060048201526024810183905290516001600160a01b0389169163095ea7b39160448083019260209291908290030181600087803b1580156110a357600080fd5b505af11580156110b7573d6000803e3d6000fd5b505050506040513d60208110156110cd57600080fd5b506110dc9050873033846110ea565b505050505050505050505050565b604080516001600160a01b0385811660248301528481166044830152606480830185905283518084039091018152608490920183526020820180516001600160e01b03166323b872dd60e01b17815292518251600094606094938a169392918291908083835b6020831061116f5780518252601f199092019160209182019101611150565b6001836020036101000a0380198251168184511680821785525050505050509050019150506000604051808303816000865af19150503d80600081146111d1576040519150601f19603f3d011682016040523d82523d6000602084013e6111d6565b606091505b5091509150818015611204575080511580611204575080806020019051602081101561120157600080fd5b50515b61123f5760405162461bcd60e51b81526004018080602001828103825260248152602001806112486024913960400191505060405180910390fd5b50505050505056fe5472616e7366657248656c7065723a205452414e534645525f46524f4d5f4641494c4544a2646970667358221220388185bbf17ff3d77578c5eded4e994bc0b93eebafa75eb69ff43cf27c8df50264736f6c634300060c0033",
  "devdoc": {
    "kind": "dev",
    "methods": {},
    "version": 1
  },
  "userdoc": {
    "kind": "user",
    "methods": {},
    "version": 1
  },
  "storageLayout": {
    "storage": [
      {
        "astId": 19157,
        "contract": "contracts/Recipes/AuctionCreation.sol:AuctionCreation",
        "label": "misoTokenFactory",
        "offset": 0,
        "slot": "0",
        "type": "t_contract(IMisoTokenFactory)19097"
      },
      {
        "astId": 19159,
        "contract": "contracts/Recipes/AuctionCreation.sol:AuctionCreation",
        "label": "pointListFactory",
        "offset": 0,
        "slot": "1",
        "type": "t_contract(IPointList)19111"
      },
      {
        "astId": 19161,
        "contract": "contracts/Recipes/AuctionCreation.sol:AuctionCreation",
        "label": "misoLauncher",
        "offset": 0,
        "slot": "2",
        "type": "t_contract(IMisoLauncher)19127"
      },
      {
        "astId": 19163,
        "contract": "contracts/Recipes/AuctionCreation.sol:AuctionCreation",
        "label": "misoMarket",
        "offset": 0,
        "slot": "3",
        "type": "t_contract(IMisoMarket)19153"
      },
      {
        "astId": 19165,
        "contract": "contracts/Recipes/AuctionCreation.sol:AuctionCreation",
        "label": "factory",
        "offset": 0,
        "slot": "4",
        "type": "t_address"
      }
    ],
    "types": {
      "t_address": {
        "encoding": "inplace",
        "label": "address",
        "numberOfBytes": "20"
      },
      "t_contract(IMisoLauncher)19127": {
        "encoding": "inplace",
        "label": "contract IMisoLauncher",
        "numberOfBytes": "20"
      },
      "t_contract(IMisoMarket)19153": {
        "encoding": "inplace",
        "label": "contract IMisoMarket",
        "numberOfBytes": "20"
      },
      "t_contract(IMisoTokenFactory)19097": {
        "encoding": "inplace",
        "label": "contract IMisoTokenFactory",
        "numberOfBytes": "20"
      },
      "t_contract(IPointList)19111": {
        "encoding": "inplace",
        "label": "contract IPointList",
        "numberOfBytes": "20"
      }
    }
  }
}