{
  "address": "0x6911550dbd294CE67Bb81b57f715D2D7794Da9B7",
  "abi": [
    {
      "anonymous": false,
      "inputs": [
        {
          "indexed": false,
          "internalType": "address",
          "name": "addr",
          "type": "address"
        },
        {
          "indexed": false,
          "internalType": "uint256",
          "name": "commitment",
          "type": "uint256"
        }
      ],
      "name": "AddedCommitment",
      "type": "event"
    },
    {
      "anonymous": false,
      "inputs": [
        {
          "indexed": true,
          "internalType": "address",
          "name": "beneficiary",
          "type": "address"
        },
        {
          "indexed": true,
          "internalType": "address",
          "name": "caller",
          "type": "address"
        }
      ],
      "name": "AdminRoleGranted",
      "type": "event"
    },
    {
      "anonymous": false,
      "inputs": [
        {
          "indexed": true,
          "internalType": "address",
          "name": "beneficiary",
          "type": "address"
        },
        {
          "indexed": true,
          "internalType": "address",
          "name": "caller",
          "type": "address"
        }
      ],
      "name": "AdminRoleRemoved",
      "type": "event"
    },
    {
      "anonymous": false,
      "inputs": [],
      "name": "AuctionCancelled",
      "type": "event"
    },
    {
      "anonymous": false,
      "inputs": [],
      "name": "AuctionFinalized",
      "type": "event"
    },
    {
      "anonymous": false,
      "inputs": [
        {
          "indexed": false,
          "internalType": "uint256",
          "name": "startPrice",
          "type": "uint256"
        },
        {
          "indexed": false,
          "internalType": "uint256",
          "name": "minimumPrice",
          "type": "uint256"
        }
      ],
      "name": "AuctionPriceUpdated",
      "type": "event"
    },
    {
      "anonymous": false,
      "inputs": [
        {
          "indexed": false,
          "internalType": "uint256",
          "name": "startTime",
          "type": "uint256"
        },
        {
          "indexed": false,
          "internalType": "uint256",
          "name": "endTime",
          "type": "uint256"
        }
      ],
      "name": "AuctionTimeUpdated",
      "type": "event"
    },
    {
      "anonymous": false,
      "inputs": [
        {
          "indexed": false,
          "internalType": "address",
          "name": "wallet",
          "type": "address"
        }
      ],
      "name": "AuctionWalletUpdated",
      "type": "event"
    },
    {
      "anonymous": false,
      "inputs": [
        {
          "indexed": true,
          "internalType": "string",
          "name": "_name",
          "type": "string"
        },
        {
          "indexed": false,
          "internalType": "string",
          "name": "_data",
          "type": "string"
        }
      ],
      "name": "DocumentRemoved",
      "type": "event"
    },
    {
      "anonymous": false,
      "inputs": [
        {
          "indexed": true,
          "internalType": "string",
          "name": "_name",
          "type": "string"
        },
        {
          "indexed": false,
          "internalType": "string",
          "name": "_data",
          "type": "string"
        }
      ],
      "name": "DocumentUpdated",
      "type": "event"
    },
    {
      "anonymous": false,
      "inputs": [
        {
          "indexed": true,
          "internalType": "address",
          "name": "beneficiary",
          "type": "address"
        },
        {
          "indexed": true,
          "internalType": "address",
          "name": "caller",
          "type": "address"
        }
      ],
      "name": "MinterRoleGranted",
      "type": "event"
    },
    {
      "anonymous": false,
      "inputs": [
        {
          "indexed": true,
          "internalType": "address",
          "name": "beneficiary",
          "type": "address"
        },
        {
          "indexed": true,
          "internalType": "address",
          "name": "caller",
          "type": "address"
        }
      ],
      "name": "MinterRoleRemoved",
      "type": "event"
    },
    {
      "anonymous": false,
      "inputs": [
        {
          "indexed": true,
          "internalType": "address",
          "name": "beneficiary",
          "type": "address"
        },
        {
          "indexed": true,
          "internalType": "address",
          "name": "caller",
          "type": "address"
        }
      ],
      "name": "OperatorRoleGranted",
      "type": "event"
    },
    {
      "anonymous": false,
      "inputs": [
        {
          "indexed": true,
          "internalType": "address",
          "name": "beneficiary",
          "type": "address"
        },
        {
          "indexed": true,
          "internalType": "address",
          "name": "caller",
          "type": "address"
        }
      ],
      "name": "OperatorRoleRemoved",
      "type": "event"
    },
    {
      "anonymous": false,
      "inputs": [
        {
          "indexed": true,
          "internalType": "bytes32",
          "name": "role",
          "type": "bytes32"
        },
        {
          "indexed": true,
          "internalType": "bytes32",
          "name": "previousAdminRole",
          "type": "bytes32"
        },
        {
          "indexed": true,
          "internalType": "bytes32",
          "name": "newAdminRole",
          "type": "bytes32"
        }
      ],
      "name": "RoleAdminChanged",
      "type": "event"
    },
    {
      "anonymous": false,
      "inputs": [
        {
          "indexed": true,
          "internalType": "bytes32",
          "name": "role",
          "type": "bytes32"
        },
        {
          "indexed": true,
          "internalType": "address",
          "name": "account",
          "type": "address"
        },
        {
          "indexed": true,
          "internalType": "address",
          "name": "sender",
          "type": "address"
        }
      ],
      "name": "RoleGranted",
      "type": "event"
    },
    {
      "anonymous": false,
      "inputs": [
        {
          "indexed": true,
          "internalType": "bytes32",
          "name": "role",
          "type": "bytes32"
        },
        {
          "indexed": true,
          "internalType": "address",
          "name": "account",
          "type": "address"
        },
        {
          "indexed": true,
          "internalType": "address",
          "name": "sender",
          "type": "address"
        }
      ],
      "name": "RoleRevoked",
      "type": "event"
    },
    {
      "anonymous": false,
      "inputs": [
        {
          "indexed": true,
          "internalType": "address",
          "name": "beneficiary",
          "type": "address"
        },
        {
          "indexed": true,
          "internalType": "address",
          "name": "caller",
          "type": "address"
        }
      ],
      "name": "SmartContractRoleGranted",
      "type": "event"
    },
    {
      "anonymous": false,
      "inputs": [
        {
          "indexed": true,
          "internalType": "address",
          "name": "beneficiary",
          "type": "address"
        },
        {
          "indexed": true,
          "internalType": "address",
          "name": "caller",
          "type": "address"
        }
      ],
      "name": "SmartContractRoleRemoved",
      "type": "event"
    },
    {
      "inputs": [],
      "name": "DEFAULT_ADMIN_ROLE",
      "outputs": [
        {
          "internalType": "bytes32",
          "name": "",
          "type": "bytes32"
        }
      ],
      "stateMutability": "view",
      "type": "function"
    },
    {
      "inputs": [],
      "name": "MINTER_ROLE",
      "outputs": [
        {
          "internalType": "bytes32",
          "name": "",
          "type": "bytes32"
        }
      ],
      "stateMutability": "view",
      "type": "function"
    },
    {
      "inputs": [],
      "name": "OPERATOR_ROLE",
      "outputs": [
        {
          "internalType": "bytes32",
          "name": "",
          "type": "bytes32"
        }
      ],
      "stateMutability": "view",
      "type": "function"
    },
    {
      "inputs": [],
      "name": "SMART_CONTRACT_ROLE",
      "outputs": [
        {
          "internalType": "bytes32",
          "name": "",
          "type": "bytes32"
        }
      ],
      "stateMutability": "view",
      "type": "function"
    },
    {
      "inputs": [
        {
          "internalType": "address",
          "name": "_address",
          "type": "address"
        }
      ],
      "name": "addAdminRole",
      "outputs": [],
      "stateMutability": "nonpayable",
      "type": "function"
    },
    {
      "inputs": [
        {
          "internalType": "address",
          "name": "_address",
          "type": "address"
        }
      ],
      "name": "addMinterRole",
      "outputs": [],
      "stateMutability": "nonpayable",
      "type": "function"
    },
    {
      "inputs": [
        {
          "internalType": "address",
          "name": "_address",
          "type": "address"
        }
      ],
      "name": "addOperatorRole",
      "outputs": [],
      "stateMutability": "nonpayable",
      "type": "function"
    },
    {
      "inputs": [
        {
          "internalType": "address",
          "name": "_address",
          "type": "address"
        }
      ],
      "name": "addSmartContractRole",
      "outputs": [],
      "stateMutability": "nonpayable",
      "type": "function"
    },
    {
      "inputs": [],
      "name": "auctionEnded",
      "outputs": [
        {
          "internalType": "bool",
          "name": "",
          "type": "bool"
        }
      ],
      "stateMutability": "view",
      "type": "function"
    },
    {
      "inputs": [],
      "name": "auctionSuccessful",
      "outputs": [
        {
          "internalType": "bool",
          "name": "",
          "type": "bool"
        }
      ],
      "stateMutability": "view",
      "type": "function"
    },
    {
      "inputs": [],
      "name": "auctionToken",
      "outputs": [
        {
          "internalType": "address",
          "name": "",
          "type": "address"
        }
      ],
      "stateMutability": "view",
      "type": "function"
    },
    {
      "inputs": [
        {
          "internalType": "bytes[]",
          "name": "calls",
          "type": "bytes[]"
        },
        {
          "internalType": "bool",
          "name": "revertOnFail",
          "type": "bool"
        }
      ],
      "name": "batch",
      "outputs": [
        {
          "internalType": "bool[]",
          "name": "successes",
          "type": "bool[]"
        },
        {
          "internalType": "bytes[]",
          "name": "results",
          "type": "bytes[]"
        }
      ],
      "stateMutability": "payable",
      "type": "function"
    },
    {
      "inputs": [
        {
          "internalType": "uint256",
          "name": "_commitment",
          "type": "uint256"
        }
      ],
      "name": "calculateCommitment",
      "outputs": [
        {
          "internalType": "uint256",
          "name": "committed",
          "type": "uint256"
        }
      ],
      "stateMutability": "view",
      "type": "function"
    },
    {
      "inputs": [],
      "name": "cancelAuction",
      "outputs": [],
      "stateMutability": "nonpayable",
      "type": "function"
    },
    {
      "inputs": [
        {
          "internalType": "address",
          "name": "",
          "type": "address"
        }
      ],
      "name": "claimed",
      "outputs": [
        {
          "internalType": "uint256",
          "name": "",
          "type": "uint256"
        }
      ],
      "stateMutability": "view",
      "type": "function"
    },
    {
      "inputs": [],
      "name": "clearingPrice",
      "outputs": [
        {
          "internalType": "uint256",
          "name": "",
          "type": "uint256"
        }
      ],
      "stateMutability": "view",
      "type": "function"
    },
    {
      "inputs": [
        {
          "internalType": "address payable",
          "name": "_beneficiary",
          "type": "address"
        },
        {
          "internalType": "bool",
          "name": "readAndAgreedToMarketParticipationAgreement",
          "type": "bool"
        }
      ],
      "name": "commitEth",
      "outputs": [],
      "stateMutability": "payable",
      "type": "function"
    },
    {
      "inputs": [
        {
          "internalType": "uint256",
          "name": "_amount",
          "type": "uint256"
        },
        {
          "internalType": "bool",
          "name": "readAndAgreedToMarketParticipationAgreement",
          "type": "bool"
        }
      ],
      "name": "commitTokens",
      "outputs": [],
      "stateMutability": "nonpayable",
      "type": "function"
    },
    {
      "inputs": [
        {
          "internalType": "address",
          "name": "_from",
          "type": "address"
        },
        {
          "internalType": "uint256",
          "name": "_amount",
          "type": "uint256"
        },
        {
          "internalType": "bool",
          "name": "readAndAgreedToMarketParticipationAgreement",
          "type": "bool"
        }
      ],
      "name": "commitTokensFrom",
      "outputs": [],
      "stateMutability": "nonpayable",
      "type": "function"
    },
    {
      "inputs": [
        {
          "internalType": "address",
          "name": "",
          "type": "address"
        }
      ],
      "name": "commitments",
      "outputs": [
        {
          "internalType": "uint256",
          "name": "",
          "type": "uint256"
        }
      ],
      "stateMutability": "view",
      "type": "function"
    },
    {
      "inputs": [
        {
          "internalType": "bool",
          "name": "_status",
          "type": "bool"
        }
      ],
      "name": "enableList",
      "outputs": [],
      "stateMutability": "nonpayable",
      "type": "function"
    },
    {
      "inputs": [],
      "name": "finalize",
      "outputs": [],
      "stateMutability": "nonpayable",
      "type": "function"
    },
    {
      "inputs": [],
      "name": "finalizeTimeExpired",
      "outputs": [
        {
          "internalType": "bool",
          "name": "",
          "type": "bool"
        }
      ],
      "stateMutability": "view",
      "type": "function"
    },
    {
      "inputs": [],
      "name": "finalized",
      "outputs": [
        {
          "internalType": "bool",
          "name": "",
          "type": "bool"
        }
      ],
      "stateMutability": "view",
      "type": "function"
    },
    {
      "inputs": [],
      "name": "getAllDocuments",
      "outputs": [
        {
          "internalType": "string[]",
          "name": "",
          "type": "string[]"
        }
      ],
      "stateMutability": "view",
      "type": "function"
    },
    {
      "inputs": [
        {
          "internalType": "address",
          "name": "_funder",
          "type": "address"
        },
        {
          "internalType": "address",
          "name": "_token",
          "type": "address"
        },
        {
          "internalType": "uint256",
          "name": "_totalTokens",
          "type": "uint256"
        },
        {
          "internalType": "uint256",
          "name": "_startTime",
          "type": "uint256"
        },
        {
          "internalType": "uint256",
          "name": "_endTime",
          "type": "uint256"
        },
        {
          "internalType": "address",
          "name": "_paymentCurrency",
          "type": "address"
        },
        {
          "internalType": "uint256",
          "name": "_startPrice",
          "type": "uint256"
        },
        {
          "internalType": "uint256",
          "name": "_minimumPrice",
          "type": "uint256"
        },
        {
          "internalType": "address",
          "name": "_admin",
          "type": "address"
        },
        {
          "internalType": "address",
          "name": "_pointList",
          "type": "address"
        },
        {
          "internalType": "address payable",
          "name": "_wallet",
          "type": "address"
        }
      ],
      "name": "getAuctionInitData",
      "outputs": [
        {
          "internalType": "bytes",
          "name": "_data",
          "type": "bytes"
        }
      ],
      "stateMutability": "pure",
      "type": "function"
    },
    {
      "inputs": [],
      "name": "getBaseInformation",
      "outputs": [
        {
          "internalType": "address",
          "name": "",
          "type": "address"
        },
        {
          "internalType": "uint64",
          "name": "",
          "type": "uint64"
        },
        {
          "internalType": "uint64",
          "name": "",
          "type": "uint64"
        },
        {
          "internalType": "bool",
          "name": "",
          "type": "bool"
        }
      ],
      "stateMutability": "view",
      "type": "function"
    },
    {
      "inputs": [
        {
          "internalType": "string",
          "name": "_name",
          "type": "string"
        }
      ],
      "name": "getDocument",
      "outputs": [
        {
          "internalType": "string",
          "name": "",
          "type": "string"
        },
        {
          "internalType": "uint256",
          "name": "",
          "type": "uint256"
        }
      ],
      "stateMutability": "view",
      "type": "function"
    },
    {
      "inputs": [],
      "name": "getDocumentCount",
      "outputs": [
        {
          "internalType": "uint256",
          "name": "",
          "type": "uint256"
        }
      ],
      "stateMutability": "view",
      "type": "function"
    },
    {
      "inputs": [
        {
          "internalType": "uint256",
          "name": "_index",
          "type": "uint256"
        }
      ],
      "name": "getDocumentName",
      "outputs": [
        {
          "internalType": "string",
          "name": "",
          "type": "string"
        }
      ],
      "stateMutability": "view",
      "type": "function"
    },
    {
      "inputs": [
        {
          "internalType": "bytes32",
          "name": "role",
          "type": "bytes32"
        }
      ],
      "name": "getRoleAdmin",
      "outputs": [
        {
          "internalType": "bytes32",
          "name": "",
          "type": "bytes32"
        }
      ],
      "stateMutability": "view",
      "type": "function"
    },
    {
      "inputs": [
        {
          "internalType": "bytes32",
          "name": "role",
          "type": "bytes32"
        },
        {
          "internalType": "uint256",
          "name": "index",
          "type": "uint256"
        }
      ],
      "name": "getRoleMember",
      "outputs": [
        {
          "internalType": "address",
          "name": "",
          "type": "address"
        }
      ],
      "stateMutability": "view",
      "type": "function"
    },
    {
      "inputs": [
        {
          "internalType": "bytes32",
          "name": "role",
          "type": "bytes32"
        }
      ],
      "name": "getRoleMemberCount",
      "outputs": [
        {
          "internalType": "uint256",
          "name": "",
          "type": "uint256"
        }
      ],
      "stateMutability": "view",
      "type": "function"
    },
    {
      "inputs": [],
      "name": "getTotalTokens",
      "outputs": [
        {
          "internalType": "uint256",
          "name": "",
          "type": "uint256"
        }
      ],
      "stateMutability": "view",
      "type": "function"
    },
    {
      "inputs": [
        {
          "internalType": "bytes32",
          "name": "role",
          "type": "bytes32"
        },
        {
          "internalType": "address",
          "name": "account",
          "type": "address"
        }
      ],
      "name": "grantRole",
      "outputs": [],
      "stateMutability": "nonpayable",
      "type": "function"
    },
    {
      "inputs": [
        {
          "internalType": "address",
          "name": "_address",
          "type": "address"
        }
      ],
      "name": "hasAdminRole",
      "outputs": [
        {
          "internalType": "bool",
          "name": "",
          "type": "bool"
        }
      ],
      "stateMutability": "view",
      "type": "function"
    },
    {
      "inputs": [
        {
          "internalType": "address",
          "name": "_address",
          "type": "address"
        }
      ],
      "name": "hasMinterRole",
      "outputs": [
        {
          "internalType": "bool",
          "name": "",
          "type": "bool"
        }
      ],
      "stateMutability": "view",
      "type": "function"
    },
    {
      "inputs": [
        {
          "internalType": "address",
          "name": "_address",
          "type": "address"
        }
      ],
      "name": "hasOperatorRole",
      "outputs": [
        {
          "internalType": "bool",
          "name": "",
          "type": "bool"
        }
      ],
      "stateMutability": "view",
      "type": "function"
    },
    {
      "inputs": [
        {
          "internalType": "bytes32",
          "name": "role",
          "type": "bytes32"
        },
        {
          "internalType": "address",
          "name": "account",
          "type": "address"
        }
      ],
      "name": "hasRole",
      "outputs": [
        {
          "internalType": "bool",
          "name": "",
          "type": "bool"
        }
      ],
      "stateMutability": "view",
      "type": "function"
    },
    {
      "inputs": [
        {
          "internalType": "address",
          "name": "_address",
          "type": "address"
        }
      ],
      "name": "hasSmartContractRole",
      "outputs": [
        {
          "internalType": "bool",
          "name": "",
          "type": "bool"
        }
      ],
      "stateMutability": "view",
      "type": "function"
    },
    {
      "inputs": [
        {
          "internalType": "bytes",
          "name": "_data",
          "type": "bytes"
        }
      ],
      "name": "init",
      "outputs": [],
      "stateMutability": "payable",
      "type": "function"
    },
    {
      "inputs": [
        {
          "internalType": "address",
          "name": "_admin",
          "type": "address"
        }
      ],
      "name": "initAccessControls",
      "outputs": [],
      "stateMutability": "nonpayable",
      "type": "function"
    },
    {
      "inputs": [
        {
          "internalType": "address",
          "name": "_funder",
          "type": "address"
        },
        {
          "internalType": "address",
          "name": "_token",
          "type": "address"
        },
        {
          "internalType": "uint256",
          "name": "_totalTokens",
          "type": "uint256"
        },
        {
          "internalType": "uint256",
          "name": "_startTime",
          "type": "uint256"
        },
        {
          "internalType": "uint256",
          "name": "_endTime",
          "type": "uint256"
        },
        {
          "internalType": "address",
          "name": "_paymentCurrency",
          "type": "address"
        },
        {
          "internalType": "uint256",
          "name": "_startPrice",
          "type": "uint256"
        },
        {
          "internalType": "uint256",
          "name": "_minimumPrice",
          "type": "uint256"
        },
        {
          "internalType": "address",
          "name": "_admin",
          "type": "address"
        },
        {
          "internalType": "address",
          "name": "_pointList",
          "type": "address"
        },
        {
          "internalType": "address payable",
          "name": "_wallet",
          "type": "address"
        }
      ],
      "name": "initAuction",
      "outputs": [],
      "stateMutability": "nonpayable",
      "type": "function"
    },
    {
      "inputs": [
        {
          "internalType": "bytes",
          "name": "_data",
          "type": "bytes"
        }
      ],
      "name": "initMarket",
      "outputs": [],
      "stateMutability": "nonpayable",
      "type": "function"
    },
    {
      "inputs": [],
      "name": "isOpen",
      "outputs": [
        {
          "internalType": "bool",
          "name": "",
          "type": "bool"
        }
      ],
      "stateMutability": "view",
      "type": "function"
    },
    {
      "inputs": [],
      "name": "marketInfo",
      "outputs": [
        {
          "internalType": "uint64",
          "name": "startTime",
          "type": "uint64"
        },
        {
          "internalType": "uint64",
          "name": "endTime",
          "type": "uint64"
        },
        {
          "internalType": "uint128",
          "name": "totalTokens",
          "type": "uint128"
        }
      ],
      "stateMutability": "view",
      "type": "function"
    },
    {
      "inputs": [],
      "name": "marketParticipationAgreement",
      "outputs": [
        {
          "internalType": "string",
          "name": "",
          "type": "string"
        }
      ],
      "stateMutability": "pure",
      "type": "function"
    },
    {
      "inputs": [],
      "name": "marketPrice",
      "outputs": [
        {
          "internalType": "uint128",
          "name": "startPrice",
          "type": "uint128"
        },
        {
          "internalType": "uint128",
          "name": "minimumPrice",
          "type": "uint128"
        }
      ],
      "stateMutability": "view",
      "type": "function"
    },
    {
      "inputs": [],
      "name": "marketStatus",
      "outputs": [
        {
          "internalType": "uint128",
          "name": "commitmentsTotal",
          "type": "uint128"
        },
        {
          "internalType": "bool",
          "name": "finalized",
          "type": "bool"
        },
        {
          "internalType": "bool",
          "name": "usePointList",
          "type": "bool"
        }
      ],
      "stateMutability": "view",
      "type": "function"
    },
    {
      "inputs": [],
      "name": "marketTemplate",
      "outputs": [
        {
          "internalType": "uint256",
          "name": "",
          "type": "uint256"
        }
      ],
      "stateMutability": "view",
      "type": "function"
    },
    {
      "inputs": [],
      "name": "paymentCurrency",
      "outputs": [
        {
          "internalType": "address",
          "name": "",
          "type": "address"
        }
      ],
      "stateMutability": "view",
      "type": "function"
    },
    {
      "inputs": [
        {
          "internalType": "contract IERC20",
          "name": "token",
          "type": "address"
        },
        {
          "internalType": "address",
          "name": "from",
          "type": "address"
        },
        {
          "internalType": "address",
          "name": "to",
          "type": "address"
        },
        {
          "internalType": "uint256",
          "name": "amount",
          "type": "uint256"
        },
        {
          "internalType": "uint256",
          "name": "deadline",
          "type": "uint256"
        },
        {
          "internalType": "uint8",
          "name": "v",
          "type": "uint8"
        },
        {
          "internalType": "bytes32",
          "name": "r",
          "type": "bytes32"
        },
        {
          "internalType": "bytes32",
          "name": "s",
          "type": "bytes32"
        }
      ],
      "name": "permitToken",
      "outputs": [],
      "stateMutability": "nonpayable",
      "type": "function"
    },
    {
      "inputs": [],
      "name": "pointList",
      "outputs": [
        {
          "internalType": "address",
          "name": "",
          "type": "address"
        }
      ],
      "stateMutability": "view",
      "type": "function"
    },
    {
      "inputs": [],
      "name": "priceDrop",
      "outputs": [
        {
          "internalType": "uint256",
          "name": "",
          "type": "uint256"
        }
      ],
      "stateMutability": "view",
      "type": "function"
    },
    {
      "inputs": [],
      "name": "priceFunction",
      "outputs": [
        {
          "internalType": "uint256",
          "name": "",
          "type": "uint256"
        }
      ],
      "stateMutability": "view",
      "type": "function"
    },
    {
      "inputs": [
        {
          "internalType": "address",
          "name": "_address",
          "type": "address"
        }
      ],
      "name": "removeAdminRole",
      "outputs": [],
      "stateMutability": "nonpayable",
      "type": "function"
    },
    {
      "inputs": [
        {
          "internalType": "string",
          "name": "_name",
          "type": "string"
        }
      ],
      "name": "removeDocument",
      "outputs": [],
      "stateMutability": "nonpayable",
      "type": "function"
    },
    {
      "inputs": [
        {
          "internalType": "address",
          "name": "_address",
          "type": "address"
        }
      ],
      "name": "removeMinterRole",
      "outputs": [],
      "stateMutability": "nonpayable",
      "type": "function"
    },
    {
      "inputs": [
        {
          "internalType": "address",
          "name": "_address",
          "type": "address"
        }
      ],
      "name": "removeOperatorRole",
      "outputs": [],
      "stateMutability": "nonpayable",
      "type": "function"
    },
    {
      "inputs": [
        {
          "internalType": "address",
          "name": "_address",
          "type": "address"
        }
      ],
      "name": "removeSmartContractRole",
      "outputs": [],
      "stateMutability": "nonpayable",
      "type": "function"
    },
    {
      "inputs": [
        {
          "internalType": "bytes32",
          "name": "role",
          "type": "bytes32"
        },
        {
          "internalType": "address",
          "name": "account",
          "type": "address"
        }
      ],
      "name": "renounceRole",
      "outputs": [],
      "stateMutability": "nonpayable",
      "type": "function"
    },
    {
      "inputs": [
        {
          "internalType": "bytes32",
          "name": "role",
          "type": "bytes32"
        },
        {
          "internalType": "address",
          "name": "account",
          "type": "address"
        }
      ],
      "name": "revokeRole",
      "outputs": [],
      "stateMutability": "nonpayable",
      "type": "function"
    },
    {
      "inputs": [
        {
          "internalType": "uint256",
          "name": "_startPrice",
          "type": "uint256"
        },
        {
          "internalType": "uint256",
          "name": "_minimumPrice",
          "type": "uint256"
        }
      ],
      "name": "setAuctionPrice",
      "outputs": [],
      "stateMutability": "nonpayable",
      "type": "function"
    },
    {
      "inputs": [
        {
          "internalType": "uint256",
          "name": "_startTime",
          "type": "uint256"
        },
        {
          "internalType": "uint256",
          "name": "_endTime",
          "type": "uint256"
        }
      ],
      "name": "setAuctionTime",
      "outputs": [],
      "stateMutability": "nonpayable",
      "type": "function"
    },
    {
      "inputs": [
        {
          "internalType": "address payable",
          "name": "_wallet",
          "type": "address"
        }
      ],
      "name": "setAuctionWallet",
      "outputs": [],
      "stateMutability": "nonpayable",
      "type": "function"
    },
    {
      "inputs": [
        {
          "internalType": "string",
          "name": "_name",
          "type": "string"
        },
        {
          "internalType": "string",
          "name": "_data",
          "type": "string"
        }
      ],
      "name": "setDocument",
      "outputs": [],
      "stateMutability": "nonpayable",
      "type": "function"
    },
    {
      "inputs": [
        {
          "internalType": "string[]",
          "name": "_name",
          "type": "string[]"
        },
        {
          "internalType": "string[]",
          "name": "_data",
          "type": "string[]"
        }
      ],
      "name": "setDocuments",
      "outputs": [],
      "stateMutability": "nonpayable",
      "type": "function"
    },
    {
      "inputs": [
        {
          "internalType": "address",
          "name": "_list",
          "type": "address"
        }
      ],
      "name": "setList",
      "outputs": [],
      "stateMutability": "nonpayable",
      "type": "function"
    },
    {
      "inputs": [],
      "name": "tokenPrice",
      "outputs": [
        {
          "internalType": "uint256",
          "name": "",
          "type": "uint256"
        }
      ],
      "stateMutability": "view",
      "type": "function"
    },
    {
      "inputs": [
        {
          "internalType": "address",
          "name": "_user",
          "type": "address"
        }
      ],
      "name": "tokensClaimable",
      "outputs": [
        {
          "internalType": "uint256",
          "name": "claimerCommitment",
          "type": "uint256"
        }
      ],
      "stateMutability": "view",
      "type": "function"
    },
    {
      "inputs": [],
      "name": "totalTokensCommitted",
      "outputs": [
        {
          "internalType": "uint256",
          "name": "",
          "type": "uint256"
        }
      ],
      "stateMutability": "view",
      "type": "function"
    },
    {
      "inputs": [],
      "name": "wallet",
      "outputs": [
        {
          "internalType": "address payable",
          "name": "",
          "type": "address"
        }
      ],
      "stateMutability": "view",
      "type": "function"
    },
    {
      "inputs": [
        {
          "internalType": "address payable",
          "name": "beneficiary",
          "type": "address"
        }
      ],
      "name": "withdrawTokens",
      "outputs": [],
      "stateMutability": "nonpayable",
      "type": "function"
    },
    {
      "inputs": [],
      "name": "withdrawTokens",
      "outputs": [],
      "stateMutability": "nonpayable",
      "type": "function"
    },
    {
      "stateMutability": "payable",
      "type": "receive"
    }
  ],
  "transactionHash": "0x961e01fd33f54c0100f6970dd183d230e90fb7050ae09ec78a484712176ae795",
  "args": [],
  "solcInputHash": "1fb438077347298e0d57961a6b349fd4",
  "bytecode": "0x608060405234801561001057600080fd5b5060016005556150be806100256000396000f3fe6080604052600436106104355760003560e01c80638a845fc011610229578063c6b547e61161012e578063dc97e082116100b6578063e8fcf7231161007a578063e8fcf72314610c3b578063f04899d314610c5b578063f08b82e614610c70578063f5b541a614610c85578063fc4e3e0a14610c9a57610444565b8063dc97e08214610b97578063dccfe31014610bb7578063dde51f6d14610bd7578063e0e081d714610bf7578063e6594abd14610c1b57610444565b8063d2423b51116100fd578063d2423b5114610b0c578063d539139314610b2d578063d547741f14610b42578063d69d3e6214610b62578063d7568b6e14610b8257610444565b8063c6b547e614610a8c578063c884ef8314610aac578063c92bce8714610acc578063ca15c87314610aec57610444565b80639c64d0ae116101b1578063adbf377611610180578063adbf3776146109f7578063b1f1621814610a17578063b3f05b9714610a37578063b7928b1d14610a4c578063c395fcb314610a6c57610444565b80639c64d0ae1461098b5780639fa5f50b146109ab578063a217fddf146109cd578063a9d87ee6146109e257610444565b8063919e93b5116101f8578063919e93b51461090157806391d14854146109165780639478941c1461093657806399fdb320146109565780639a87222c1461096b57610444565b80638a845fc0146108975780638d8f2adb146108b75780638fa8b790146108cc5780639010d07c146108e157610444565b806347535d7b1161033a5780636ae260c1116102c25780637ff9b596116102865780637ff9b5961461081857806381353c8e1461082d57806384720f161461084d578063857d26081461086d578063864333741461088257610444565b80636ae260c11461076857806373973fcb1461078857806374cf9fc5146107a85780637c516e94146107ca5780637ccb6a64146107ea57610444565b80634dc80e15116103095780634dc80e15146106e05780634ddf47d414610700578063521eb2731461071357806354f1e126146107285780636595171c1461074857610444565b806347535d7b1461067657806349df728c1461068b5780634b3e6abb146106ab5780634bb278f3146106cb57610444565b80632f2ff15d116103bd57806336d0054b1161038c57806336d0054b146105e75780633d15cc6d146105fc5780633d1c22731461061e5780633f16431a1461063357806345a153881461065357610444565b80632f2ff15d1461056d578063314148e21461058d57806332a0f2d7146105b257806336568abe146105c757610444565b80631b3e460e116104045780631b3e460e146104d8578063212f8a81146104fa578063248a9ca31461051a57806324e4025b1461053a578063297629601461055a57610444565b8063031bee0014610449578063099db01714610476578063113b0ab2146104a357806317026455146104c357610444565b3661044457610442610cba565b005b600080fd5b34801561045557600080fd5b5061045e610cdb565b60405161046d93929190614dfd565b60405180910390f35b34801561048257600080fd5b506104966104913660046139c8565b610d08565b60405161046d9190614175565b3480156104af57600080fd5b506104966104be3660046139c8565b610d2a565b3480156104cf57600080fd5b50610496610d44565b3480156104e457600080fd5b506104ed610d63565b60405161046d9190614180565b34801561050657600080fd5b50610442610515366004613afa565b610d68565b34801561052657600080fd5b506104ed610535366004613c24565b610e1b565b34801561054657600080fd5b50610442610555366004613c60565b610e30565b610442610568366004613aa1565b610f37565b34801561057957600080fd5b50610442610588366004613c3c565b61101e565b34801561059957600080fd5b506105a2611066565b60405161046d9493929190614049565b3480156105be57600080fd5b506104ed61109e565b3480156105d357600080fd5b506104426105e2366004613c3c565b6110cd565b3480156105f357600080fd5b5061049661110f565b34801561060857600080fd5b50610611611128565b60405161046d9190613f58565b34801561062a57600080fd5b506104ed611137565b34801561063f57600080fd5b5061044261064e3660046139c8565b61113d565b34801561065f57600080fd5b5061066861119f565b60405161046d929190614dd5565b34801561068257600080fd5b506104966111b9565b34801561069757600080fd5b506104426106a63660046139c8565b6111ee565b3480156106b757600080fd5b506104426106c6366004613bec565b611338565b3480156106d757600080fd5b50610442611368565b3480156106ec57600080fd5b506104ed6106fb3660046139c8565b61151e565b61044261070e366004613c81565b611062565b34801561071f57600080fd5b50610611611648565b34801561073457600080fd5b506104426107433660046139c8565b611657565b34801561075457600080fd5b506104426107633660046139c8565b6116b9565b34801561077457600080fd5b50610442610783366004613c60565b61170e565b34801561079457600080fd5b506104ed6107a3366004613c24565b611861565b3480156107b457600080fd5b506107bd6118db565b60405161046d9190614189565b3480156107d657600080fd5b506104426107e5366004613cc0565b6118fe565b3480156107f657600080fd5b5061080a610805366004613c81565b611972565b60405161046d9291906141cb565b34801561082457600080fd5b506104ed611a5f565b34801561083957600080fd5b50610442610848366004613c81565b611a92565b34801561085957600080fd5b506107bd610868366004613ad9565b611ae2565b34801561087957600080fd5b506104ed611b29565b34801561088e57600080fd5b50610496611b3b565b3480156108a357600080fd5b506104426108b23660046139c8565b611b64565b3480156108c357600080fd5b50610442611bc6565b3480156108d857600080fd5b50610442611bd1565b3480156108ed57600080fd5b506106116108fc366004613c60565b611cd0565b34801561090d57600080fd5b506104ed611cf1565b34801561092257600080fd5b50610496610931366004613c3c565b611d1c565b34801561094257600080fd5b506104426109513660046139c8565b611d34565b34801561096257600080fd5b50610611611d96565b34801561097757600080fd5b506104426109863660046139c8565b611da5565b34801561099757600080fd5b506104426109a6366004613d42565b611e33565b3480156109b757600080fd5b506109c0611e51565b60405161046d9190614115565b3480156109d957600080fd5b506104ed611f29565b3480156109ee57600080fd5b506104ed611f2e565b348015610a0357600080fd5b50610442610a123660046139c8565b611f8f565b348015610a2357600080fd5b50610442610a32366004613ad9565b611ff1565b348015610a4357600080fd5b50610496612384565b348015610a5857600080fd5b50610442610a673660046139c8565b612394565b348015610a7857600080fd5b50610496610a873660046139c8565b6123f6565b348015610a9857600080fd5b506107bd610aa7366004613c24565b612402565b348015610ab857600080fd5b506104ed610ac73660046139c8565b6124cd565b348015610ad857600080fd5b50610442610ae7366004613b84565b6124df565b348015610af857600080fd5b506104ed610b07366004613c24565b612551565b610b1f610b1a366004613b3b565b612568565b60405161046d92919061407b565b348015610b3957600080fd5b506104ed6126f8565b348015610b4e57600080fd5b50610442610b5d366004613c3c565b61270a565b348015610b6e57600080fd5b50610442610b7d3660046139c8565b612744565b348015610b8e57600080fd5b506104ed612762565b348015610ba357600080fd5b50610442610bb2366004613e50565b61283a565b348015610bc357600080fd5b50610442610bd23660046139c8565b612845565b348015610be357600080fd5b50610442610bf2366004613c81565b61289a565b348015610c0357600080fd5b50610c0c6128b6565b60405161046d93929190614db2565b348015610c2757600080fd5b50610442610c363660046139c8565b6128db565b348015610c4757600080fd5b506104ed610c563660046139c8565b61293e565b348015610c6757600080fd5b50610611612950565b348015610c7c57600080fd5b506104ed61295f565b348015610c9157600080fd5b506104ed612975565b348015610ca657600080fd5b50610496610cb53660046139c8565b612987565b60405162461bcd60e51b8152600401610cd290614667565b60405180910390fd5b6006546001600160401b0380821691600160401b810490911690600160801b90046001600160801b031683565b6000610d22600080516020614f1883398151915283611d1c565b90505b919050565b6000610d22600080516020614ed883398151915283611d1c565b60065442600160401b9091046001600160401b031662093a8001105b90565b600281565b60026005541415610d8b5760405162461bcd60e51b8152600401610cd290614bd2565b6002600555600a546001600160a01b031673eeeeeeeeeeeeeeeeeeeeeeeeeeeeeeeeeeeeeeee1415610dcf5760405162461bcd60e51b8152600401610cd290614277565b80610ddc57610ddc610cba565b6000610de783611861565b90508015610e1057600a54610e06906001600160a01b031633836129a1565b610e108482612a7e565b505060016005555050565b60009081526020819052604090206002015490565b610e39336123f6565b610e4257600080fd5b808211610e615760405162461bcd60e51b8152600401610cd290614c91565b60008111610e815760405162461bcd60e51b8152600401610cd2906144cd565b6008546001600160801b031615610eaa5760405162461bcd60e51b8152600401610cd290614c09565b610eb382612c21565b600780546001600160801b0319166001600160801b0392909216919091179055610edc81612c21565b600780546001600160801b03928316600160801b0292169190911790556040517f622a57040c34e45abc5fadeb22e4c3c687cf48a096c86694cd21a7be9e7851ee90610f2b9084908490614def565b60405180910390a15050565b600a546001600160a01b031673eeeeeeeeeeeeeeeeeeeeeeeeeeeeeeeeeeeeeeee14610f755760405162461bcd60e51b8152600401610cd290614972565b80610f8257610f82610cba565b6000610f8d34611861565b90506000610f9b3483612c4e565b90508115610fad57610fad8483612a7e565b8015610feb576040516001600160a01b0385169082156108fc029083906000818181858888f19350505050158015610fe9573d6000803e3d6000fd5b505b600854476001600160801b0390911611156110185760405162461bcd60e51b8152600401610cd29061451f565b50505050565b60008281526020819052604090206002015461103c90610931612c71565b6110585760405162461bcd60e51b8152600401610cd290614433565b6110628282612c75565b5050565b6009546006546008546001600160a01b03909216926001600160401b0380831693600160401b9093041691600160801b900460ff1690565b6000806110a9611a5f565b905060006110b5611f2e565b90508082116110c457806110c6565b815b9250505090565b6110d5612c71565b6001600160a01b0316816001600160a01b0316146111055760405162461bcd60e51b8152600401610cd290614d35565b6110628282612cde565b600061111961109e565b611121611a5f565b1015905090565b600a546001600160a01b031681565b60045490565b611155600080516020614ed88339815191528261101e565b61115d612c71565b6001600160a01b0316816001600160a01b03167f1d5f9ec24c6f91be922ea13ceaad919ad6554a41b5c26087f96289a9baf98ad260405160405180910390a350565b6007546001600160801b0380821691600160801b90041682565b6006546000906001600160401b031642108015906111e95750600654600160401b90046001600160401b03164211155b905090565b600260055414156112115760405162461bcd60e51b8152600401610cd290614bd2565b600260055561121e61110f565b156112ce57600854600160801b900460ff1661124c5760405162461bcd60e51b8152600401610cd290614a5d565b60006112578261151e565b9050600081116112795760405162461bcd60e51b8152600401610cd290614347565b6001600160a01b0382166000908152600e602052604090205461129c9082612d47565b6001600160a01b038084166000908152600e60205260409020919091556009546112c891168383612d6a565b50611330565b600654600160401b90046001600160401b031642116112ff5760405162461bcd60e51b8152600401610cd290614b3b565b6001600160a01b038082166000908152600d602052604081208054919055600a54909161132e91168383612d6a565b505b506001600555565b611341336123f6565b61134a57600080fd5b60088054911515600160881b0260ff60881b19909216919091179055565b6002600554141561138b5760405162461bcd60e51b8152600401610cd290614bd2565b6002600555611399336123f6565b806113a857506113a833610d2a565b806113bd5750600b546001600160a01b031633145b806113cb57506113cb610d44565b6113e75760405162461bcd60e51b8152600401610cd2906149c3565b600654600160801b90046001600160801b03166114165760405162461bcd60e51b8152600401610cd290614838565b60088054600160801b900460ff16156114415760405162461bcd60e51b8152600401610cd290614572565b61144961110f565b1561147b57600a54600b548254611476926001600160a01b039081169216906001600160801b0316612d6a565b6114dc565b600654600160401b90046001600160401b031642116114ac5760405162461bcd60e51b8152600401610cd290614b3b565b600954600b546006546114dc926001600160a01b03908116921690600160801b90046001600160801b0316612d6a565b805460ff60801b1916600160801b1781556040517f32bebcfd2d04dbae321298091d96d2cb1d07279f59718cd83bd98245b8b82b5a90600090a1506001600555565b6001600160a01b0381166000908152600d602052604081205461154357506000610d25565b6009546040516370a0823160e01b81526000916001600160a01b0316906370a0823190611574903090600401613f58565b60206040518083038186803b15801561158c57600080fd5b505afa1580156115a0573d6000803e3d6000fd5b505050506040513d601f19601f820116820180604052508101906115c49190613e38565b6008546006546001600160a01b0386166000908152600d602052604090205492935061160d926001600160801b039283169261160792600160801b900416612dae565b90612de5565b6001600160a01b0384166000908152600e6020526040902054909250611634908390612c4e565b915080821115611642578091505b50919050565b600b546001600160a01b031681565b61166f600080516020614f188339815191528261270a565b611677612c71565b6001600160a01b0316816001600160a01b03167f56692a161ffec953ddf9def93b958ea8d1ec95e21b80870c66be91a4374dc4e360405160405180910390a350565b6116c460008261101e565b6116cc612c71565b6001600160a01b0316816001600160a01b03167f2570ac42fd8b322dc453ada624dc2ed0e9bdd67f16f201a25bbd30468f2aa18760405160405180910390a350565b611717336123f6565b61172057600080fd5b6402540be40082106117445760405162461bcd60e51b8152600401610cd2906145b9565b6402540be40081106117685760405162461bcd60e51b8152600401610cd2906145b9565b428210156117885760405162461bcd60e51b8152600401610cd2906146df565b8181116117a75760405162461bcd60e51b8152600401610cd2906142c4565b6008546001600160801b0316156117d05760405162461bcd60e51b8152600401610cd290614c09565b6117d982612e17565b6006805467ffffffffffffffff19166001600160401b039290921691909117905561180381612e17565b600680546001600160401b0392909216600160401b0267ffffffffffffffff60401b199092169190911790556040517f5725d1e4352d6944889e54837ffaefde55cdc0b55796b831365d61cd4c87fdb890610f2b9084908490614def565b600080611894670de0b6b3a764000061160761187b61109e565b600654600160801b90046001600160801b031690612dae565b60085490915081906118af906001600160801b031685612d47565b11156118d4576008546118cc9082906001600160801b0316612c4e565b915050610d25565b5090919050565b60606040518061018001604052806101518152602001614f386101519139905090565b60405163d505accf60e01b81526001600160a01b0389169063d505accf90611936908a908a908a908a908a908a908a90600401613fef565b600060405180830381600087803b15801561195057600080fd5b505af1158015611964573d6000803e3d6000fd5b505050505050505050505050565b6060600060028484604051611988929190613ebc565b9081526020016040518091039020600101600285856040516119ab929190613ebc565b908152604080516020928190038301812054845460026101006001831615026000190190911604601f810185900485028301850190935282825264010000000090046001600160401b03169290918491830182828015611a4c5780601f10611a2157610100808354040283529160200191611a4c565b820191906000526020600020905b815481529060010190602001808311611a2f57829003601f168201915b50505050509150915091505b9250929050565b6006546008546000916111e9916001600160801b03600160801b9092048216916116079116670de0b6b3a7640000612dae565b600080808080808080808080611aaa8c8e018e6139eb565b9a509a509a509a509a509a509a509a509a509a509a50611ad38b8b8b8b8b8b8b8b8b8b8b611ff1565b50505050505050505050505050565b60608b8b8b8b8b8b8b8b8b8b8b604051602001611b099b9a99989796959493929190613f90565b60405160208183030381529060405290509b9a5050505050505050505050565b600080516020614ed883398151915281565b6000611b4561110f565b806111e9575050600654600160401b90046001600160401b0316421190565b611b7c600080516020614ed88339815191528261270a565b611b84612c71565b6001600160a01b0316816001600160a01b03167fe5f1aa9e528307345194b88b24a32401c13926e0823060f1049d9b26c0bb62b260405160405180910390a350565b611bcf336111ee565b565b60026005541415611bf45760405162461bcd60e51b8152600401610cd290614bd2565b6002600555611c02336123f6565b611c0b57600080fd5b60088054600160801b900460ff1615611c365760405162461bcd60e51b8152600401610cd290614572565b80546001600160801b031615611c5e5760405162461bcd60e51b8152600401610cd290614620565b600954600b54600654611c8e926001600160a01b03908116921690600160801b90046001600160801b0316612d6a565b805460ff60801b1916600160801b1781556040517fa5fb31e47bd1eca58bf14a3312d5e6aeafdc4ee787c8ed348c15c2b092324d9390600090a1506001600555565b6000828152602081905260408120611ce89083612e40565b90505b92915050565b60006111e9611cfe61109e565b600854611607906001600160801b0316670de0b6b3a7640000612dae565b6000828152602081905260408120611ce89083612e4c565b611d4c600080516020614ef88339815191528261270a565b611d54612c71565b6001600160a01b0316816001600160a01b03167f70b25138b6fadeb9992d18b9653564271823e34b3e3257515d12a6d4b15fcddf60405160405180910390a350565b6009546001600160a01b031681565b611dae336123f6565b611db757600080fd5b6001600160a01b038116611ddd5760405162461bcd60e51b8152600401610cd29061437c565b600b80546001600160a01b0319166001600160a01b0383161790556040517f34ae2bad9265f0212d4cf341708b8250949164bb54f9d0e4f442024f83bb2f9090611e28908390613f58565b60405180910390a150565b611e3c336123f6565b611e4557600080fd5b61101884848484612e61565b60606004805480602002602001604051908101604052809291908181526020016000905b82821015611f205760008481526020908190208301805460408051601f6002600019610100600187161502019094169390930492830185900485028101850190915281815292830182828015611f0c5780601f10611ee157610100808354040283529160200191611f0c565b820191906000526020600020905b815481529060010190602001808311611eef57829003601f168201915b505050505081526020019060010190611e75565b50505050905090565b600081565b6006546000906001600160401b03164211611f5557506007546001600160801b0316610d60565b600654600160401b90046001600160401b03164210611f875750600754600160801b90046001600160801b0316610d60565b6111e96130b3565b611fa7600080516020614f188339815191528261101e565b611faf612c71565b6001600160a01b0316816001600160a01b03167f0be6ab9784c7401fafb73f7bc47bc67cc4ef8c47a60ad3cb66d1de0353a0784c60405160405180910390a350565b6402540be40087106120155760405162461bcd60e51b8152600401610cd2906145b9565b428810156120355760405162461bcd60e51b8152600401610cd2906146df565b8787116120545760405162461bcd60e51b8152600401610cd290614a08565b600089116120745760405162461bcd60e51b8152600401610cd29061475d565b8385116120935760405162461bcd60e51b8152600401610cd290614c91565b600084116120b35760405162461bcd60e51b8152600401610cd2906144cd565b6001600160a01b0383166120d95760405162461bcd60e51b8152600401610cd290614cee565b6001600160a01b0381166120ff5760405162461bcd60e51b8152600401610cd29061437c565b896001600160a01b031663313ce5676040518163ffffffff1660e01b815260040160206040518083038186803b15801561213857600080fd5b505afa15801561214c573d6000803e3d6000fd5b505050506040513d601f19601f820116820180604052508101906121709190613e74565b60ff166012146121925760405162461bcd60e51b8152600401610cd290614b85565b6001600160a01b03861673eeeeeeeeeeeeeeeeeeeeeeeeeeeeeeeeeeeeeeee14612249576000866001600160a01b031663313ce5676040518163ffffffff1660e01b815260040160206040518083038186803b1580156121f157600080fd5b505afa158015612205573d6000803e3d6000fd5b505050506040513d601f19601f820116820180604052508101906122299190613e74565b60ff16116122495760405162461bcd60e51b8152600401610cd290614482565b61225288612e17565b6006805467ffffffffffffffff19166001600160401b039290921691909117905561227c87612e17565b600680546001600160401b0392909216600160401b0267ffffffffffffffff60401b199092169190911790556122b189612c21565b600680546001600160801b03928316600160801b0292169190911790556122d785612c21565b600780546001600160801b0319166001600160801b039290921691909117905561230084612c21565b600780546001600160801b03928316600160801b029216919091179055600980546001600160a01b03808d166001600160a01b031992831617909255600a8054898416908316179055600b805492841692909116919091179055612363836128db565b61236c826131d5565b6123778a8c8b6129a1565b5050505050505050505050565b600854600160801b900460ff1690565b6123ac600080516020614ef88339815191528261101e565b6123b4612c71565b6001600160a01b0316816001600160a01b03167f2d45ee102874989882745a26688d0b4fffee125a18df26536b12582c7fde4e1760405160405180910390a350565b6000610d228183611d1c565b60045460609082106124265760405162461bcd60e51b8152600401610cd290614ad7565b6004828154811061243357fe5b600091825260209182902001805460408051601f60026000196101006001871615020190941693909304928301859004850281018501909152818152928301828280156124c15780601f10612496576101008083540402835291602001916124c1565b820191906000526020600020905b8154815290600101906020018083116124a457829003601f168201915b50505050509050919050565b600e6020526000908152604090205481565b6124e8336123f6565b6124f157600080fd5b8260005b818110156125495761254186868381811061250c57fe5b905060200281019061251e9190614e29565b86868581811061252a57fe5b905060200281019061253c9190614e29565b612e61565b6001016124f5565b505050505050565b6000818152602081905260408120610d2290613217565b606080836001600160401b038111801561258157600080fd5b506040519080825280602002602001820160405280156125ab578160200160208202803683370190505b509150836001600160401b03811180156125c457600080fd5b506040519080825280602002602001820160405280156125f857816020015b60608152602001906001900390816125e35790505b50905060005b848110156126ef57600060603088888581811061261757fe5b90506020028101906126299190614e29565b604051612637929190613ebc565b600060405180830381855af49150503d8060008114612672576040519150601f19603f3d011682016040523d82523d6000602084013e612677565b606091505b50915091508180612686575085155b61268f82613222565b906126ad5760405162461bcd60e51b8152600401610cd29190614189565b50818584815181106126bb57fe5b602002602001019015159081151581525050808484815181106126da57fe5b602090810291909101015250506001016125fe565b50935093915050565b600080516020614f1883398151915281565b60008281526020819052604090206002015461272890610931612c71565b6111055760405162461bcd60e51b8152600401610cd2906147e8565b61274d336123f6565b61275657600080fd5b61275f816131d5565b50565b600061276c61375f565b50604080516060810182526006546001600160401b038082168352600160401b8204166020830152600160801b90046001600160801b0316918101919091526127b361377f565b50604080518082019091526007546001600160801b03808216808452600160801b90920416602083018190526000916127eb91613282565b6001600160801b03169050600061281c846000015185602001516001600160401b03166132b190919063ffffffff16565b6001600160401b0316905080828161283057fe5b0494505050505090565b611062338383610d68565b61285060008261270a565b612858612c71565b6001600160a01b0316816001600160a01b03167f21ba1239795d4e22874e3dc55f0a9d7b65bfb23069d32965d7c23be9524ccf9560405160405180910390a350565b6128a3336123f6565b6128ac57600080fd5b61106282826132e0565b6008546001600160801b0381169060ff600160801b8204811691600160881b90041683565b60015460ff16156128fe5760405162461bcd60e51b8152600401610cd2906143c4565b6001600160a01b0381166129245760405162461bcd60e51b8152600401610cd2906148cf565b61292f600082611058565b506001805460ff191681179055565b600d6020526000908152604090205481565b600c546001600160a01b031681565b600654600160801b90046001600160801b031690565b600080516020614ef883398151915281565b6000610d22600080516020614ef883398151915283611d1c565b60006060846001600160a01b03166323b872dd8530866040516024016129c993929190613f6c565b6040516020818303038152906040529060e01b6020820180516001600160e01b038381831617835250505050604051612a029190613ecc565b6000604051808303816000865af19150503d8060008114612a3f576040519150601f19603f3d011682016040523d82523d6000602084013e612a44565b606091505b5091509150818015612a6e575080511580612a6e575080806020019051810190612a6e9190613c08565b612a7757600080fd5b5050505050565b6006546001600160401b03164210801590612aab5750600654600160401b90046001600160401b03164211155b612ac75760405162461bcd60e51b8152600401610cd2906148f8565b6001600160a01b0382166000908152600d602052604081205460089190612aee9084612d47565b8254909150600160881b900460ff1615612b8d57600c54604051631cd53d5560e01b81526001600160a01b0390911690631cd53d5590612b349087908590600401614030565b60206040518083038186803b158015612b4c57600080fd5b505afa158015612b60573d6000803e3d6000fd5b505050506040513d601f19601f82011682018060405250810190612b849190613c08565b612b8d57600080fd5b6001600160a01b0384166000908152600d602052604090208190558154612bc690612bc1906001600160801b031685612d47565b612c21565b82546001600160801b0319166001600160801b03919091161782556040517f077511a636ba1f10551cc7b89c13ff66a6ac9344e8a917527817a9690b15af7a90612c139086908690614030565b60405180910390a150505050565b60006001600160801b03821115612c4a5760405162461bcd60e51b8152600401610cd2906147b1565b5090565b80820382811115611ceb5760405162461bcd60e51b8152600401610cd290614318565b3390565b6000828152602081905260409020612c8d9082613511565b1561106257612c9a612c71565b6001600160a01b0316816001600160a01b0316837f2f8788117e7eff1d82e926ec794901d17c78024a50270940304540a733656f0d60405160405180910390a45050565b6000828152602081905260409020612cf69082613526565b1561106257612d03612c71565b6001600160a01b0316816001600160a01b0316837ff6391f5c32d9c69d2a47ea670b442974b53935d1edc7fd64eb21e047a839171b60405160405180910390a45050565b81810181811015611ceb5760405162461bcd60e51b8152600401610cd290614861565b6001600160a01b03831673eeeeeeeeeeeeeeeeeeeeeeeeeeeeeeeeeeeeeeee1415612d9e57612d99828261353b565b612da9565b612da98383836135c8565b505050565b6000811580612dc957505080820282828281612dc657fe5b04145b611ceb5760405162461bcd60e51b8152600401610cd290614c5a565b6000808211612e065760405162461bcd60e51b8152600401610cd290614d84565b818381612e0f57fe5b049392505050565b60006001600160401b03821115612c4a5760405162461bcd60e51b8152600401610cd29061493b565b6000611ce883836135ee565b6000611ce8836001600160a01b038416613633565b82612e7e5760405162461bcd60e51b8152600401610cd290614898565b80612e9b5760405162461bcd60e51b8152600401610cd290614b04565b60006001600160401b031660028585604051612eb8929190613ebc565b908152604051908190036020019020546001600160401b03640100000000909104161415612f5e5760048054600181018255600091909152612f1d907f8a35acfbc15ff81a39ae7d344fd709f28e8600b4aa8c65c6b64bfe7fe36bd19b018585613796565b50600454604051600290612f349087908790613ebc565b908152604051908190036020019020805463ffffffff9290921663ffffffff199092169190911790555b604051806060016040528060028686604051612f7b929190613ebc565b90815260408051602092819003830190205463ffffffff168352426001600160401b0316838301528051601f860183900483028101830182528581529201919085908590819084018382808284376000920191909152505050915250604051600290612fea9087908790613ebc565b9081526040805191829003602090810190922083518154858501516001600160401b0316640100000000026bffffffffffffffff000000001963ffffffff90931663ffffffff199092169190911791909116178155908301518051919261305992600185019290910190613810565b505060405161306c915085908590613ebc565b60405180910390207fbaa206e5ea800eb88bce099f453fee53295b793b9d5d1cfc4ce4b6db06a34f5383836040516130a592919061419c565b60405180910390a250505050565b60006130bd61375f565b50604080516060810182526006546001600160401b038082168352600160401b8204166020830152600160801b90046001600160801b03169181019190915261310461377f565b50604080518082019091526007546001600160801b038082168352600160801b9091041660208083019190915282519083015160009161314d916001600160401b0316906132b1565b6001600160401b03166131ac61317d846020015185600001516001600160801b031661328290919063ffffffff16565b6001600160801b03166131a686600001516001600160401b031642612c4e90919063ffffffff16565b90612dae565b816131b357fe5b835191900491506131cd906001600160801b031682612c4e565b935050505090565b6001600160a01b0381161561275f57600c80546001600160a01b0383166001600160a01b03199091161790556008805460ff60881b1916600160881b17905550565b6000610d228261364b565b6060604482511015613268575060408051808201909152601d81527f5472616e73616374696f6e2072657665727465642073696c656e746c790000006020820152610d25565b60048201915081806020019051810190610d229190613d9e565b8082036001600160801b038084169082161115611ceb5760405162461bcd60e51b8152600401610cd290614318565b8082036001600160401b038084169082161115611ceb5760405162461bcd60e51b8152600401610cd290614318565b60006001600160401b0316600283836040516132fd929190613ebc565b908152604051908190036020019020546001600160401b0364010000000090910416141561333d5760405162461bcd60e51b8152600401610cd29061472e565b6000600160028484604051613353929190613ebc565b9081526040519081900360200190205460045463ffffffff9182169290920392508216600019909101146134345760048054600019810190811061339357fe5b9060005260206000200160048263ffffffff16815481106133b057fe5b9060005260206000200190805460018160011615610100020316600290046133d992919061387e565b5080600101600260048363ffffffff16815481106133f357fe5b9060005260206000200160405161340a9190613ee8565b908152604051908190036020019020805463ffffffff9290921663ffffffff199092169190911790555b600480548061343f57fe5b60019003818190600052602060002001600061345b91906138f3565b9055828260405161346d929190613ebc565b60405180910390207f4b5338540b4d1c0f6dd0308a25f633b7ff60472f894d711cff9dd64e35c613b2600285856040516134a8929190613ebc565b90815260200160405180910390206001016040516134c691906141ed565b60405180910390a2600283836040516134e0929190613ebc565b90815260405190819003602001902080546bffffffffffffffffffffffff191681556000612a7760018301826138f3565b6000611ce8836001600160a01b03841661364f565b6000611ce8836001600160a01b038416613699565b604080516000808252602082019092526001600160a01b0384169083906040516135659190613ecc565b60006040518083038185875af1925050503d80600081146135a2576040519150601f19603f3d011682016040523d82523d6000602084013e6135a7565b606091505b5050905080612da95760405162461bcd60e51b8152600401610cd290614a94565b60006060846001600160a01b031663a9059cbb85856040516024016129c9929190614030565b815460009082106136115760405162461bcd60e51b8152600401610cd2906143f1565b82600001828154811061362057fe5b9060005260206000200154905092915050565b60009081526001919091016020526040902054151590565b5490565b600061365b8383613633565b61369157508154600181810184556000848152602080822090930184905584548482528286019093526040902091909155611ceb565b506000611ceb565b6000818152600183016020526040812054801561375557835460001980830191908101906000908790839081106136cc57fe5b90600052602060002001549050808760000184815481106136e957fe5b60009182526020808320909101929092558281526001898101909252604090209084019055865487908061371957fe5b60019003818190600052602060002001600090559055866001016000878152602001908152602001600020600090556001945050505050611ceb565b6000915050611ceb565b604080516060810182526000808252602082018190529181019190915290565b604080518082019091526000808252602082015290565b828054600181600116156101000203166002900490600052602060002090601f016020900481019282601f106137d75782800160ff19823516178555613804565b82800160010185558215613804579182015b828111156138045782358255916020019190600101906137e9565b50612c4a929150613933565b828054600181600116156101000203166002900490600052602060002090601f016020900481019282601f1061385157805160ff1916838001178555613804565b82800160010185558215613804579182015b82811115613804578251825591602001919060010190613863565b828054600181600116156101000203166002900490600052602060002090601f016020900481019282601f106138b75780548555613804565b8280016001018555821561380457600052602060002091601f016020900482015b828111156138045782548255916001019190600101906138d8565b50805460018160011615610100020316600290046000825580601f10613919575061275f565b601f01602090049060005260206000209081019061275f91905b5b80821115612c4a5760008155600101613934565b60008083601f840112613959578182fd5b5081356001600160401b0381111561396f578182fd5b6020830191508360208083028501011115611a5857600080fd5b60008083601f84011261399a578182fd5b5081356001600160401b038111156139b0578182fd5b602083019150836020828501011115611a5857600080fd5b6000602082840312156139d9578081fd5b81356139e481614ea5565b9392505050565b60008060008060008060008060008060006101608c8e031215613a0c578687fd5b8b35613a1781614ea5565b9a5060208c0135613a2781614ea5565b995060408c0135985060608c0135975060808c0135965060a08c0135613a4c81614ea5565b955060c08c0135945060e08c013593506101008c0135613a6b81614ea5565b92506101208c0135613a7c81614ea5565b91506101408c0135613a8d81614ea5565b809150509295989b509295989b9093969950565b60008060408385031215613ab3578182fd5b8235613abe81614ea5565b91506020830135613ace81614eba565b809150509250929050565b60008060008060008060008060008060006101608c8e031215613a0c578081fd5b600080600060608486031215613b0e578283fd5b8335613b1981614ea5565b9250602084013591506040840135613b3081614eba565b809150509250925092565b600080600060408486031215613b4f578081fd5b83356001600160401b03811115613b64578182fd5b613b7086828701613948565b9094509250506020840135613b3081614eba565b60008060008060408587031215613b99578182fd5b84356001600160401b0380821115613baf578384fd5b613bbb88838901613948565b90965094506020870135915080821115613bd3578384fd5b50613be087828801613948565b95989497509550505050565b600060208284031215613bfd578081fd5b81356139e481614eba565b600060208284031215613c19578081fd5b81516139e481614eba565b600060208284031215613c35578081fd5b5035919050565b60008060408385031215613c4e578182fd5b823591506020830135613ace81614ea5565b60008060408385031215613c72578182fd5b50508035926020909101359150565b60008060208385031215613c93578182fd5b82356001600160401b03811115613ca8578283fd5b613cb485828601613989565b90969095509350505050565b600080600080600080600080610100898b031215613cdc578182fd5b8835613ce781614ea5565b97506020890135613cf781614ea5565b96506040890135613d0781614ea5565b9550606089013594506080890135935060a0890135613d2581614ec8565b979a969950949793969295929450505060c08201359160e0013590565b60008060008060408587031215613d57578182fd5b84356001600160401b0380821115613d6d578384fd5b613d7988838901613989565b90965094506020870135915080821115613d91578384fd5b50613be087828801613989565b600060208284031215613daf578081fd5b81516001600160401b0380821115613dc5578283fd5b818401915084601f830112613dd8578283fd5b815181811115613de6578384fd5b604051601f8201601f191681016020018381118282101715613e06578586fd5b604052818152838201602001871015613e1d578485fd5b613e2e826020830160208701614e79565b9695505050505050565b600060208284031215613e49578081fd5b5051919050565b60008060408385031215613e62578182fd5b823591506020830135613ace81614eba565b600060208284031215613e85578081fd5b81516139e481614ec8565b60008151808452613ea8816020860160208601614e79565b601f01601f19169290920160200192915050565b6000828483379101908152919050565b60008251613ede818460208701614e79565b9190910192915050565b6000808354600180821660008114613f075760018114613f1e57613f4d565b60ff198316865260028304607f1686019350613f4d565b600283048786526020808720875b83811015613f455781548a820152908501908201613f2c565b505050860193505b509195945050505050565b6001600160a01b0391909116815260200190565b6001600160a01b039384168152919092166020820152604081019190915260600190565b6001600160a01b039b8c168152998b1660208b015260408a01989098526060890196909652608088019490945291871660a087015260c086015260e0850152841661010084015283166101208301529091166101408201526101600190565b6001600160a01b0397881681529590961660208601526040850193909352606084019190915260ff16608083015260a082015260c081019190915260e00190565b6001600160a01b03929092168252602082015260400190565b6001600160a01b039490941684526001600160401b039283166020850152911660408301521515606082015260800190565b604080825283519082018190526000906020906060840190828701845b828110156140b6578151151584529284019290840190600101614098565b505050838103828501528085516140cd8184614180565b91508192508381028201848801865b838110156141065785830385526140f4838351613e90565b948701949250908601906001016140dc565b50909998505050505050505050565b6000602080830181845280855180835260408601915060408482028701019250838701855b8281101561416857603f19888603018452614156858351613e90565b9450928501929085019060010161413a565b5092979650505050505050565b901515815260200190565b90815260200190565b600060208252611ce86020830184613e90565b60006020825282602083015282846040840137818301604090810191909152601f909201601f19160101919050565b6000604082526141de6040830185613e90565b90508260208301529392505050565b6000602080830181845282855460018082166000811461421457600181146142325761426a565b60028304607f16855260ff198316604089015260608801935061426a565b600283048086526142428a614e6d565b885b828110156142605781548b820160400152908401908801614244565b8a01604001955050505b5091979650505050505050565b6020808252602d908201527f447574636841756374696f6e3a205061796d656e742063757272656e6379206960408201526c39903737ba1030903a37b5b2b760991b606082015260800190565b60208082526034908201527f447574636841756374696f6e3a20656e642074696d65206d757374206265206f6040820152736c646572207468616e2073746172742074696d6560601b606082015260800190565b602080825260159082015274426f72696e674d6174683a20556e646572666c6f7760581b604082015260600190565b6020808252818101527f447574636841756374696f6e3a204e6f20746f6b656e7320746f20636c61696d604082015260600190565b60208082526028908201527f447574636841756374696f6e3a2077616c6c657420697320746865207a65726f604082015267206164647265737360c01b606082015260800190565b602080825260139082015272105b1c9958591e481a5b9a5d1a585b1a5cd959606a1b604082015260600190565b60208082526022908201527f456e756d657261626c655365743a20696e646578206f7574206f6620626f756e604082015261647360f01b606082015260800190565b6020808252602f908201527f416363657373436f6e74726f6c3a2073656e646572206d75737420626520616e60408201526e0818591b5a5b881d1bc819dc985b9d608a1b606082015260800190565b6020808252602b908201527f447574636841756374696f6e3a205061796d656e742063757272656e6379206960408201526a073206e6f742045524332360ac1b606082015260800190565b60208082526032908201527f447574636841756374696f6e3a206d696e696d756d207072696365206d75737460408201527102062652067726561746572207468616e20360741b606082015260800190565b60208082526033908201527f447574636841756374696f6e3a2054686520636f6d6d6974746564204554482060408201527265786365656473207468652062616c616e636560681b606082015260800190565b60208082526027908201527f447574636841756374696f6e3a2061756374696f6e20616c72656164792066696040820152661b985b1a5e995960ca1b606082015260800190565b60208082526041908201527f447574636841756374696f6e3a20656e74657220616e20756e69782074696d6560408201527f7374616d7020696e207365636f6e64732c206e6f74206d696c697365636f6e646060820152607360f81b608082015260a00190565b60208082526027908201527f447574636841756374696f6e3a2061756374696f6e20616c726561647920636f6040820152661b5b5a5d1d195960ca1b606082015260800190565b60208082526052908201527f4e6f2061677265656d656e742070726f76696465642c20706c6561736520726560408201527f766965772074686520736d61727420636f6e7472616374206265666f726520696060820152711b9d195c9858dd1a5b99c81dda5d1a081a5d60721b608082015260a00190565b6020808252602f908201527f447574636841756374696f6e3a2073746172742074696d65206973206265666f60408201526e72652063757272656e742074696d6560881b606082015260800190565b602080825260159082015274111bd8dd5b595b9d081cda1bdd5b1908195e1a5cdd605a1b604082015260600190565b60208082526034908201527f447574636841756374696f6e3a20746f74616c20746f6b656e73206d7573742060408201527362652067726561746572207468616e207a65726f60601b606082015260800190565b6020808252601c908201527f426f72696e674d6174683a2075696e74313238204f766572666c6f7700000000604082015260600190565b60208082526030908201527f416363657373436f6e74726f6c3a2073656e646572206d75737420626520616e60408201526f2061646d696e20746f207265766f6b6560801b606082015260800190565b6020808252600f908201526e139bdd081a5b9a5d1a585b1a5e9959608a1b604082015260600190565b60208082526018908201527f426f72696e674d6174683a20416464204f766572666c6f770000000000000000604082015260600190565b60208082526018908201527f5a65726f206e616d65206973206e6f7420616c6c6f7765640000000000000000604082015260600190565b6020808252600f908201526e125b98dbdc9c9958dd081a5b9c1d5d608a1b604082015260600190565b60208082526023908201527f447574636841756374696f6e3a206f7574736964652061756374696f6e20686f60408201526275727360e81b606082015260800190565b6020808252601b908201527f426f72696e674d6174683a2075696e743634204f766572666c6f770000000000604082015260600190565b60208082526031908201527f447574636841756374696f6e3a207061796d656e742063757272656e6379206960408201527073206e6f7420455448206164647265737360781b606082015260800190565b60208082526025908201527f447574636841756374696f6e3a2073656e646572206d75737420626520616e2060408201526430b236b4b760d91b606082015260800190565b60208082526035908201527f447574636841756374696f6e3a20656e642074696d65206d757374206265206f6040820152746c646572207468616e20737461727420707269636560581b606082015260800190565b6020808252601b908201527f447574636841756374696f6e3a206e6f742066696e616c697a65640000000000604082015260600190565b60208082526023908201527f5472616e7366657248656c7065723a204554485f5452414e534645525f46414960408201526213115160ea1b606082015260800190565b602080825260139082015272496e646578206f7574206f6620626f756e647360681b604082015260600190565b6020808252601a908201527f53686f756c64206e6f74206265206120656d7074792064617461000000000000604082015260600190565b6020808252602a908201527f447574636841756374696f6e3a2061756374696f6e20686173206e6f742066696040820152691b9a5cda1959081e595d60b21b606082015260800190565b6020808252602d908201527f447574636841756374696f6e3a20546f6b656e20646f6573206e6f742068617660408201526c6520313820646563696d616c7360981b606082015260800190565b6020808252601f908201527f5265656e7472616e637947756172643a207265656e7472616e742063616c6c00604082015260600190565b60208082526031908201527f447574636841756374696f6e3a2061756374696f6e2063616e6e6f74206861766040820152701948185b1c9958591e481cdd185c9d1959607a1b606082015260800190565b60208082526018908201527f426f72696e674d6174683a204d756c204f766572666c6f770000000000000000604082015260600190565b6020808252603b908201527f447574636841756374696f6e3a207374617274207072696365206d757374206260408201527f6520686967686572207468616e206d696e696d756d2070726963650000000000606082015260800190565b60208082526027908201527f447574636841756374696f6e3a2061646d696e20697320746865207a65726f206040820152666164647265737360c81b606082015260800190565b6020808252602f908201527f416363657373436f6e74726f6c3a2063616e206f6e6c792072656e6f756e636560408201526e103937b632b9903337b91039b2b63360891b606082015260800190565b602080825260149082015273426f72696e674d6174683a20446976207a65726f60601b604082015260600190565b6001600160801b0393909316835290151560208301521515604082015260600190565b6001600160801b0392831681529116602082015260400190565b918252602082015260400190565b6001600160401b0393841681529190921660208201526001600160801b03909116604082015260600190565b6000808335601e19843603018112614e3f578283fd5b8301803591506001600160401b03821115614e58578283fd5b602001915036819003821315611a5857600080fd5b60009081526020902090565b60005b83811015614e94578181015183820152602001614e7c565b838111156110185750506000910152565b6001600160a01b038116811461275f57600080fd5b801515811461275f57600080fd5b60ff8116811461275f57600080fdfe9d49f397ae9ef1a834b569acb967799a367061e305932181a44f5773da873bfd97667070c54ef182b0f5858b034beac1b6f3089aa2d3188bb1e8929f4fa9b9299f2df0fed2c77648de5860a4cc508cd0818c85b8b8a1ab4ceeef8d981c8956a64920756e6465727374616e6420746861742049276d20696e746572616374696e672077697468206120736d61727420636f6e74726163742e204920756e6465727374616e64207468617420746f6b656e7320636f6d6d697474656420617265207375626a65637420746f2074686520746f6b656e2069737375657220616e64206c6f63616c206c617773207768657265206170706c696361626c652e204920726576696577656420636f6465206f662074686520736d61727420636f6e747261637420616e6420756e6465727374616e642069742066756c6c792e204920616772656520746f206e6f7420686f6c6420646576656c6f70657273206f72206f746865722070656f706c65206173736f6369617465642077697468207468652070726f6a656374206c6961626c6520666f7220616e79206c6f73736573206f72206d6973756e6465727374616e64696e6773a264697066735822122046c321a6c8d37e90d96506efb813f83cd33aad7a1de8c6a45ae0d8650449004064736f6c634300060c0033",
  "devdoc": {
    "kind": "dev",
    "methods": {
      "addAdminRole(address)": {
        "details": "The sender must have the admin role.",
        "params": {
          "_address": "EOA or contract receiving the new role."
        }
      },
      "addMinterRole(address)": {
        "details": "The sender must have the admin role",
        "params": {
          "_address": "EOA or contract receiving the new role"
        }
      },
      "addOperatorRole(address)": {
        "details": "The sender must have the admin role",
        "params": {
          "_address": "EOA or contract receiving the new role"
        }
      },
      "addSmartContractRole(address)": {
        "details": "The sender must have the admin role",
        "params": {
          "_address": "EOA or contract receiving the new role"
        }
      },
      "auctionEnded()": {
        "returns": {
          "_0": "True if auction is successful or time has ended."
        }
      },
      "auctionSuccessful()": {
        "returns": {
          "_0": "True if tokenPrice is bigger or equal clearingPrice."
        }
      },
      "batch(bytes[],bool)": {
        "params": {
          "calls": "An array of inputs for each call.",
          "revertOnFail": "If True then reverts after a failed call and stops doing further calls."
        },
        "returns": {
          "results": "An array with the returned data of each function call, mapped one-to-one to `calls`.",
          "successes": "An array indicating the success of a call, mapped one-to-one to `calls`."
        }
      },
      "calculateCommitment(uint256)": {
        "params": {
          "_commitment": "Commitment user would like to make."
        },
        "returns": {
          "committed": "Amount allowed to commit."
        }
      },
      "cancelAuction()": {
        "details": "Admin can cancel the auction before it starts"
      },
      "clearingPrice()": {
        "returns": {
          "_0": "The bigger from tokenPrice and priceFunction."
        }
      },
      "commitEth(address,bool)": {
        "params": {
          "_beneficiary": "Auction participant ETH address."
        }
      },
      "commitTokens(uint256,bool)": {
        "params": {
          "_amount": "Amount of tokens to commit."
        }
      },
      "commitTokensFrom(address,uint256,bool)": {
        "details": "Users must approve contract prior to committing tokens to auction.",
        "params": {
          "_amount": "Amount of approved ERC20 tokens.",
          "_from": "User ERC20 address."
        }
      },
      "finalize()": {
        "details": "Transfer contract funds to initialized wallet."
      },
      "finalizeTimeExpired()": {
        "returns": {
          "_0": "Returns true if 7 days have passed since the end of the auction"
        }
      },
      "finalized()": {
        "returns": {
          "_0": "Returns true if market has been finalized"
        }
      },
      "getAllDocuments()": {
        "returns": {
          "_0": "string List of all documents names present in the contract."
        }
      },
      "getAuctionInitData(address,address,uint256,uint256,uint256,address,uint256,uint256,address,address,address)": {
        "params": {
          "_admin": "Address that can finalize auction.",
          "_endTime": "Auction end time.",
          "_funder": "The address that funds the token for DutchAuction.",
          "_minimumPrice": "The minimum auction price.",
          "_paymentCurrency": "The currency the DutchAuction accepts for payment. Can be ETH or token address.",
          "_pointList": "Address that will manage auction approvals.",
          "_startPrice": "Starting price of the auction.",
          "_startTime": "Auction start time.",
          "_token": "Address of the token being sold.",
          "_totalTokens": "The total number of tokens to sell in auction.",
          "_wallet": "Address where collected funds will be forwarded to."
        },
        "returns": {
          "_data": "All the data in bytes format."
        }
      },
      "getDocument(string)": {
        "params": {
          "_name": "Name of the document"
        },
        "returns": {
          "_0": "string The data associated with the document.",
          "_1": "uint256 the timestamp at which the document was last modified."
        }
      },
      "getDocumentCount()": {
        "returns": {
          "_0": "uint256 Count of the document names present in the contract."
        }
      },
      "getDocumentName(uint256)": {
        "returns": {
          "_0": "string Name of the document name."
        }
      },
      "getRoleAdmin(bytes32)": {
        "details": "Returns the admin role that controls `role`. See {grantRole} and {revokeRole}. To change a role's admin, use {_setRoleAdmin}."
      },
      "getRoleMember(bytes32,uint256)": {
        "details": "Returns one of the accounts that have `role`. `index` must be a value between 0 and {getRoleMemberCount}, non-inclusive. Role bearers are not sorted in any particular way, and their ordering may change at any point. WARNING: When using {getRoleMember} and {getRoleMemberCount}, make sure you perform all queries on the same block. See the following https://forum.openzeppelin.com/t/iterating-over-elements-on-enumerableset-in-openzeppelin-contracts/2296[forum post] for more information."
      },
      "getRoleMemberCount(bytes32)": {
        "details": "Returns the number of accounts that have `role`. Can be used together with {getRoleMember} to enumerate all bearers of a role."
      },
      "grantRole(bytes32,address)": {
        "details": "Grants `role` to `account`. If `account` had not been already granted `role`, emits a {RoleGranted} event. Requirements: - the caller must have ``role``'s admin role."
      },
      "hasAdminRole(address)": {
        "params": {
          "_address": "EOA or contract being checked."
        },
        "returns": {
          "_0": "bool True if the account has the role or false if it does not."
        }
      },
      "hasMinterRole(address)": {
        "params": {
          "_address": "EOA or contract being checked"
        },
        "returns": {
          "_0": "bool True if the account has the role or false if it does not"
        }
      },
      "hasOperatorRole(address)": {
        "params": {
          "_address": "EOA or contract being checked"
        },
        "returns": {
          "_0": "bool True if the account has the role or false if it does not"
        }
      },
      "hasRole(bytes32,address)": {
        "details": "Returns `true` if `account` has been granted `role`."
      },
      "hasSmartContractRole(address)": {
        "params": {
          "_address": "EOA or contract being checked"
        },
        "returns": {
          "_0": "bool True if the account has the role or false if it does not"
        }
      },
      "init(bytes)": {
        "params": {
          "_data": "Encoded data for initialization."
        }
      },
      "initAccessControls(address)": {
        "params": {
          "_admin": "Admins address."
        }
      },
      "initAuction(address,address,uint256,uint256,uint256,address,uint256,uint256,address,address,address)": {
        "details": "Init function.",
        "params": {
          "_admin": "Address that can finalize auction.",
          "_endTime": "Auction end time.",
          "_funder": "The address that funds the token for DutchAuction.",
          "_minimumPrice": "The minimum auction price.",
          "_paymentCurrency": "The currency the DutchAuction accepts for payment. Can be ETH or token address.",
          "_pointList": "Address that will manage auction approvals.",
          "_startPrice": "Starting price of the auction.",
          "_startTime": "Auction start time.",
          "_token": "Address of the token being sold.",
          "_totalTokens": "The total number of tokens to sell in auction.",
          "_wallet": "Address where collected funds will be forwarded to."
        }
      },
      "isOpen()": {
        "returns": {
          "_0": "True if current time is greater than startTime and less than endTime."
        }
      },
      "marketParticipationAgreement()": {
        "details": "Attribution to the awesome delta.financial contracts"
      },
      "priceDrop()": {
        "returns": {
          "_0": "Value calculated from auction start and end price difference divided the auction duration."
        }
      },
      "priceFunction()": {
        "returns": {
          "_0": "Fixed start price or minimum price if outside of auction time, otherwise calculated current price."
        }
      },
      "removeAdminRole(address)": {
        "details": "The sender must have the admin role.",
        "params": {
          "_address": "EOA or contract affected."
        }
      },
      "removeMinterRole(address)": {
        "details": "The sender must have the admin role",
        "params": {
          "_address": "EOA or contract affected"
        }
      },
      "removeOperatorRole(address)": {
        "details": "The sender must have the admin role",
        "params": {
          "_address": "EOA or contract affected"
        }
      },
      "removeSmartContractRole(address)": {
        "details": "The sender must have the admin role",
        "params": {
          "_address": "EOA or contract affected"
        }
      },
      "renounceRole(bytes32,address)": {
        "details": "Revokes `role` from the calling account. Roles are often managed via {grantRole} and {revokeRole}: this function's purpose is to provide a mechanism for accounts to lose their privileges if they are compromised (such as when a trusted device is misplaced). If the calling account had been granted `role`, emits a {RoleRevoked} event. Requirements: - the caller must be `account`."
      },
      "revokeRole(bytes32,address)": {
        "details": "Revokes `role` from `account`. If `account` had been granted `role`, emits a {RoleRevoked} event. Requirements: - the caller must have ``role``'s admin role."
      },
      "setAuctionPrice(uint256,uint256)": {
        "params": {
          "_minimumPrice": "Auction minimum price.",
          "_startPrice": "Auction start price."
        }
      },
      "setAuctionTime(uint256,uint256)": {
        "params": {
          "_endTime": "Auction end time.",
          "_startTime": "Auction start time."
        }
      },
      "setAuctionWallet(address)": {
        "params": {
          "_wallet": "Auction wallet is where funds will be sent."
        }
      },
      "tokenPrice()": {
        "returns": {
          "_0": "Average token price."
        }
      },
      "tokensClaimable(address)": {
        "params": {
          "_user": "Auction participant address."
        },
        "returns": {
          "claimerCommitment": "User commitments reduced by already claimed tokens."
        }
      },
      "totalTokensCommitted()": {
        "returns": {
          "_0": "Number of tokens committed."
        }
      },
      "withdrawTokens(address)": {
        "details": "Withdraw tokens only after auction ends.",
        "params": {
          "beneficiary": "Whose tokens will be withdrawn."
        }
      }
    },
    "stateVariables": {
      "ETH_ADDRESS": {
        "details": "The placeholder ETH address."
      },
      "marketTemplate": {
        "details": "For different marketplace types, this must be incremented."
      }
    },
    "version": 1
  },
  "userdoc": {
    "events": {
      "AddedCommitment(address,uint256)": {
        "notice": "Event for adding a commitment."
      },
      "AdminRoleGranted(address,address)": {
        "notice": "Events for adding and removing various roles."
      },
      "AuctionCancelled()": {
        "notice": "Event for cancellation of the auction."
      },
      "AuctionFinalized()": {
        "notice": "Event for finalization of the auction."
      },
      "AuctionPriceUpdated(uint256,uint256)": {
        "notice": "Event for updating auction prices. Needs to be before auction starts."
      },
      "AuctionTimeUpdated(uint256,uint256)": {
        "notice": "Event for updating auction times.  Needs to be before auction starts."
      },
      "AuctionWalletUpdated(address)": {
        "notice": "Event for updating auction wallet. Needs to be before auction starts."
      },
      "MinterRoleGranted(address,address)": {
        "notice": "Events for adding and removing various roles"
      }
    },
    "kind": "user",
    "methods": {
      "MINTER_ROLE()": {
        "notice": "Role definitions"
      },
      "addAdminRole(address)": {
        "notice": "Grants the admin role to an address."
      },
      "addMinterRole(address)": {
        "notice": "Grants the minter role to an address"
      },
      "addOperatorRole(address)": {
        "notice": "Grants the operator role to an address"
      },
      "addSmartContractRole(address)": {
        "notice": "Grants the smart contract role to an address"
      },
      "auctionEnded()": {
        "notice": "Checks if the auction has ended."
      },
      "auctionSuccessful()": {
        "notice": "Successful if tokens sold equals totalTokens."
      },
      "auctionToken()": {
        "notice": "The token being sold."
      },
      "batch(bytes[],bool)": {
        "notice": "Allows batched call to self (this contract)."
      },
      "calculateCommitment(uint256)": {
        "notice": "Calculates the amount able to be committed during an auction."
      },
      "cancelAuction()": {
        "notice": "Cancel Auction"
      },
      "claimed(address)": {
        "notice": "Amount of tokens to claim per address."
      },
      "clearingPrice()": {
        "notice": "The current clearing price of the Dutch auction."
      },
      "commitEth(address,bool)": {
        "notice": "Checks the amount of ETH to commit and adds the commitment. Refunds the buyer if commit is too high."
      },
      "commitTokens(uint256,bool)": {
        "notice": "Buy Tokens by commiting approved ERC20 tokens to this contract address."
      },
      "commitTokensFrom(address,uint256,bool)": {
        "notice": "Checks how much is user able to commit and processes that commitment."
      },
      "commitments(address)": {
        "notice": "The committed amount of accounts."
      },
      "finalize()": {
        "notice": "Auction finishes successfully above the reserve."
      },
      "getAllDocuments()": {
        "notice": "Used to retrieve a full list of documents attached to the smart contract."
      },
      "getAuctionInitData(address,address,uint256,uint256,uint256,address,uint256,uint256,address,address,address)": {
        "notice": "Collects data to initialize the auction and encodes them."
      },
      "getDocument(string)": {
        "notice": "Used to return the details of a document with a known name (`string`)."
      },
      "getDocumentCount()": {
        "notice": "Used to retrieve the total documents in the smart contract."
      },
      "getDocumentName(uint256)": {
        "notice": "Used to retrieve the document name from index in the smart contract."
      },
      "hasAdminRole(address)": {
        "notice": "Used to check whether an address has the admin role."
      },
      "hasMinterRole(address)": {
        "notice": "Used to check whether an address has the minter role"
      },
      "hasOperatorRole(address)": {
        "notice": "Used to check whether an address has the operator role"
      },
      "hasSmartContractRole(address)": {
        "notice": "Used to check whether an address has the smart contract role"
      },
      "init(bytes)": {
        "notice": "Decodes and hands auction data to the initAuction function."
      },
      "initAccessControls(address)": {
        "notice": "Initializes access controls."
      },
      "initAuction(address,address,uint256,uint256,uint256,address,uint256,uint256,address,address,address)": {
        "notice": "Initializes main contract variables and transfers funds for the auction."
      },
      "isOpen()": {
        "notice": "Checks if the auction is open."
      },
      "marketTemplate()": {
        "notice": "MISOMarket template id for the factory contract."
      },
      "paymentCurrency()": {
        "notice": "The currency the auction accepts for payment. Can be ETH or token address."
      },
      "permitToken(address,address,address,uint256,uint256,uint8,bytes32,bytes32)": {
        "notice": "Call wrapper that performs `ERC20.permit` on `token`. Lookup `IERC20.permit`."
      },
      "pointList()": {
        "notice": "Address that manages auction approvals."
      },
      "priceDrop()": {
        "notice": "Calculates the pricedrop factor."
      },
      "priceFunction()": {
        "notice": "Returns auction price in any time."
      },
      "removeAdminRole(address)": {
        "notice": "Removes the admin role from an address."
      },
      "removeMinterRole(address)": {
        "notice": "Removes the minter role from an address"
      },
      "removeOperatorRole(address)": {
        "notice": "Removes the operator role from an address"
      },
      "removeSmartContractRole(address)": {
        "notice": "Removes the smart contract role from an address"
      },
      "setAuctionPrice(uint256,uint256)": {
        "notice": "Admin can set start and min price through this function."
      },
      "setAuctionTime(uint256,uint256)": {
        "notice": "Admin can set start and end time through this function."
      },
      "setAuctionWallet(address)": {
        "notice": "Admin can set the auction wallet through this function."
      },
      "tokenPrice()": {
        "notice": "Calculates the average price of each token from all commitments."
      },
      "tokensClaimable(address)": {
        "notice": "How many tokens the user is able to claim."
      },
      "totalTokensCommitted()": {
        "notice": "Calculates total amount of tokens committed at current auction price."
      },
      "wallet()": {
        "notice": "Where the auction funds will get paid."
      },
      "withdrawTokens()": {
        "notice": "Withdraws bought tokens, or returns commitment if the sale is unsuccessful."
      },
      "withdrawTokens(address)": {
        "notice": "Withdraws bought tokens, or returns commitment if the sale is unsuccessful."
      }
    },
    "notice": "Attribution to delta.financialAttribution to dutchswap.com",
    "version": 1
  },
  "storageLayout": {
    "storage": [
      {
        "astId": 16920,
        "contract": "contracts/Auctions/DutchAuction.sol:DutchAuction",
        "label": "_roles",
        "offset": 0,
        "slot": "0",
        "type": "t_mapping(t_bytes32,t_struct(RoleData)16916_storage)"
      },
      {
        "astId": 881,
        "contract": "contracts/Auctions/DutchAuction.sol:DutchAuction",
        "label": "initAccess",
        "offset": 0,
        "slot": "1",
        "type": "t_bool"
      },
      {
        "astId": 25157,
        "contract": "contracts/Auctions/DutchAuction.sol:DutchAuction",
        "label": "_documents",
        "offset": 0,
        "slot": "2",
        "type": "t_mapping(t_string_memory_ptr,t_struct(Document)25153_storage)"
      },
      {
        "astId": 25161,
        "contract": "contracts/Auctions/DutchAuction.sol:DutchAuction",
        "label": "_docIndexes",
        "offset": 0,
        "slot": "3",
        "type": "t_mapping(t_string_memory_ptr,t_uint32)"
      },
      {
        "astId": 25164,
        "contract": "contracts/Auctions/DutchAuction.sol:DutchAuction",
        "label": "_docNames",
        "offset": 0,
        "slot": "4",
        "type": "t_array(t_string_storage)dyn_storage"
      },
      {
        "astId": 18929,
        "contract": "contracts/Auctions/DutchAuction.sol:DutchAuction",
        "label": "_status",
        "offset": 0,
        "slot": "5",
        "type": "t_uint256"
      },
      {
        "astId": 4233,
        "contract": "contracts/Auctions/DutchAuction.sol:DutchAuction",
        "label": "marketInfo",
        "offset": 0,
        "slot": "6",
        "type": "t_struct(MarketInfo)4231_storage"
      },
      {
        "astId": 4240,
        "contract": "contracts/Auctions/DutchAuction.sol:DutchAuction",
        "label": "marketPrice",
        "offset": 0,
        "slot": "7",
        "type": "t_struct(MarketPrice)4238_storage"
      },
      {
        "astId": 4249,
        "contract": "contracts/Auctions/DutchAuction.sol:DutchAuction",
        "label": "marketStatus",
        "offset": 0,
        "slot": "8",
        "type": "t_struct(MarketStatus)4247_storage"
      },
      {
        "astId": 4252,
        "contract": "contracts/Auctions/DutchAuction.sol:DutchAuction",
        "label": "auctionToken",
        "offset": 0,
        "slot": "9",
        "type": "t_address"
      },
      {
        "astId": 4255,
        "contract": "contracts/Auctions/DutchAuction.sol:DutchAuction",
        "label": "paymentCurrency",
        "offset": 0,
        "slot": "10",
        "type": "t_address"
      },
      {
        "astId": 4258,
        "contract": "contracts/Auctions/DutchAuction.sol:DutchAuction",
        "label": "wallet",
        "offset": 0,
        "slot": "11",
        "type": "t_address_payable"
      },
      {
        "astId": 4261,
        "contract": "contracts/Auctions/DutchAuction.sol:DutchAuction",
        "label": "pointList",
        "offset": 0,
        "slot": "12",
        "type": "t_address"
      },
      {
        "astId": 4266,
        "contract": "contracts/Auctions/DutchAuction.sol:DutchAuction",
        "label": "commitments",
        "offset": 0,
        "slot": "13",
        "type": "t_mapping(t_address,t_uint256)"
      },
      {
        "astId": 4271,
        "contract": "contracts/Auctions/DutchAuction.sol:DutchAuction",
        "label": "claimed",
        "offset": 0,
        "slot": "14",
        "type": "t_mapping(t_address,t_uint256)"
      }
    ],
    "types": {
      "t_address": {
        "encoding": "inplace",
        "label": "address",
        "numberOfBytes": "20"
      },
      "t_address_payable": {
        "encoding": "inplace",
        "label": "address payable",
        "numberOfBytes": "20"
      },
      "t_array(t_bytes32)dyn_storage": {
        "base": "t_bytes32",
        "encoding": "dynamic_array",
        "label": "bytes32[]",
        "numberOfBytes": "32"
      },
      "t_array(t_string_storage)dyn_storage": {
        "base": "t_string_storage",
        "encoding": "dynamic_array",
        "label": "string[]",
        "numberOfBytes": "32"
      },
      "t_bool": {
        "encoding": "inplace",
        "label": "bool",
        "numberOfBytes": "1"
      },
      "t_bytes32": {
        "encoding": "inplace",
        "label": "bytes32",
        "numberOfBytes": "32"
      },
      "t_mapping(t_address,t_uint256)": {
        "encoding": "mapping",
        "key": "t_address",
        "label": "mapping(address => uint256)",
        "numberOfBytes": "32",
        "value": "t_uint256"
      },
      "t_mapping(t_bytes32,t_struct(RoleData)16916_storage)": {
        "encoding": "mapping",
        "key": "t_bytes32",
        "label": "mapping(bytes32 => struct AccessControl.RoleData)",
        "numberOfBytes": "32",
        "value": "t_struct(RoleData)16916_storage"
      },
      "t_mapping(t_bytes32,t_uint256)": {
        "encoding": "mapping",
        "key": "t_bytes32",
        "label": "mapping(bytes32 => uint256)",
        "numberOfBytes": "32",
        "value": "t_uint256"
      },
      "t_mapping(t_string_memory_ptr,t_struct(Document)25153_storage)": {
        "encoding": "mapping",
        "key": "t_string_memory_ptr",
        "label": "mapping(string => struct Documents.Document)",
        "numberOfBytes": "32",
        "value": "t_struct(Document)25153_storage"
      },
      "t_mapping(t_string_memory_ptr,t_uint32)": {
        "encoding": "mapping",
        "key": "t_string_memory_ptr",
        "label": "mapping(string => uint32)",
        "numberOfBytes": "32",
        "value": "t_uint32"
      },
      "t_string_memory_ptr": {
        "encoding": "bytes",
        "label": "string",
        "numberOfBytes": "32"
      },
      "t_string_storage": {
        "encoding": "bytes",
        "label": "string",
        "numberOfBytes": "32"
      },
      "t_struct(AddressSet)18610_storage": {
        "encoding": "inplace",
        "label": "struct EnumerableSet.AddressSet",
        "members": [
          {
            "astId": 18609,
            "contract": "contracts/Auctions/DutchAuction.sol:DutchAuction",
            "label": "_inner",
            "offset": 0,
            "slot": "0",
            "type": "t_struct(Set)18345_storage"
          }
        ],
        "numberOfBytes": "64"
      },
      "t_struct(Document)25153_storage": {
        "encoding": "inplace",
        "label": "struct Documents.Document",
        "members": [
          {
            "astId": 25148,
            "contract": "contracts/Auctions/DutchAuction.sol:DutchAuction",
            "label": "docIndex",
            "offset": 0,
            "slot": "0",
            "type": "t_uint32"
          },
          {
            "astId": 25150,
            "contract": "contracts/Auctions/DutchAuction.sol:DutchAuction",
            "label": "lastModified",
            "offset": 4,
            "slot": "0",
            "type": "t_uint64"
          },
          {
            "astId": 25152,
            "contract": "contracts/Auctions/DutchAuction.sol:DutchAuction",
            "label": "data",
            "offset": 0,
            "slot": "1",
            "type": "t_string_storage"
          }
        ],
        "numberOfBytes": "64"
      },
      "t_struct(MarketInfo)4231_storage": {
        "encoding": "inplace",
        "label": "struct DutchAuction.MarketInfo",
        "members": [
          {
            "astId": 4226,
            "contract": "contracts/Auctions/DutchAuction.sol:DutchAuction",
            "label": "startTime",
            "offset": 0,
            "slot": "0",
            "type": "t_uint64"
          },
          {
            "astId": 4228,
            "contract": "contracts/Auctions/DutchAuction.sol:DutchAuction",
            "label": "endTime",
            "offset": 8,
            "slot": "0",
            "type": "t_uint64"
          },
          {
            "astId": 4230,
            "contract": "contracts/Auctions/DutchAuction.sol:DutchAuction",
            "label": "totalTokens",
            "offset": 16,
            "slot": "0",
            "type": "t_uint128"
          }
        ],
        "numberOfBytes": "32"
      },
      "t_struct(MarketPrice)4238_storage": {
        "encoding": "inplace",
        "label": "struct DutchAuction.MarketPrice",
        "members": [
          {
            "astId": 4235,
            "contract": "contracts/Auctions/DutchAuction.sol:DutchAuction",
            "label": "startPrice",
            "offset": 0,
            "slot": "0",
            "type": "t_uint128"
          },
          {
            "astId": 4237,
            "contract": "contracts/Auctions/DutchAuction.sol:DutchAuction",
            "label": "minimumPrice",
            "offset": 16,
            "slot": "0",
            "type": "t_uint128"
          }
        ],
        "numberOfBytes": "32"
      },
      "t_struct(MarketStatus)4247_storage": {
        "encoding": "inplace",
        "label": "struct DutchAuction.MarketStatus",
        "members": [
          {
            "astId": 4242,
            "contract": "contracts/Auctions/DutchAuction.sol:DutchAuction",
            "label": "commitmentsTotal",
            "offset": 0,
            "slot": "0",
            "type": "t_uint128"
          },
          {
            "astId": 4244,
            "contract": "contracts/Auctions/DutchAuction.sol:DutchAuction",
            "label": "finalized",
            "offset": 16,
            "slot": "0",
            "type": "t_bool"
          },
          {
            "astId": 4246,
            "contract": "contracts/Auctions/DutchAuction.sol:DutchAuction",
            "label": "usePointList",
            "offset": 17,
            "slot": "0",
            "type": "t_bool"
          }
        ],
        "numberOfBytes": "32"
      },
      "t_struct(RoleData)16916_storage": {
        "encoding": "inplace",
        "label": "struct AccessControl.RoleData",
        "members": [
          {
            "astId": 16913,
            "contract": "contracts/Auctions/DutchAuction.sol:DutchAuction",
            "label": "members",
            "offset": 0,
            "slot": "0",
            "type": "t_struct(AddressSet)18610_storage"
          },
          {
            "astId": 16915,
            "contract": "contracts/Auctions/DutchAuction.sol:DutchAuction",
            "label": "adminRole",
            "offset": 0,
            "slot": "2",
            "type": "t_bytes32"
          }
        ],
        "numberOfBytes": "96"
      },
      "t_struct(Set)18345_storage": {
        "encoding": "inplace",
        "label": "struct EnumerableSet.Set",
        "members": [
          {
            "astId": 18340,
            "contract": "contracts/Auctions/DutchAuction.sol:DutchAuction",
            "label": "_values",
            "offset": 0,
            "slot": "0",
            "type": "t_array(t_bytes32)dyn_storage"
          },
          {
            "astId": 18344,
            "contract": "contracts/Auctions/DutchAuction.sol:DutchAuction",
            "label": "_indexes",
            "offset": 0,
            "slot": "1",
            "type": "t_mapping(t_bytes32,t_uint256)"
          }
        ],
        "numberOfBytes": "64"
      },
      "t_uint128": {
        "encoding": "inplace",
        "label": "uint128",
        "numberOfBytes": "16"
      },
      "t_uint256": {
        "encoding": "inplace",
        "label": "uint256",
        "numberOfBytes": "32"
      },
      "t_uint32": {
        "encoding": "inplace",
        "label": "uint32",
        "numberOfBytes": "4"
      },
      "t_uint64": {
        "encoding": "inplace",
        "label": "uint64",
        "numberOfBytes": "8"
      }
    }
  }
}