{
  "address": "0xD3b6D5aad58d7f427D54F3F6b903E374a503cE34",
  "abi": [
    {
      "anonymous": false,
      "inputs": [
        {
          "indexed": false,
          "internalType": "address",
          "name": "addr",
          "type": "address"
        },
        {
          "indexed": false,
          "internalType": "uint256",
          "name": "commitment",
          "type": "uint256"
        }
      ],
      "name": "AddedCommitment",
      "type": "event"
    },
    {
      "anonymous": false,
      "inputs": [],
      "name": "AuctionCancelled",
      "type": "event"
    },
    {
      "anonymous": false,
      "inputs": [
        {
          "indexed": false,
          "internalType": "address",
          "name": "funder",
          "type": "address"
        },
        {
          "indexed": false,
          "internalType": "address",
          "name": "token",
          "type": "address"
        },
        {
          "indexed": false,
          "internalType": "address",
          "name": "paymentCurrency",
          "type": "address"
        },
        {
          "indexed": false,
          "internalType": "uint256",
          "name": "totalTokens",
          "type": "uint256"
        },
        {
          "indexed": false,
          "internalType": "address",
          "name": "admin",
          "type": "address"
        },
        {
          "indexed": false,
          "internalType": "address",
          "name": "wallet",
          "type": "address"
        }
      ],
      "name": "AuctionDeployed",
      "type": "event"
    },
    {
      "anonymous": false,
      "inputs": [],
      "name": "AuctionFinalized",
      "type": "event"
    },
    {
      "anonymous": false,
      "inputs": [
        {
          "indexed": false,
          "internalType": "address",
          "name": "pointList",
          "type": "address"
        },
        {
          "indexed": false,
          "internalType": "bool",
          "name": "enabled",
          "type": "bool"
        }
      ],
      "name": "AuctionPointListUpdated",
      "type": "event"
    },
    {
      "anonymous": false,
      "inputs": [
        {
          "indexed": false,
          "internalType": "uint256",
          "name": "rate",
          "type": "uint256"
        },
        {
          "indexed": false,
          "internalType": "uint256",
          "name": "goal",
          "type": "uint256"
        }
      ],
      "name": "AuctionPriceUpdated",
      "type": "event"
    },
    {
      "anonymous": false,
      "inputs": [
        {
          "indexed": false,
          "internalType": "uint256",
          "name": "startTime",
          "type": "uint256"
        },
        {
          "indexed": false,
          "internalType": "uint256",
          "name": "endTime",
          "type": "uint256"
        }
      ],
      "name": "AuctionTimeUpdated",
      "type": "event"
    },
    {
      "anonymous": false,
      "inputs": [
        {
          "indexed": false,
          "internalType": "address",
          "name": "wallet",
          "type": "address"
        }
      ],
      "name": "AuctionWalletUpdated",
      "type": "event"
    },
    {
      "anonymous": false,
      "inputs": [
        {
          "indexed": true,
          "internalType": "string",
          "name": "_name",
          "type": "string"
        },
        {
          "indexed": false,
          "internalType": "string",
          "name": "_data",
          "type": "string"
        }
      ],
      "name": "DocumentRemoved",
      "type": "event"
    },
    {
      "anonymous": false,
      "inputs": [
        {
          "indexed": true,
          "internalType": "string",
          "name": "_name",
          "type": "string"
        },
        {
          "indexed": false,
          "internalType": "string",
          "name": "_data",
          "type": "string"
        }
      ],
      "name": "DocumentUpdated",
      "type": "event"
    },
    {
      "anonymous": false,
      "inputs": [
        {
          "indexed": true,
          "internalType": "bytes32",
          "name": "role",
          "type": "bytes32"
        },
        {
          "indexed": true,
          "internalType": "bytes32",
          "name": "previousAdminRole",
          "type": "bytes32"
        },
        {
          "indexed": true,
          "internalType": "bytes32",
          "name": "newAdminRole",
          "type": "bytes32"
        }
      ],
      "name": "RoleAdminChanged",
      "type": "event"
    },
    {
      "anonymous": false,
      "inputs": [
        {
          "indexed": true,
          "internalType": "bytes32",
          "name": "role",
          "type": "bytes32"
        },
        {
          "indexed": true,
          "internalType": "address",
          "name": "account",
          "type": "address"
        },
        {
          "indexed": true,
          "internalType": "address",
          "name": "sender",
          "type": "address"
        }
      ],
      "name": "RoleGranted",
      "type": "event"
    },
    {
      "anonymous": false,
      "inputs": [
        {
          "indexed": true,
          "internalType": "bytes32",
          "name": "role",
          "type": "bytes32"
        },
        {
          "indexed": true,
          "internalType": "address",
          "name": "account",
          "type": "address"
        },
        {
          "indexed": true,
          "internalType": "address",
          "name": "sender",
          "type": "address"
        }
      ],
      "name": "RoleRevoked",
      "type": "event"
    },
    {
      "anonymous": false,
      "inputs": [
        {
          "indexed": false,
          "internalType": "address",
          "name": "token",
          "type": "address"
        },
        {
          "indexed": false,
          "internalType": "address",
          "name": "to",
          "type": "address"
        },
        {
          "indexed": false,
          "internalType": "uint256",
          "name": "amount",
          "type": "uint256"
        }
      ],
      "name": "TokensWithdrawn",
      "type": "event"
    },
    {
      "inputs": [],
      "name": "DEFAULT_ADMIN_ROLE",
      "outputs": [
        {
          "internalType": "bytes32",
          "name": "",
          "type": "bytes32"
        }
      ],
      "stateMutability": "view",
      "type": "function"
    },
    {
      "inputs": [],
      "name": "MINTER_ROLE",
      "outputs": [
        {
          "internalType": "bytes32",
          "name": "",
          "type": "bytes32"
        }
      ],
      "stateMutability": "view",
      "type": "function"
    },
    {
      "inputs": [],
      "name": "OPERATOR_ROLE",
      "outputs": [
        {
          "internalType": "bytes32",
          "name": "",
          "type": "bytes32"
        }
      ],
      "stateMutability": "view",
      "type": "function"
    },
    {
      "inputs": [],
      "name": "SMART_CONTRACT_ROLE",
      "outputs": [
        {
          "internalType": "bytes32",
          "name": "",
          "type": "bytes32"
        }
      ],
      "stateMutability": "view",
      "type": "function"
    },
    {
      "inputs": [
        {
          "internalType": "address",
          "name": "_address",
          "type": "address"
        }
      ],
      "name": "addAdminRole",
      "outputs": [],
      "stateMutability": "nonpayable",
      "type": "function"
    },
    {
      "inputs": [
        {
          "internalType": "address",
          "name": "_address",
          "type": "address"
        }
      ],
      "name": "addMinterRole",
      "outputs": [],
      "stateMutability": "nonpayable",
      "type": "function"
    },
    {
      "inputs": [
        {
          "internalType": "address",
          "name": "_address",
          "type": "address"
        }
      ],
      "name": "addOperatorRole",
      "outputs": [],
      "stateMutability": "nonpayable",
      "type": "function"
    },
    {
      "inputs": [
        {
          "internalType": "address",
          "name": "_address",
          "type": "address"
        }
      ],
      "name": "addSmartContractRole",
      "outputs": [],
      "stateMutability": "nonpayable",
      "type": "function"
    },
    {
      "inputs": [],
      "name": "auctionEnded",
      "outputs": [
        {
          "internalType": "bool",
          "name": "",
          "type": "bool"
        }
      ],
      "stateMutability": "view",
      "type": "function"
    },
    {
      "inputs": [],
      "name": "auctionSuccessful",
      "outputs": [
        {
          "internalType": "bool",
          "name": "",
          "type": "bool"
        }
      ],
      "stateMutability": "view",
      "type": "function"
    },
    {
      "inputs": [],
      "name": "auctionToken",
      "outputs": [
        {
          "internalType": "address",
          "name": "",
          "type": "address"
        }
      ],
      "stateMutability": "view",
      "type": "function"
    },
    {
      "inputs": [
        {
          "internalType": "bytes[]",
          "name": "calls",
          "type": "bytes[]"
        },
        {
          "internalType": "bool",
          "name": "revertOnFail",
          "type": "bool"
        }
      ],
      "name": "batch",
      "outputs": [
        {
          "internalType": "bool[]",
          "name": "successes",
          "type": "bool[]"
        },
        {
          "internalType": "bytes[]",
          "name": "results",
          "type": "bytes[]"
        }
      ],
      "stateMutability": "payable",
      "type": "function"
    },
    {
      "inputs": [
        {
          "internalType": "uint256",
          "name": "_commitment",
          "type": "uint256"
        }
      ],
      "name": "calculateCommitment",
      "outputs": [
        {
          "internalType": "uint256",
          "name": "committed",
          "type": "uint256"
        }
      ],
      "stateMutability": "view",
      "type": "function"
    },
    {
      "inputs": [],
      "name": "cancelAuction",
      "outputs": [],
      "stateMutability": "nonpayable",
      "type": "function"
    },
    {
      "inputs": [
        {
          "internalType": "address",
          "name": "",
          "type": "address"
        }
      ],
      "name": "claimed",
      "outputs": [
        {
          "internalType": "uint256",
          "name": "",
          "type": "uint256"
        }
      ],
      "stateMutability": "view",
      "type": "function"
    },
    {
      "inputs": [
        {
          "internalType": "address payable",
          "name": "_beneficiary",
          "type": "address"
        },
        {
          "internalType": "bool",
          "name": "readAndAgreedToMarketParticipationAgreement",
          "type": "bool"
        }
      ],
      "name": "commitEth",
      "outputs": [],
      "stateMutability": "payable",
      "type": "function"
    },
    {
      "inputs": [
        {
          "internalType": "uint256",
          "name": "_amount",
          "type": "uint256"
        },
        {
          "internalType": "bool",
          "name": "readAndAgreedToMarketParticipationAgreement",
          "type": "bool"
        }
      ],
      "name": "commitTokens",
      "outputs": [],
      "stateMutability": "nonpayable",
      "type": "function"
    },
    {
      "inputs": [
        {
          "internalType": "address",
          "name": "_from",
          "type": "address"
        },
        {
          "internalType": "uint256",
          "name": "_amount",
          "type": "uint256"
        },
        {
          "internalType": "bool",
          "name": "readAndAgreedToMarketParticipationAgreement",
          "type": "bool"
        }
      ],
      "name": "commitTokensFrom",
      "outputs": [],
      "stateMutability": "nonpayable",
      "type": "function"
    },
    {
      "inputs": [
        {
          "internalType": "address",
          "name": "",
          "type": "address"
        }
      ],
      "name": "commitments",
      "outputs": [
        {
          "internalType": "uint256",
          "name": "",
          "type": "uint256"
        }
      ],
      "stateMutability": "view",
      "type": "function"
    },
    {
      "inputs": [
        {
          "internalType": "bool",
          "name": "_status",
          "type": "bool"
        }
      ],
      "name": "enableList",
      "outputs": [],
      "stateMutability": "nonpayable",
      "type": "function"
    },
    {
      "inputs": [],
      "name": "finalize",
      "outputs": [],
      "stateMutability": "nonpayable",
      "type": "function"
    },
    {
      "inputs": [],
      "name": "finalizeTimeExpired",
      "outputs": [
        {
          "internalType": "bool",
          "name": "",
          "type": "bool"
        }
      ],
      "stateMutability": "view",
      "type": "function"
    },
    {
      "inputs": [],
      "name": "finalized",
      "outputs": [
        {
          "internalType": "bool",
          "name": "",
          "type": "bool"
        }
      ],
      "stateMutability": "view",
      "type": "function"
    },
    {
      "inputs": [],
      "name": "getAllDocuments",
      "outputs": [
        {
          "internalType": "string[]",
          "name": "",
          "type": "string[]"
        }
      ],
      "stateMutability": "view",
      "type": "function"
    },
    {
      "inputs": [],
      "name": "getBaseInformation",
      "outputs": [
        {
          "internalType": "address",
          "name": "",
          "type": "address"
        },
        {
          "internalType": "uint64",
          "name": "",
          "type": "uint64"
        },
        {
          "internalType": "uint64",
          "name": "",
          "type": "uint64"
        },
        {
          "internalType": "bool",
          "name": "",
          "type": "bool"
        }
      ],
      "stateMutability": "view",
      "type": "function"
    },
    {
      "inputs": [
        {
          "internalType": "address",
          "name": "_funder",
          "type": "address"
        },
        {
          "internalType": "address",
          "name": "_token",
          "type": "address"
        },
        {
          "internalType": "address",
          "name": "_paymentCurrency",
          "type": "address"
        },
        {
          "internalType": "uint256",
          "name": "_totalTokens",
          "type": "uint256"
        },
        {
          "internalType": "uint256",
          "name": "_startTime",
          "type": "uint256"
        },
        {
          "internalType": "uint256",
          "name": "_endTime",
          "type": "uint256"
        },
        {
          "internalType": "uint256",
          "name": "_rate",
          "type": "uint256"
        },
        {
          "internalType": "uint256",
          "name": "_goal",
          "type": "uint256"
        },
        {
          "internalType": "address",
          "name": "_admin",
          "type": "address"
        },
        {
          "internalType": "address",
          "name": "_pointList",
          "type": "address"
        },
        {
          "internalType": "address payable",
          "name": "_wallet",
          "type": "address"
        }
      ],
      "name": "getCrowdsaleInitData",
      "outputs": [
        {
          "internalType": "bytes",
          "name": "_data",
          "type": "bytes"
        }
      ],
      "stateMutability": "pure",
      "type": "function"
    },
    {
      "inputs": [
        {
          "internalType": "string",
          "name": "_name",
          "type": "string"
        }
      ],
      "name": "getDocument",
      "outputs": [
        {
          "internalType": "string",
          "name": "",
          "type": "string"
        },
        {
          "internalType": "uint256",
          "name": "",
          "type": "uint256"
        }
      ],
      "stateMutability": "view",
      "type": "function"
    },
    {
      "inputs": [],
      "name": "getDocumentCount",
      "outputs": [
        {
          "internalType": "uint256",
          "name": "",
          "type": "uint256"
        }
      ],
      "stateMutability": "view",
      "type": "function"
    },
    {
      "inputs": [
        {
          "internalType": "uint256",
          "name": "_index",
          "type": "uint256"
        }
      ],
      "name": "getDocumentName",
      "outputs": [
        {
          "internalType": "string",
          "name": "",
          "type": "string"
        }
      ],
      "stateMutability": "view",
      "type": "function"
    },
    {
      "inputs": [
        {
          "internalType": "bytes32",
          "name": "role",
          "type": "bytes32"
        }
      ],
      "name": "getRoleAdmin",
      "outputs": [
        {
          "internalType": "bytes32",
          "name": "",
          "type": "bytes32"
        }
      ],
      "stateMutability": "view",
      "type": "function"
    },
    {
      "inputs": [
        {
          "internalType": "bytes32",
          "name": "role",
          "type": "bytes32"
        },
        {
          "internalType": "uint256",
          "name": "index",
          "type": "uint256"
        }
      ],
      "name": "getRoleMember",
      "outputs": [
        {
          "internalType": "address",
          "name": "",
          "type": "address"
        }
      ],
      "stateMutability": "view",
      "type": "function"
    },
    {
      "inputs": [
        {
          "internalType": "bytes32",
          "name": "role",
          "type": "bytes32"
        }
      ],
      "name": "getRoleMemberCount",
      "outputs": [
        {
          "internalType": "uint256",
          "name": "",
          "type": "uint256"
        }
      ],
      "stateMutability": "view",
      "type": "function"
    },
    {
      "inputs": [
        {
          "internalType": "uint256",
          "name": "_amount",
          "type": "uint256"
        }
      ],
      "name": "getTokenAmount",
      "outputs": [
        {
          "internalType": "uint256",
          "name": "",
          "type": "uint256"
        }
      ],
      "stateMutability": "view",
      "type": "function"
    },
    {
      "inputs": [],
      "name": "getTotalTokens",
      "outputs": [
        {
          "internalType": "uint256",
          "name": "",
          "type": "uint256"
        }
      ],
      "stateMutability": "view",
      "type": "function"
    },
    {
      "inputs": [
        {
          "internalType": "bytes32",
          "name": "role",
          "type": "bytes32"
        },
        {
          "internalType": "address",
          "name": "account",
          "type": "address"
        }
      ],
      "name": "grantRole",
      "outputs": [],
      "stateMutability": "nonpayable",
      "type": "function"
    },
    {
      "inputs": [
        {
          "internalType": "address",
          "name": "_address",
          "type": "address"
        }
      ],
      "name": "hasAdminRole",
      "outputs": [
        {
          "internalType": "bool",
          "name": "",
          "type": "bool"
        }
      ],
      "stateMutability": "view",
      "type": "function"
    },
    {
      "inputs": [
        {
          "internalType": "address",
          "name": "_address",
          "type": "address"
        }
      ],
      "name": "hasMinterRole",
      "outputs": [
        {
          "internalType": "bool",
          "name": "",
          "type": "bool"
        }
      ],
      "stateMutability": "view",
      "type": "function"
    },
    {
      "inputs": [
        {
          "internalType": "address",
          "name": "_address",
          "type": "address"
        }
      ],
      "name": "hasOperatorRole",
      "outputs": [
        {
          "internalType": "bool",
          "name": "",
          "type": "bool"
        }
      ],
      "stateMutability": "view",
      "type": "function"
    },
    {
      "inputs": [
        {
          "internalType": "bytes32",
          "name": "role",
          "type": "bytes32"
        },
        {
          "internalType": "address",
          "name": "account",
          "type": "address"
        }
      ],
      "name": "hasRole",
      "outputs": [
        {
          "internalType": "bool",
          "name": "",
          "type": "bool"
        }
      ],
      "stateMutability": "view",
      "type": "function"
    },
    {
      "inputs": [
        {
          "internalType": "address",
          "name": "_address",
          "type": "address"
        }
      ],
      "name": "hasSmartContractRole",
      "outputs": [
        {
          "internalType": "bool",
          "name": "",
          "type": "bool"
        }
      ],
      "stateMutability": "view",
      "type": "function"
    },
    {
      "inputs": [
        {
          "internalType": "bytes",
          "name": "_data",
          "type": "bytes"
        }
      ],
      "name": "init",
      "outputs": [],
      "stateMutability": "payable",
      "type": "function"
    },
    {
      "inputs": [
        {
          "internalType": "address",
          "name": "_admin",
          "type": "address"
        }
      ],
      "name": "initAccessControls",
      "outputs": [],
      "stateMutability": "nonpayable",
      "type": "function"
    },
    {
      "inputs": [
        {
          "internalType": "address",
          "name": "_funder",
          "type": "address"
        },
        {
          "internalType": "address",
          "name": "_token",
          "type": "address"
        },
        {
          "internalType": "address",
          "name": "_paymentCurrency",
          "type": "address"
        },
        {
          "internalType": "uint256",
          "name": "_totalTokens",
          "type": "uint256"
        },
        {
          "internalType": "uint256",
          "name": "_startTime",
          "type": "uint256"
        },
        {
          "internalType": "uint256",
          "name": "_endTime",
          "type": "uint256"
        },
        {
          "internalType": "uint256",
          "name": "_rate",
          "type": "uint256"
        },
        {
          "internalType": "uint256",
          "name": "_goal",
          "type": "uint256"
        },
        {
          "internalType": "address",
          "name": "_admin",
          "type": "address"
        },
        {
          "internalType": "address",
          "name": "_pointList",
          "type": "address"
        },
        {
          "internalType": "address payable",
          "name": "_wallet",
          "type": "address"
        }
      ],
      "name": "initCrowdsale",
      "outputs": [],
      "stateMutability": "nonpayable",
      "type": "function"
    },
    {
      "inputs": [
        {
          "internalType": "bytes",
          "name": "_data",
          "type": "bytes"
        }
      ],
      "name": "initMarket",
      "outputs": [],
      "stateMutability": "nonpayable",
      "type": "function"
    },
    {
      "inputs": [],
      "name": "isOpen",
      "outputs": [
        {
          "internalType": "bool",
          "name": "",
          "type": "bool"
        }
      ],
      "stateMutability": "view",
      "type": "function"
    },
    {
      "inputs": [],
      "name": "marketInfo",
      "outputs": [
        {
          "internalType": "uint64",
          "name": "startTime",
          "type": "uint64"
        },
        {
          "internalType": "uint64",
          "name": "endTime",
          "type": "uint64"
        },
        {
          "internalType": "uint128",
          "name": "totalTokens",
          "type": "uint128"
        }
      ],
      "stateMutability": "view",
      "type": "function"
    },
    {
      "inputs": [],
      "name": "marketParticipationAgreement",
      "outputs": [
        {
          "internalType": "string",
          "name": "",
          "type": "string"
        }
      ],
      "stateMutability": "pure",
      "type": "function"
    },
    {
      "inputs": [],
      "name": "marketPrice",
      "outputs": [
        {
          "internalType": "uint128",
          "name": "rate",
          "type": "uint128"
        },
        {
          "internalType": "uint128",
          "name": "goal",
          "type": "uint128"
        }
      ],
      "stateMutability": "view",
      "type": "function"
    },
    {
      "inputs": [],
      "name": "marketStatus",
      "outputs": [
        {
          "internalType": "uint128",
          "name": "commitmentsTotal",
          "type": "uint128"
        },
        {
          "internalType": "bool",
          "name": "finalized",
          "type": "bool"
        },
        {
          "internalType": "bool",
          "name": "usePointList",
          "type": "bool"
        }
      ],
      "stateMutability": "view",
      "type": "function"
    },
    {
      "inputs": [],
      "name": "marketTemplate",
      "outputs": [
        {
          "internalType": "uint256",
          "name": "",
          "type": "uint256"
        }
      ],
      "stateMutability": "view",
      "type": "function"
    },
    {
      "inputs": [],
      "name": "paymentCurrency",
      "outputs": [
        {
          "internalType": "address",
          "name": "",
          "type": "address"
        }
      ],
      "stateMutability": "view",
      "type": "function"
    },
    {
      "inputs": [
        {
          "internalType": "contract IERC20",
          "name": "token",
          "type": "address"
        },
        {
          "internalType": "address",
          "name": "from",
          "type": "address"
        },
        {
          "internalType": "address",
          "name": "to",
          "type": "address"
        },
        {
          "internalType": "uint256",
          "name": "amount",
          "type": "uint256"
        },
        {
          "internalType": "uint256",
          "name": "deadline",
          "type": "uint256"
        },
        {
          "internalType": "uint8",
          "name": "v",
          "type": "uint8"
        },
        {
          "internalType": "bytes32",
          "name": "r",
          "type": "bytes32"
        },
        {
          "internalType": "bytes32",
          "name": "s",
          "type": "bytes32"
        }
      ],
      "name": "permitToken",
      "outputs": [],
      "stateMutability": "nonpayable",
      "type": "function"
    },
    {
      "inputs": [],
      "name": "pointList",
      "outputs": [
        {
          "internalType": "address",
          "name": "",
          "type": "address"
        }
      ],
      "stateMutability": "view",
      "type": "function"
    },
    {
      "inputs": [
        {
          "internalType": "address",
          "name": "_address",
          "type": "address"
        }
      ],
      "name": "removeAdminRole",
      "outputs": [],
      "stateMutability": "nonpayable",
      "type": "function"
    },
    {
      "inputs": [
        {
          "internalType": "string",
          "name": "_name",
          "type": "string"
        }
      ],
      "name": "removeDocument",
      "outputs": [],
      "stateMutability": "nonpayable",
      "type": "function"
    },
    {
      "inputs": [
        {
          "internalType": "address",
          "name": "_address",
          "type": "address"
        }
      ],
      "name": "removeMinterRole",
      "outputs": [],
      "stateMutability": "nonpayable",
      "type": "function"
    },
    {
      "inputs": [
        {
          "internalType": "address",
          "name": "_address",
          "type": "address"
        }
      ],
      "name": "removeOperatorRole",
      "outputs": [],
      "stateMutability": "nonpayable",
      "type": "function"
    },
    {
      "inputs": [
        {
          "internalType": "address",
          "name": "_address",
          "type": "address"
        }
      ],
      "name": "removeSmartContractRole",
      "outputs": [],
      "stateMutability": "nonpayable",
      "type": "function"
    },
    {
      "inputs": [
        {
          "internalType": "bytes32",
          "name": "role",
          "type": "bytes32"
        },
        {
          "internalType": "address",
          "name": "account",
          "type": "address"
        }
      ],
      "name": "renounceRole",
      "outputs": [],
      "stateMutability": "nonpayable",
      "type": "function"
    },
    {
      "inputs": [
        {
          "internalType": "bytes32",
          "name": "role",
          "type": "bytes32"
        },
        {
          "internalType": "address",
          "name": "account",
          "type": "address"
        }
      ],
      "name": "revokeRole",
      "outputs": [],
      "stateMutability": "nonpayable",
      "type": "function"
    },
    {
      "inputs": [
        {
          "internalType": "uint256",
          "name": "_rate",
          "type": "uint256"
        },
        {
          "internalType": "uint256",
          "name": "_goal",
          "type": "uint256"
        }
      ],
      "name": "setAuctionPrice",
      "outputs": [],
      "stateMutability": "nonpayable",
      "type": "function"
    },
    {
      "inputs": [
        {
          "internalType": "uint256",
          "name": "_startTime",
          "type": "uint256"
        },
        {
          "internalType": "uint256",
          "name": "_endTime",
          "type": "uint256"
        }
      ],
      "name": "setAuctionTime",
      "outputs": [],
      "stateMutability": "nonpayable",
      "type": "function"
    },
    {
      "inputs": [
        {
          "internalType": "address payable",
          "name": "_wallet",
          "type": "address"
        }
      ],
      "name": "setAuctionWallet",
      "outputs": [],
      "stateMutability": "nonpayable",
      "type": "function"
    },
    {
      "inputs": [
        {
          "internalType": "string",
          "name": "_name",
          "type": "string"
        },
        {
          "internalType": "string",
          "name": "_data",
          "type": "string"
        }
      ],
      "name": "setDocument",
      "outputs": [],
      "stateMutability": "nonpayable",
      "type": "function"
    },
    {
      "inputs": [
        {
          "internalType": "string[]",
          "name": "_name",
          "type": "string[]"
        },
        {
          "internalType": "string[]",
          "name": "_data",
          "type": "string[]"
        }
      ],
      "name": "setDocuments",
      "outputs": [],
      "stateMutability": "nonpayable",
      "type": "function"
    },
    {
      "inputs": [
        {
          "internalType": "address",
          "name": "_list",
          "type": "address"
        }
      ],
      "name": "setList",
      "outputs": [],
      "stateMutability": "nonpayable",
      "type": "function"
    },
    {
      "inputs": [],
      "name": "tokenPrice",
      "outputs": [
        {
          "internalType": "uint256",
          "name": "",
          "type": "uint256"
        }
      ],
      "stateMutability": "view",
      "type": "function"
    },
    {
      "inputs": [
        {
          "internalType": "address",
          "name": "_user",
          "type": "address"
        }
      ],
      "name": "tokensClaimable",
      "outputs": [
        {
          "internalType": "uint256",
          "name": "claimerCommitment",
          "type": "uint256"
        }
      ],
      "stateMutability": "view",
      "type": "function"
    },
    {
      "inputs": [],
      "name": "wallet",
      "outputs": [
        {
          "internalType": "address payable",
          "name": "",
          "type": "address"
        }
      ],
      "stateMutability": "view",
      "type": "function"
    },
    {
      "inputs": [
        {
          "internalType": "address payable",
          "name": "beneficiary",
          "type": "address"
        }
      ],
      "name": "withdrawTokens",
      "outputs": [],
      "stateMutability": "nonpayable",
      "type": "function"
    },
    {
      "inputs": [],
      "name": "withdrawTokens",
      "outputs": [],
      "stateMutability": "nonpayable",
      "type": "function"
    },
    {
      "stateMutability": "payable",
      "type": "receive"
    }
  ],
  "transactionHash": "0x6b8c431c9cebe183de04b7f7e436160af406e412f962ef040da8debf14054e82",
  "args": [],
  "numDeployments": 1,
  "solcInputHash": "f383c588ca82e498010b89fc5071466e",
  "bytecode": "0x608060405234801561001057600080fd5b506001600555614e67806100256000396000f3fe6080604052600436106104145760003560e01c8063864333741161021e578063c884ef8311610123578063dccfe310116100ab578063e8fcf7231161007a578063e8fcf72314610be6578063f04899d314610c06578063f08b82e614610c1b578063f5b541a614610c30578063fc4e3e0a14610c4557610423565b8063dccfe31014610b62578063dde51f6d14610b82578063e0e081d714610ba2578063e6594abd14610bc657610423565b8063d2423b51116100f2578063d2423b5114610acc578063d539139314610aed578063d547741f14610b02578063d69d3e6214610b22578063dc97e08214610b4257610423565b8063c884ef8314610a4c578063c92bce8714610a6c578063c9fab05914610a8c578063ca15c87314610aac57610423565b80639c64d0ae116101a6578063b3f05b9711610175578063b3f05b97146109b7578063b7928b1d146109cc578063c2507ac1146109ec578063c395fcb314610a0c578063c6b547e614610a2c57610423565b80639c64d0ae146109405780639fa5f50b14610960578063a217fddf14610982578063adbf37761461099757610423565b80639010d07c116101ed5780639010d07c146108ab57806391d14854146108cb5780639478941c146108eb57806399fdb3201461090b5780639a87222c1461092057610423565b8063864333741461084c5780638a845fc0146108615780638d8f2adb146108815780638fa8b7901461089657610423565b806345a15388116103245780636595171c116102ac5780637c516e941161027b5780637c516e94146107b45780637ccb6a64146107d45780637ff9b5961461080257806381353c8e14610817578063857d26081461083757610423565b80636595171c1461073f5780636ae260c11461075f57806373973fcb1461077f57806374cf9fc51461079f57610423565b80634bb278f3116102f35780634bb278f3146106c25780634dc80e15146106d75780634ddf47d4146106f7578063521eb2731461070a57806354f1e1261461071f57610423565b806345a153881461064a57806347535d7b1461066d57806349df728c146106825780634b3e6abb146106a257610423565b806324e4025b116103a757806336568abe1161037657806336568abe146105be57806336d0054b146105de5780633d15cc6d146105f35780633d1c2273146106155780633f16431a1461062a57610423565b806324e4025b1461054657806329762960146105665780632f2ff15d14610579578063314148e21461059957610423565b806317026455116103e357806317026455146104cf5780631b3e460e146104e4578063212f8a8114610506578063248a9ca31461052657610423565b8063031bee0014610428578063099db017146104555780630cc4c03314610482578063113b0ab2146104af57610423565b3661042357610421610c65565b005b600080fd5b34801561043457600080fd5b5061043d610c86565b60405161044c93929190614ba6565b60405180910390f35b34801561046157600080fd5b50610475610470366004613697565b610cb3565b60405161044c9190613e99565b34801561048e57600080fd5b506104a261049d3660046137a8565b610cd5565b60405161044c9190613ead565b3480156104bb57600080fd5b506104756104ca366004613697565b610d1c565b3480156104db57600080fd5b50610475610d36565b3480156104f057600080fd5b506104f9610d54565b60405161044c9190613ea4565b34801561051257600080fd5b506104216105213660046137c9565b610d59565b34801561053257600080fd5b506104f96105413660046138f3565b610e0c565b34801561055257600080fd5b5061042161056136600461392f565b610e21565b610421610574366004613770565b610f57565b34801561058557600080fd5b5061042161059436600461390b565b611060565b3480156105a557600080fd5b506105ae6110a8565b60405161044c9493929190613d6d565b3480156105ca57600080fd5b506104216105d936600461390b565b6110e0565b3480156105ea57600080fd5b50610475611122565b3480156105ff57600080fd5b50610608611141565b60405161044c9190613c27565b34801561062157600080fd5b506104f9611150565b34801561063657600080fd5b50610421610645366004613697565b611156565b34801561065657600080fd5b5061065f611171565b60405161044c929190614b7e565b34801561067957600080fd5b5061047561118b565b34801561068e57600080fd5b5061042161069d366004613697565b6111c0565b3480156106ae57600080fd5b506104216106bd3660046138bb565b61130a565b3480156106ce57600080fd5b50610421611387565b3480156106e357600080fd5b506104f96106f2366004613697565b611591565b610421610705366004613950565b6110a4565b34801561071657600080fd5b50610608611676565b34801561072b57600080fd5b5061042161073a366004613697565b611685565b34801561074b57600080fd5b5061042161075a366004613697565b61169d565b34801561076b57600080fd5b5061042161077a36600461392f565b6116a8565b34801561078b57600080fd5b506104f961079a3660046138f3565b6117fb565b3480156107ab57600080fd5b506104a261187f565b3480156107c057600080fd5b506104216107cf36600461398f565b6118a2565b3480156107e057600080fd5b506107f46107ef366004613950565b611916565b60405161044c929190613eef565b34801561080e57600080fd5b506104f9611a03565b34801561082357600080fd5b50610421610832366004613950565b611a12565b34801561084357600080fd5b506104f9611a62565b34801561085857600080fd5b50610475611a74565b34801561086d57600080fd5b5061042161087c366004613697565b611abf565b34801561088d57600080fd5b50610421611ad7565b3480156108a257600080fd5b50610421611ae2565b3480156108b757600080fd5b506106086108c636600461392f565b611be1565b3480156108d757600080fd5b506104756108e636600461390b565b611c02565b3480156108f757600080fd5b50610421610906366004613697565b611c1a565b34801561091757600080fd5b50610608611c32565b34801561092c57600080fd5b5061042161093b366004613697565b611c41565b34801561094c57600080fd5b5061042161095b366004613a11565b611cc4565b34801561096c57600080fd5b50610975611ce8565b60405161044c9190613e39565b34801561098e57600080fd5b506104f9611dc0565b3480156109a357600080fd5b506104216109b2366004613697565b611dc5565b3480156109c357600080fd5b50610475611ddd565b3480156109d857600080fd5b506104216109e7366004613697565b611ded565b3480156109f857600080fd5b506104f9610a073660046138f3565b611e05565b348015610a1857600080fd5b50610475610a27366004613697565b611e10565b348015610a3857600080fd5b506104a2610a473660046138f3565b611e1c565b348015610a5857600080fd5b506104f9610a67366004613697565b611ee7565b348015610a7857600080fd5b50610421610a87366004613853565b611ef9565b348015610a9857600080fd5b50610421610aa73660046137a8565b611f6b565b348015610ab857600080fd5b506104f9610ac73660046138f3565b6123da565b610adf610ada36600461380a565b6123f1565b60405161044c929190613d9f565b348015610af957600080fd5b506104f9612581565b348015610b0e57600080fd5b50610421610b1d36600461390b565b612593565b348015610b2e57600080fd5b50610421610b3d366004613697565b6125cd565b348015610b4e57600080fd5b50610421610b5d366004613b1f565b6125e8565b348015610b6e57600080fd5b50610421610b7d366004613697565b6125f3565b348015610b8e57600080fd5b50610421610b9d366004613950565b6125fe565b348015610bae57600080fd5b50610bb761261a565b60405161044c93929190614b5b565b348015610bd257600080fd5b50610421610be1366004613697565b61263f565b348015610bf257600080fd5b506104f9610c01366004613697565b6126a2565b348015610c1257600080fd5b506106086126b4565b348015610c2757600080fd5b506104f96126c3565b348015610c3c57600080fd5b506104f96126d9565b348015610c5157600080fd5b50610475610c60366004613697565b6126eb565b60405162461bcd60e51b8152600401610c7d906140d4565b60405180910390fd5b6007546001600160401b0380821691600160401b810490911690600160801b90046001600160801b031683565b6000610ccd600080516020614cc183398151915283611c02565b90505b919050565b60608b8b8b8b8b8b8b8b8b8b8b604051602001610cfc9b9a99989796959493929190613c99565b60405160208183030381529060405290509b9a5050505050505050505050565b6000610ccd600080516020614c8183398151915283611c02565b60075442600160401b9091046001600160401b031662093a80011090565b600181565b60026005541415610d7c5760405162461bcd60e51b8152600401610c7d906149b6565b6002600555600b546001600160a01b031673eeeeeeeeeeeeeeeeeeeeeeeeeeeeeeeeeeeeeeee1415610dc05760405162461bcd60e51b8152600401610c7d90614ae3565b80610dcd57610dcd610c65565b6000610dd8836117fb565b90508015610e0157600b54610df7906001600160a01b03163383612705565b610e0184826127e2565b505060016005555050565b60009081526020819052604090206002015490565b610e2a33611e10565b610e3357600080fd5b60008111610e535760405162461bcd60e51b8152600401610c7d90614a66565b60008211610e735760405162461bcd60e51b8152600401610c7d90614440565b6008546001600160801b031615610e9c5760405162461bcd60e51b8152600401610c7d90614217565b610ea5826129d7565b600680546001600160801b0319166001600160801b0392909216919091179055610ece816129d7565b600680546001600160801b03908116600160801b9382168402179091556007549190910416610efc82612a04565b1115610f1a5760405162461bcd60e51b8152600401610c7d906147f8565b7f622a57040c34e45abc5fadeb22e4c3c687cf48a096c86694cd21a7be9e7851ee8282604051610f4b929190614b98565b60405180910390a15050565b60026005541415610f7a5760405162461bcd60e51b8152600401610c7d906149b6565b6002600555600b546001600160a01b031673eeeeeeeeeeeeeeeeeeeeeeeeeeeeeeeeeeeeeeee14610fbd5760405162461bcd60e51b8152600401610c7d90614685565b80610fca57610fca610c65565b6000610fd5346117fb565b90506000610fe33483612a2f565b90508115610ff557610ff584836127e2565b8015611033576040516001600160a01b0385169082156108fc029083906000818181858888f19350505050158015611031573d6000803e3d6000fd5b505b600854476001600160801b039091161115610e015760405162461bcd60e51b8152600401610c7d90614198565b60008281526020819052604090206002015461107e906108e6612a52565b61109a5760405162461bcd60e51b8152600401610c7d90614039565b6110a48282612a56565b5050565b6009546007546008546001600160a01b03909216926001600160401b0380831693600160401b9093041691600160801b900460ff1690565b6110e8612a52565b6001600160a01b0316816001600160a01b0316146111185760405162461bcd60e51b8152600401610c7d90614a94565b6110a48282612abf565b6006546008546001600160801b03600160801b90920482169116101590565b600b546001600160a01b031681565b60045490565b61116e600080516020614c8183398151915282611060565b50565b6006546001600160801b0380821691600160801b90041682565b6007546000906001600160401b031642108015906111bb5750600754600160401b90046001600160401b03164211155b905090565b600260055414156111e35760405162461bcd60e51b8152600401610c7d906149b6565b60026005556111f0611122565b156112a057600854600160801b900460ff1661121e5760405162461bcd60e51b8152600401610c7d906147c1565b600061122982611591565b90506000811161124b5760405162461bcd60e51b8152600401610c7d9061497f565b6001600160a01b0382166000908152600e602052604090205461126e9082612b28565b6001600160a01b038084166000908152600e602052604090209190915560095461129a91168383612b4b565b50611302565b600754600160401b90046001600160401b031642116112d15760405162461bcd60e51b8152600401610c7d9061477a565b6001600160a01b038082166000908152600d602052604081208054919055600b54909161130091168383612b4b565b505b506001600555565b61131333611e10565b61131c57600080fd5b6008805460ff60881b1916600160881b83151581029190911791829055600c546040517f2df0f5b650a168c74b406dcccc513b8e68da86ce7bcb0654ee83b2ac47be5b3f9361137c936001600160a01b039093169260ff91041690613d39565b60405180910390a150565b600260055414156113aa5760405162461bcd60e51b8152600401610c7d906149b6565b60026005556113b833611e10565b806113cd5750600a546001600160a01b031633145b806113dc57506113dc33610d1c565b806113ea57506113ea610d36565b6114065760405162461bcd60e51b8152600401610c7d90614a24565b60088054600160801b900460ff16156114315760405162461bcd60e51b8152600401610c7d90614265565b60078054600160801b90046001600160801b03166114615760405162461bcd60e51b8152600401610c7d90614380565b611469611a74565b6114855760405162461bcd60e51b8152600401610c7d906146cb565b61148d611122565b1561151f57600b54600a5483546114ba926001600160a01b039081169216906001600160801b0316612b4b565b81546000906114d1906001600160801b0316612a04565b82549091506000906114f390600160801b90046001600160801b031683612a2f565b9050801561151857600954600a54611518916001600160a01b03908116911683612b4b565b505061154e565b600954600a54825461154e926001600160a01b03908116921690600160801b90046001600160801b0316612b4b565b815460ff60801b1916600160801b1782556040517f32bebcfd2d04dbae321298091d96d2cb1d07279f59718cd83bd98245b8b82b5a90600090a150506001600555565b6009546040516370a0823160e01b815260009182916001600160a01b03909116906370a08231906115c6903090600401613c27565b60206040518083038186803b1580156115de57600080fd5b505afa1580156115f2573d6000803e3d6000fd5b505050506040513d601f19601f820116820180604052508101906116169190613b07565b6001600160a01b0384166000908152600d602052604090205490915061163b90612a04565b6001600160a01b0384166000908152600e6020526040902054909250611662908390612a2f565b915080821115611670578091505b50919050565b600a546001600160a01b031681565b61116e600080516020614cc183398151915282612593565b61116e600082611060565b6116b133611e10565b6116ba57600080fd5b6402540be40082106116de5760405162461bcd60e51b8152600401610c7d90614922565b6402540be40081106117025760405162461bcd60e51b8152600401610c7d90614922565b428210156117225760405162461bcd60e51b8152600401610c7d90614088565b8181116117415760405162461bcd60e51b8152600401610c7d906144b6565b6008546001600160801b03161561176a5760405162461bcd60e51b8152600401610c7d90614217565b61177382612bbd565b6007805467ffffffffffffffff19166001600160401b039290921691909117905561179d81612bbd565b600780546001600160401b0392909216600160401b0267ffffffffffffffff60401b199092169190911790556040517f5725d1e4352d6944889e54837ffaefde55cdc0b55796b831365d61cd4c87fdb890610f4b9084908490614b98565b60008061180783612a04565b600854909150600090611822906001600160801b0316612a04565b600754909150600160801b90046001600160801b03166118428284612b28565b11156118775760075461186e9061186990600160801b90046001600160801b031683612a2f565b612be6565b92505050610cd0565b509192915050565b60606040518061018001604052806101518152602001614ce16101519139905090565b60405163d505accf60e01b81526001600160a01b0389169063d505accf906118da908a908a908a908a908a908a908a90600401613cf8565b600060405180830381600087803b1580156118f457600080fd5b505af1158015611908573d6000803e3d6000fd5b505050505050505050505050565b606060006002848460405161192c929190613b8b565b90815260200160405180910390206001016002858560405161194f929190613b8b565b908152604080516020928190038301812054845460026101006001831615026000190190911604601f810185900485028301850190935282825264010000000090046001600160401b031692909184918301828280156119f05780601f106119c5576101008083540402835291602001916119f0565b820191906000526020600020905b8154815290600101906020018083116119d357829003601f168201915b50505050509150915091505b9250929050565b6006546001600160801b031690565b600080808080808080808080611a2a8c8e018e6136ba565b9a509a509a509a509a509a509a509a509a509a509a50611a538b8b8b8b8b8b8b8b8b8b8b611f6b565b50505050505050505050505050565b600080516020614c8183398151915281565b600754600090600160401b90046001600160401b03164211806111bb57506007546008546001600160801b03600160801b909204821691611ab89116600101612a04565b1015905090565b61116e600080516020614c8183398151915282612593565b611ae0336111c0565b565b60026005541415611b055760405162461bcd60e51b8152600401610c7d906149b6565b6002600555611b1333611e10565b611b1c57600080fd5b60088054600160801b900460ff1615611b475760405162461bcd60e51b8152600401610c7d90614265565b80546001600160801b031615611b6f5760405162461bcd60e51b8152600401610c7d90614552565b600954600a54600754611b9f926001600160a01b03908116921690600160801b90046001600160801b0316612b4b565b805460ff60801b1916600160801b1781556040517fa5fb31e47bd1eca58bf14a3312d5e6aeafdc4ee787c8ed348c15c2b092324d9390600090a1506001600555565b6000828152602081905260408120611bf99083612c0e565b90505b92915050565b6000828152602081905260408120611bf99083612c1a565b61116e600080516020614ca183398151915282612593565b6009546001600160a01b031681565b611c4a33611e10565b611c5357600080fd5b6001600160a01b038116611c795760405162461bcd60e51b8152600401610c7d906148a6565b600a80546001600160a01b0319166001600160a01b0383161790556040517f34ae2bad9265f0212d4cf341708b8250949164bb54f9d0e4f442024f83bb2f909061137c908390613c27565b611ccd33611e10565b611cd657600080fd5b611ce284848484612c2f565b50505050565b60606004805480602002602001604051908101604052809291908181526020016000905b82821015611db75760008481526020908190208301805460408051601f6002600019610100600187161502019094169390930492830185900485028101850190915281815292830182828015611da35780601f10611d7857610100808354040283529160200191611da3565b820191906000526020600020905b815481529060010190602001808311611d8657829003601f168201915b505050505081526020019060010190611d0c565b50505050905090565b600081565b61116e600080516020614cc183398151915282611060565b600854600160801b900460ff1690565b61116e600080516020614ca183398151915282611060565b6000610ccd82612a04565b6000610ccd8183611c02565b6004546060908210611e405760405162461bcd60e51b8152600401610c7d90614842565b60048281548110611e4d57fe5b600091825260209182902001805460408051601f6002600019610100600187161502019094169390930492830185900485028101850190915281815292830182828015611edb5780601f10611eb057610100808354040283529160200191611edb565b820191906000526020600020905b815481529060010190602001808311611ebe57829003601f168201915b50505050509050919050565b600e6020526000908152604090205481565b611f0233611e10565b611f0b57600080fd5b8260005b81811015611f6357611f5b868683818110611f2657fe5b9050602002810190611f389190614bd2565b868685818110611f4457fe5b9050602002810190611f569190614bd2565b612c2f565b600101611f0f565b505050505050565b6402540be4008610611f8f5760405162461bcd60e51b8152600401610c7d90614922565b42871015611faf5760405162461bcd60e51b8152600401610c7d90614088565b868611611fce5760405162461bcd60e51b8152600401610c7d9061414c565b60008511611fee5760405162461bcd60e51b8152600401610c7d90614440565b6001600160a01b0381166120145760405162461bcd60e51b8152600401610c7d906148a6565b6001600160a01b03831661203a5760405162461bcd60e51b8152600401610c7d906145c0565b6000881161205a5760405162461bcd60e51b8152600401610c7d9061486f565b6000841161207a5760405162461bcd60e51b8152600401610c7d90614a66565b60128a6001600160a01b031663313ce5676040518163ffffffff1660e01b815260040160206040518083038186803b1580156120b557600080fd5b505afa1580156120c9573d6000803e3d6000fd5b505050506040513d601f19601f820116820180604052508101906120ed9190613b43565b60ff161461210d5760405162461bcd60e51b8152600401610c7d90614508565b6001600160a01b03891673eeeeeeeeeeeeeeeeeeeeeeeeeeeeeeeeeeeeeeee146121c4576000896001600160a01b031663313ce5676040518163ffffffff1660e01b815260040160206040518083038186803b15801561216c57600080fd5b505afa158015612180573d6000803e3d6000fd5b505050506040513d601f19601f820116820180604052508101906121a49190613b43565b60ff16116121c45760405162461bcd60e51b8152600401610c7d9061446e565b6121cd856129d7565b600680546001600160801b0319166001600160801b03929092169190911790556121f6846129d7565b600680546001600160801b03928316600160801b02921691909117905561221c87612bbd565b6007805467ffffffffffffffff19166001600160401b039290921691909117905561224686612bbd565b600780546001600160401b0392909216600160401b0267ffffffffffffffff60401b1990921691909117905561227b886129d7565b600780546001600160801b03928316600160801b029216919091179055600980546001600160a01b03808d166001600160a01b031992831617909255600b80548c8416908316179055600a8054928416929091169190911790556122de8361263f565b6122e782612e81565b876122f185612a04565b111561230f5760405162461bcd60e51b8152600401610c7d90614323565b61231a8a8c8a612705565b7fb7f7543bafad6f9c480fdd8aa26ed698d8364818c018dcbdb7cd8b41e12036ec8b8b8b8b878660405161235396959493929190613c5f565b60405180910390a17f5725d1e4352d6944889e54837ffaefde55cdc0b55796b831365d61cd4c87fdb8878760405161238c929190614b98565b60405180910390a17f622a57040c34e45abc5fadeb22e4c3c687cf48a096c86694cd21a7be9e7851ee85856040516123c5929190614b98565b60405180910390a15050505050505050505050565b6000818152602081905260408120610ccd90612f0d565b606080836001600160401b038111801561240a57600080fd5b50604051908082528060200260200182016040528015612434578160200160208202803683370190505b509150836001600160401b038111801561244d57600080fd5b5060405190808252806020026020018201604052801561248157816020015b606081526020019060019003908161246c5790505b50905060005b848110156125785760006060308888858181106124a057fe5b90506020028101906124b29190614bd2565b6040516124c0929190613b8b565b600060405180830381855af49150503d80600081146124fb576040519150601f19603f3d011682016040523d82523d6000602084013e612500565b606091505b5091509150818061250f575085155b61251882612f18565b906125365760405162461bcd60e51b8152600401610c7d9190613ead565b508185848151811061254457fe5b6020026020010190151590811515815250508084848151811061256357fe5b60209081029190910101525050600101612487565b50935093915050565b600080516020614cc183398151915281565b6000828152602081905260409020600201546125b1906108e6612a52565b6111185760405162461bcd60e51b8152600401610c7d906142d3565b6125d633611e10565b6125df57600080fd5b61116e81612e81565b6110a4338383610d59565b61116e600082612593565b61260733611e10565b61261057600080fd5b6110a48282612f78565b6008546001600160801b0381169060ff600160801b8204811691600160881b90041683565b60015460ff16156126625760405162461bcd60e51b8152600401610c7d90613fca565b6001600160a01b0381166126885760405162461bcd60e51b8152600401610c7d90614417565b61269360008261109a565b506001805460ff191681179055565b600d6020526000908152604090205481565b600c546001600160a01b031681565b600754600160801b90046001600160801b031690565b600080516020614ca183398151915281565b6000610ccd600080516020614ca183398151915283611c02565b60006060846001600160a01b03166323b872dd85308660405160240161272d93929190613c3b565b6040516020818303038152906040529060e01b6020820180516001600160e01b0383818316178352505050506040516127669190613b9b565b6000604051808303816000865af19150503d80600081146127a3576040519150601f19603f3d011682016040523d82523d6000602084013e6127a8565b606091505b50915091508180156127d25750805115806127d25750808060200190518101906127d291906138d7565b6127db57600080fd5b5050505050565b6007546001600160401b0316421080159061280f5750600754600160401b90046001600160401b03164211155b61282b5760405162461bcd60e51b8152600401610c7d90614745565b6001600160a01b0382166128515760405162461bcd60e51b8152600401610c7d9061463b565b600854600160801b900460ff161561287b5760405162461bcd60e51b8152600401610c7d90614589565b6001600160a01b0382166000908152600d602052604081205461289e9083612b28565b600854909150600160881b900460ff161561293e57600c54604051631cd53d5560e01b81526001600160a01b0390911690631cd53d55906128e59086908590600401613d54565b60206040518083038186803b1580156128fd57600080fd5b505afa158015612911573d6000803e3d6000fd5b505050506040513d601f19601f8201168201806040525081019061293591906138d7565b61293e57600080fd5b6001600160a01b0383166000908152600d6020526040902081905560085461297890612973906001600160801b031684612b28565b6129d7565b600880546001600160801b0319166001600160801b03929092169190911790556040517f077511a636ba1f10551cc7b89c13ff66a6ac9344e8a917527817a9690b15af7a906129ca9085908590613d54565b60405180910390a1505050565b60006001600160801b03821115612a005760405162461bcd60e51b8152600401610c7d9061429c565b5090565b600654600090610ccd906001600160801b0316612a2984670de0b6b3a76400006131a9565b906131e0565b80820382811115611bfc5760405162461bcd60e51b8152600401610c7d90613f9b565b3390565b6000828152602081905260409020612a6e9082613212565b156110a457612a7b612a52565b6001600160a01b0316816001600160a01b0316837f2f8788117e7eff1d82e926ec794901d17c78024a50270940304540a733656f0d60405160405180910390a45050565b6000828152602081905260409020612ad79082613227565b156110a457612ae4612a52565b6001600160a01b0316816001600160a01b0316837ff6391f5c32d9c69d2a47ea670b442974b53935d1edc7fd64eb21e047a839171b60405160405180910390a45050565b81810181811015611bfc5760405162461bcd60e51b8152600401610c7d906143a9565b6001600160a01b03831673eeeeeeeeeeeeeeeeeeeeeeeeeeeeeeeeeeeeeeee1415612b7f57612b7a828261323c565b612b8a565b612b8a8383836132ce565b7f6337ed398c0e8467698c581374fdce4db14922df487b5a39483079f5f59b60a48383836040516129ca93929190613c3b565b60006001600160401b03821115612a005760405162461bcd60e51b8152600401610c7d90614604565b600654600090610ccd90670de0b6b3a764000090612a299085906001600160801b03166131a9565b6000611bf983836132f4565b6000611bf9836001600160a01b038416613339565b82612c4c5760405162461bcd60e51b8152600401610c7d906143e0565b80612c695760405162461bcd60e51b8152600401610c7d906148eb565b60006001600160401b031660028585604051612c86929190613b8b565b908152604051908190036020019020546001600160401b03640100000000909104161415612d2c5760048054600181018255600091909152612ceb907f8a35acfbc15ff81a39ae7d344fd709f28e8600b4aa8c65c6b64bfe7fe36bd19b018585613465565b50600454604051600290612d029087908790613b8b565b908152604051908190036020019020805463ffffffff9290921663ffffffff199092169190911790555b604051806060016040528060028686604051612d49929190613b8b565b90815260408051602092819003830190205463ffffffff168352426001600160401b0316838301528051601f860183900483028101830182528581529201919085908590819084018382808284376000920191909152505050915250604051600290612db89087908790613b8b565b9081526040805191829003602090810190922083518154858501516001600160401b0316640100000000026bffffffffffffffff000000001963ffffffff90931663ffffffff1990921691909117919091161781559083015180519192612e27926001850192909101906134df565b5050604051612e3a915085908590613b8b565b60405180910390207fbaa206e5ea800eb88bce099f453fee53295b793b9d5d1cfc4ce4b6db06a34f538383604051612e73929190613ec0565b60405180910390a250505050565b6001600160a01b03811615612ec157600c80546001600160a01b0383166001600160a01b03199091161790556008805460ff60881b1916600160881b1790555b600c546008546040517f2df0f5b650a168c74b406dcccc513b8e68da86ce7bcb0654ee83b2ac47be5b3f9261137c926001600160a01b0390911691600160881b90910460ff1690613d39565b6000610ccd82613351565b6060604482511015612f5e575060408051808201909152601d81527f5472616e73616374696f6e2072657665727465642073696c656e746c790000006020820152610cd0565b60048201915081806020019051810190610ccd9190613a6d565b60006001600160401b031660028383604051612f95929190613b8b565b908152604051908190036020019020546001600160401b03640100000000909104161415612fd55760405162461bcd60e51b8152600401610c7d906141e8565b6000600160028484604051612feb929190613b8b565b9081526040519081900360200190205460045463ffffffff9182169290920392508216600019909101146130cc5760048054600019810190811061302b57fe5b9060005260206000200160048263ffffffff168154811061304857fe5b90600052602060002001908054600181600116156101000203166002900461307192919061354d565b5080600101600260048363ffffffff168154811061308b57fe5b906000526020600020016040516130a29190613bb7565b908152604051908190036020019020805463ffffffff9290921663ffffffff199092169190911790555b60048054806130d757fe5b6001900381819060005260206000200160006130f391906135c2565b90558282604051613105929190613b8b565b60405180910390207f4b5338540b4d1c0f6dd0308a25f633b7ff60472f894d711cff9dd64e35c613b260028585604051613140929190613b8b565b908152602001604051809103902060010160405161315e9190613f11565b60405180910390a260028383604051613178929190613b8b565b90815260405190819003602001902080546bffffffffffffffffffffffff1916815560006127db60018301826135c2565b60008115806131c4575050808202828282816131c157fe5b04145b611bfc5760405162461bcd60e51b8152600401610c7d906149ed565b60008082116132015760405162461bcd60e51b8152600401610c7d90614b2d565b81838161320a57fe5b049392505050565b6000611bf9836001600160a01b038416613355565b6000611bf9836001600160a01b03841661339f565b604080516000808252602082019092526001600160a01b0384169083906040516132669190613b9b565b60006040518083038185875af1925050503d80600081146132a3576040519150601f19603f3d011682016040523d82523d6000602084013e6132a8565b606091505b50509050806132c95760405162461bcd60e51b8152600401610c7d90614702565b505050565b60006060846001600160a01b031663a9059cbb858560405160240161272d929190613d54565b815460009082106133175760405162461bcd60e51b8152600401610c7d90613ff7565b82600001828154811061332657fe5b9060005260206000200154905092915050565b60009081526001919091016020526040902054151590565b5490565b60006133618383613339565b61339757508154600181810184556000848152602080822090930184905584548482528286019093526040902091909155611bfc565b506000611bfc565b6000818152600183016020526040812054801561345b57835460001980830191908101906000908790839081106133d257fe5b90600052602060002001549050808760000184815481106133ef57fe5b60009182526020808320909101929092558281526001898101909252604090209084019055865487908061341f57fe5b60019003818190600052602060002001600090559055866001016000878152602001908152602001600020600090556001945050505050611bfc565b6000915050611bfc565b828054600181600116156101000203166002900490600052602060002090601f016020900481019282601f106134a65782800160ff198235161785556134d3565b828001600101855582156134d3579182015b828111156134d35782358255916020019190600101906134b8565b50612a00929150613602565b828054600181600116156101000203166002900490600052602060002090601f016020900481019282601f1061352057805160ff19168380011785556134d3565b828001600101855582156134d3579182015b828111156134d3578251825591602001919060010190613532565b828054600181600116156101000203166002900490600052602060002090601f016020900481019282601f1061358657805485556134d3565b828001600101855582156134d357600052602060002091601f016020900482015b828111156134d35782548255916001019190600101906135a7565b50805460018160011615610100020316600290046000825580601f106135e8575061116e565b601f01602090049060005260206000209081019061116e91905b5b80821115612a005760008155600101613603565b60008083601f840112613628578182fd5b5081356001600160401b0381111561363e578182fd5b60208301915083602080830285010111156119fc57600080fd5b60008083601f840112613669578182fd5b5081356001600160401b0381111561367f578182fd5b6020830191508360208285010111156119fc57600080fd5b6000602082840312156136a8578081fd5b81356136b381614c4e565b9392505050565b60008060008060008060008060008060006101608c8e0312156136db578687fd5b8b356136e681614c4e565b9a5060208c01356136f681614c4e565b995060408c013561370681614c4e565b985060608c0135975060808c0135965060a08c0135955060c08c0135945060e08c013593506101008c013561373a81614c4e565b92506101208c013561374b81614c4e565b91506101408c013561375c81614c4e565b809150509295989b509295989b9093969950565b60008060408385031215613782578182fd5b823561378d81614c4e565b9150602083013561379d81614c63565b809150509250929050565b60008060008060008060008060008060006101608c8e0312156136db578081fd5b6000806000606084860312156137dd578283fd5b83356137e881614c4e565b92506020840135915060408401356137ff81614c63565b809150509250925092565b60008060006040848603121561381e578081fd5b83356001600160401b03811115613833578182fd5b61383f86828701613617565b90945092505060208401356137ff81614c63565b60008060008060408587031215613868578182fd5b84356001600160401b038082111561387e578384fd5b61388a88838901613617565b909650945060208701359150808211156138a2578384fd5b506138af87828801613617565b95989497509550505050565b6000602082840312156138cc578081fd5b81356136b381614c63565b6000602082840312156138e8578081fd5b81516136b381614c63565b600060208284031215613904578081fd5b5035919050565b6000806040838503121561391d578182fd5b82359150602083013561379d81614c4e565b60008060408385031215613941578182fd5b50508035926020909101359150565b60008060208385031215613962578182fd5b82356001600160401b03811115613977578283fd5b61398385828601613658565b90969095509350505050565b600080600080600080600080610100898b0312156139ab578182fd5b88356139b681614c4e565b975060208901356139c681614c4e565b965060408901356139d681614c4e565b9550606089013594506080890135935060a08901356139f481614c71565b979a969950949793969295929450505060c08201359160e0013590565b60008060008060408587031215613a26578182fd5b84356001600160401b0380821115613a3c578384fd5b613a4888838901613658565b90965094506020870135915080821115613a60578384fd5b506138af87828801613658565b600060208284031215613a7e578081fd5b81516001600160401b0380821115613a94578283fd5b818401915084601f830112613aa7578283fd5b815181811115613ab5578384fd5b604051601f8201601f191681016020018381118282101715613ad5578586fd5b604052818152838201602001871015613aec578485fd5b613afd826020830160208701614c22565b9695505050505050565b600060208284031215613b18578081fd5b5051919050565b60008060408385031215613b31578182fd5b82359150602083013561379d81614c63565b600060208284031215613b54578081fd5b81516136b381614c71565b60008151808452613b77816020860160208601614c22565b601f01601f19169290920160200192915050565b6000828483379101908152919050565b60008251613bad818460208701614c22565b9190910192915050565b6000808354600180821660008114613bd65760018114613bed57613c1c565b60ff198316865260028304607f1686019350613c1c565b600283048786526020808720875b83811015613c145781548a820152908501908201613bfb565b505050860193505b509195945050505050565b6001600160a01b0391909116815260200190565b6001600160a01b039384168152919092166020820152604081019190915260600190565b6001600160a01b0396871681529486166020860152928516604085015260608401919091528316608083015290911660a082015260c00190565b6001600160a01b039b8c168152998b1660208b0152978a1660408a01526060890196909652608088019490945260a087019290925260c086015260e0850152841661010084015283166101208301529091166101408201526101600190565b6001600160a01b0397881681529590961660208601526040850193909352606084019190915260ff16608083015260a082015260c081019190915260e00190565b6001600160a01b039290921682521515602082015260400190565b6001600160a01b03929092168252602082015260400190565b6001600160a01b039490941684526001600160401b039283166020850152911660408301521515606082015260800190565b604080825283519082018190526000906020906060840190828701845b82811015613dda578151151584529284019290840190600101613dbc565b50505083810382850152808551613df18184613ea4565b91508192508381028201848801865b83811015613e2a578583038552613e18838351613b5f565b94870194925090860190600101613e00565b50909998505050505050505050565b6000602080830181845280855180835260408601915060408482028701019250838701855b82811015613e8c57603f19888603018452613e7a858351613b5f565b94509285019290850190600101613e5e565b5092979650505050505050565b901515815260200190565b90815260200190565b600060208252611bf96020830184613b5f565b60006020825282602083015282846040840137818301604090810191909152601f909201601f19160101919050565b600060408252613f026040830185613b5f565b90508260208301529392505050565b60006020808301818452828554600180821660008114613f385760018114613f5657613f8e565b60028304607f16855260ff1983166040890152606088019350613f8e565b60028304808652613f668a614c16565b885b82811015613f845781548b820160400152908401908801613f68565b8a01604001955050505b5091979650505050505050565b602080825260159082015274426f72696e674d6174683a20556e646572666c6f7760581b604082015260600190565b602080825260139082015272105b1c9958591e481a5b9a5d1a585b1a5cd959606a1b604082015260600190565b60208082526022908201527f456e756d657261626c655365743a20696e646578206f7574206f6620626f756e604082015261647360f01b606082015260800190565b6020808252602f908201527f416363657373436f6e74726f6c3a2073656e646572206d75737420626520616e60408201526e0818591b5a5b881d1bc819dc985b9d608a1b606082015260800190565b6020808252602c908201527f43726f776473616c653a2073746172742074696d65206973206265666f72652060408201526b63757272656e742074696d6560a01b606082015260800190565b60208082526052908201527f4e6f2061677265656d656e742070726f76696465642c20706c6561736520726560408201527f766965772074686520736d61727420636f6e7472616374206265666f726520696060820152711b9d195c9858dd1a5b99c81dda5d1a081a5d60721b608082015260a00190565b6020808252602c908201527f43726f776473616c653a2073746172742074696d65206973206e6f742062656660408201526b6f726520656e642074696d6560a01b606082015260800190565b60208082526030908201527f43726f776453616c653a2054686520636f6d6d6974746564204554482065786360408201526f65656473207468652062616c616e636560801b606082015260800190565b602080825260159082015274111bd8dd5b595b9d081cda1bdd5b1908195e1a5cdd605a1b604082015260600190565b6020808252602e908201527f43726f776473616c653a2061756374696f6e2063616e6e6f742068617665206160408201526d1b1c9958591e481cdd185c9d195960921b606082015260800190565b6020808252601c908201527f43726f776473616c653a20616c72656164792066696e616c697a656400000000604082015260600190565b6020808252601c908201527f426f72696e674d6174683a2075696e74313238204f766572666c6f7700000000604082015260600190565b60208082526030908201527f416363657373436f6e74726f6c3a2073656e646572206d75737420626520616e60408201526f2061646d696e20746f207265766f6b6560801b606082015260800190565b6020808252603d908201527f43726f776473616c653a20676f616c2073686f756c6420626520657175616c2060408201527f746f206f72206c6f776572207468616e20746f74616c20746f6b656e73000000606082015260800190565b6020808252600f908201526e139bdd081a5b9a5d1a585b1a5e9959608a1b604082015260600190565b60208082526018908201527f426f72696e674d6174683a20416464204f766572666c6f770000000000000000604082015260600190565b60208082526018908201527f5a65726f206e616d65206973206e6f7420616c6c6f7765640000000000000000604082015260600190565b6020808252600f908201526e125b98dbdc9c9958dd081a5b9c1d5d608a1b604082015260600190565b602080825260149082015273043726f776473616c653a207261746520697320360641b604082015260600190565b60208082526028908201527f43726f776473616c653a205061796d656e742063757272656e6379206973206e60408201526706f742045524332360c41b606082015260800190565b60208082526032908201527f43726f776473616c653a20656e642074696d65206d757374206265206f6c646560408201527172207468616e20737461727420707269636560701b606082015260800190565b6020808252602a908201527f43726f776473616c653a20546f6b656e20646f6573206e6f74206861766520316040820152693820646563696d616c7360b01b606082015260800190565b6020808252601f908201527f43726f776473616c653a2046756e647320616c72656164792072616973656400604082015260600190565b6020808252601f908201527f43726f776453616c653a2041756374696f6e2069732066696e616c697a656400604082015260600190565b60208082526024908201527f43726f776473616c653a2061646d696e20697320746865207a65726f206164646040820152637265737360e01b606082015260800190565b6020808252601b908201527f426f72696e674d6174683a2075696e743634204f766572666c6f770000000000604082015260600190565b6020808252602a908201527f43726f776473616c653a2062656e656669636961727920697320746865207a65604082015269726f206164647265737360b01b606082015260800190565b60208082526026908201527f43726f776473616c653a205061796d656e742063757272656e6379206973206e6040820152650dee8408aa8960d31b606082015260800190565b6020808252601f908201527f43726f776473616c653a20486173206e6f742066696e69736865642079657400604082015260600190565b60208082526023908201527f5472616e7366657248656c7065723a204554485f5452414e534645525f46414960408201526213115160ea1b606082015260800190565b6020808252818101527f43726f776473616c653a206f7574736964652061756374696f6e20686f757273604082015260600190565b60208082526027908201527f43726f776473616c653a2061756374696f6e20686173206e6f742066696e69736040820152661a1959081e595d60ca1b606082015260800190565b60208082526018908201527f43726f776473616c653a206e6f742066696e616c697a65640000000000000000604082015260600190565b6020808252602a908201527f43726f776473616c653a206d696e696d756d20746172676574206578636565646040820152690732068617264206361760b41b606082015260800190565b602080825260139082015272496e646578206f7574206f6620626f756e647360681b604082015260600190565b6020808252601c908201527f43726f776473616c653a20746f74616c20746f6b656e73206973203000000000604082015260600190565b60208082526025908201527f43726f776473616c653a2077616c6c657420697320746865207a65726f206164604082015264647265737360d81b606082015260800190565b6020808252601a908201527f53686f756c64206e6f74206265206120656d7074792064617461000000000000604082015260600190565b6020808252603e908201527f43726f776473616c653a20656e74657220616e20756e69782074696d6573746160408201527f6d7020696e207365636f6e64732c206e6f74206d696c697365636f6e64730000606082015260800190565b6020808252601d908201527f43726f776473616c653a206e6f20746f6b656e7320746f20636c61696d000000604082015260600190565b6020808252601f908201527f5265656e7472616e637947756172643a207265656e7472616e742063616c6c00604082015260600190565b60208082526018908201527f426f72696e674d6174683a204d756c204f766572666c6f770000000000000000604082015260600190565b60208082526022908201527f43726f776473616c653a2073656e646572206d75737420626520616e2061646d60408201526134b760f11b606082015260800190565b602080825260149082015273043726f776473616c653a20676f616c20697320360641b604082015260600190565b6020808252602f908201527f416363657373436f6e74726f6c3a2063616e206f6e6c792072656e6f756e636560408201526e103937b632b9903337b91039b2b63360891b606082015260800190565b6020808252602a908201527f43726f776473616c653a205061796d656e742063757272656e6379206973206e60408201526937ba1030903a37b5b2b760b11b606082015260800190565b602080825260149082015273426f72696e674d6174683a20446976207a65726f60601b604082015260600190565b6001600160801b0393909316835290151560208301521515604082015260600190565b6001600160801b0392831681529116602082015260400190565b918252602082015260400190565b6001600160401b0393841681529190921660208201526001600160801b03909116604082015260600190565b6000808335601e19843603018112614be8578283fd5b8301803591506001600160401b03821115614c01578283fd5b6020019150368190038213156119fc57600080fd5b60009081526020902090565b60005b83811015614c3d578181015183820152602001614c25565b83811115611ce25750506000910152565b6001600160a01b038116811461116e57600080fd5b801515811461116e57600080fd5b60ff8116811461116e57600080fdfe9d49f397ae9ef1a834b569acb967799a367061e305932181a44f5773da873bfd97667070c54ef182b0f5858b034beac1b6f3089aa2d3188bb1e8929f4fa9b9299f2df0fed2c77648de5860a4cc508cd0818c85b8b8a1ab4ceeef8d981c8956a64920756e6465727374616e642074686174204920616d20696e746572616374696e672077697468206120736d61727420636f6e74726163742e204920756e6465727374616e64207468617420746f6b656e7320636f6d6d6974656420617265207375626a65637420746f2074686520746f6b656e2069737375657220616e64206c6f63616c206c617773207768657265206170706c696361626c652e204920726576696577656420636f6465206f662074686520736d61727420636f6e747261637420616e6420756e6465727374616e642069742066756c6c792e204920616772656520746f206e6f7420686f6c6420646576656c6f70657273206f72206f746865722070656f706c65206173736f6369617465642077697468207468652070726f6a656374206c6961626c6520666f7220616e79206c6f73736573206f72206d6973756e6465727374616e64696e6773a26469706673582212209af9172f55f96a8f5985e74ee7db05ca56a9a07cd586002639f07d1ac881349a64736f6c634300060c0033",
  "devdoc": {
    "kind": "dev",
    "methods": {
      "addAdminRole(address)": {
        "details": "The sender must have the admin role.",
        "params": {
          "_address": "EOA or contract receiving the new role."
        }
      },
      "addMinterRole(address)": {
        "details": "The sender must have the admin role",
        "params": {
          "_address": "EOA or contract receiving the new role"
        }
      },
      "addOperatorRole(address)": {
        "details": "The sender must have the admin role",
        "params": {
          "_address": "EOA or contract receiving the new role"
        }
      },
      "addSmartContractRole(address)": {
        "details": "The sender must have the admin role",
        "params": {
          "_address": "EOA or contract receiving the new role"
        }
      },
      "auctionEnded()": {
        "returns": {
          "_0": "auctionEnded True if sold out or time has ended."
        }
      },
      "auctionSuccessful()": {
        "returns": {
          "_0": "auctionSuccessful True if the commitmentsTotal is equal or higher than goal."
        }
      },
      "batch(bytes[],bool)": {
        "params": {
          "calls": "An array of inputs for each call.",
          "revertOnFail": "If True then reverts after a failed call and stops doing further calls."
        },
        "returns": {
          "results": "An array with the returned data of each function call, mapped one-to-one to `calls`.",
          "successes": "An array indicating the success of a call, mapped one-to-one to `calls`."
        }
      },
      "calculateCommitment(uint256)": {
        "params": {
          "_commitment": "Number of tokens to be commited."
        },
        "returns": {
          "committed": "The amount able to be purchased during a sale."
        }
      },
      "cancelAuction()": {
        "details": "Admin can cancel the auction before it starts"
      },
      "commitEth(address,bool)": {
        "details": "low level token purchase with ETH ***DO NOT OVERRIDE*** This function has a non-reentrancy guard, so it should not be called by another `nonReentrant` function.",
        "params": {
          "_beneficiary": "Recipient of the token purchase."
        }
      },
      "commitTokens(uint256,bool)": {
        "params": {
          "_amount": "Amount of tokens to commit."
        }
      },
      "commitTokensFrom(address,uint256,bool)": {
        "details": "Users must approve contract prior to committing tokens to auction.",
        "params": {
          "_amount": "Amount of approved ERC20 tokens.",
          "_from": "User ERC20 address."
        }
      },
      "finalize()": {
        "details": "Must be called after crowdsale ends, to do some extra finalization work. Calls the contracts finalization function."
      },
      "finalizeTimeExpired()": {
        "returns": {
          "_0": "True if 7 days have passed since the end of the auction"
        }
      },
      "finalized()": {
        "returns": {
          "_0": "bool True if sale has been finalised."
        }
      },
      "getAllDocuments()": {
        "returns": {
          "_0": "string List of all documents names present in the contract."
        }
      },
      "getCrowdsaleInitData(address,address,address,uint256,uint256,uint256,uint256,uint256,address,address,address)": {
        "params": {
          "_admin": "Address that can finalize crowdsale.",
          "_endTime": "Crowdsale end time.",
          "_funder": "The address that funds the token for crowdsale.",
          "_goal": "Minimum amount of funds to be raised in weis or tokens.",
          "_paymentCurrency": "The currency the crowdsale accepts for payment. Can be ETH or token address.",
          "_pointList": "Address that will manage auction approvals.",
          "_rate": "Number of token units a buyer gets per wei or token.",
          "_startTime": "Crowdsale start time.",
          "_token": "Address of the token being sold.",
          "_totalTokens": "The total number of tokens to sell in crowdsale.",
          "_wallet": "Address where collected funds will be forwarded to."
        },
        "returns": {
          "_data": "All the data in bytes format."
        }
      },
      "getDocument(string)": {
        "params": {
          "_name": "Name of the document"
        },
        "returns": {
          "_0": "string The data associated with the document.",
          "_1": "uint256 the timestamp at which the document was last modified."
        }
      },
      "getDocumentCount()": {
        "returns": {
          "_0": "uint256 Count of the document names present in the contract."
        }
      },
      "getDocumentName(uint256)": {
        "returns": {
          "_0": "string Name of the document name."
        }
      },
      "getRoleAdmin(bytes32)": {
        "details": "Returns the admin role that controls `role`. See {grantRole} and {revokeRole}. To change a role's admin, use {_setRoleAdmin}."
      },
      "getRoleMember(bytes32,uint256)": {
        "details": "Returns one of the accounts that have `role`. `index` must be a value between 0 and {getRoleMemberCount}, non-inclusive. Role bearers are not sorted in any particular way, and their ordering may change at any point. WARNING: When using {getRoleMember} and {getRoleMemberCount}, make sure you perform all queries on the same block. See the following https://forum.openzeppelin.com/t/iterating-over-elements-on-enumerableset-in-openzeppelin-contracts/2296[forum post] for more information."
      },
      "getRoleMemberCount(bytes32)": {
        "details": "Returns the number of accounts that have `role`. Can be used together with {getRoleMember} to enumerate all bearers of a role."
      },
      "grantRole(bytes32,address)": {
        "details": "Grants `role` to `account`. If `account` had not been already granted `role`, emits a {RoleGranted} event. Requirements: - the caller must have ``role``'s admin role."
      },
      "hasAdminRole(address)": {
        "params": {
          "_address": "EOA or contract being checked."
        },
        "returns": {
          "_0": "bool True if the account has the role or false if it does not."
        }
      },
      "hasMinterRole(address)": {
        "params": {
          "_address": "EOA or contract being checked"
        },
        "returns": {
          "_0": "bool True if the account has the role or false if it does not"
        }
      },
      "hasOperatorRole(address)": {
        "params": {
          "_address": "EOA or contract being checked"
        },
        "returns": {
          "_0": "bool True if the account has the role or false if it does not"
        }
      },
      "hasRole(bytes32,address)": {
        "details": "Returns `true` if `account` has been granted `role`."
      },
      "hasSmartContractRole(address)": {
        "params": {
          "_address": "EOA or contract being checked"
        },
        "returns": {
          "_0": "bool True if the account has the role or false if it does not"
        }
      },
      "initAccessControls(address)": {
        "params": {
          "_admin": "Admins address."
        }
      },
      "initCrowdsale(address,address,address,uint256,uint256,uint256,uint256,uint256,address,address,address)": {
        "details": "Init function.",
        "params": {
          "_admin": "Address that can finalize auction.",
          "_endTime": "Crowdsale end time.",
          "_funder": "The address that funds the token for crowdsale.",
          "_goal": "Minimum amount of funds to be raised in weis or tokens.",
          "_paymentCurrency": "The currency the crowdsale accepts for payment. Can be ETH or token address.",
          "_pointList": "Address that will manage auction approvals.",
          "_rate": "Number of token units a buyer gets per wei or token.",
          "_startTime": "Crowdsale start time.",
          "_token": "Address of the token being sold.",
          "_totalTokens": "The total number of tokens to sell in crowdsale.",
          "_wallet": "Address where collected funds will be forwarded to."
        }
      },
      "initMarket(bytes)": {
        "params": {
          "_data": "Encoded data for initialization."
        }
      },
      "isOpen()": {
        "returns": {
          "_0": "isOpen True if the crowdsale is open, false otherwise."
        }
      },
      "marketParticipationAgreement()": {
        "details": "Attribution to the awesome delta.financial contracts"
      },
      "removeAdminRole(address)": {
        "details": "The sender must have the admin role.",
        "params": {
          "_address": "EOA or contract affected."
        }
      },
      "removeMinterRole(address)": {
        "details": "The sender must have the admin role",
        "params": {
          "_address": "EOA or contract affected"
        }
      },
      "removeOperatorRole(address)": {
        "details": "The sender must have the admin role",
        "params": {
          "_address": "EOA or contract affected"
        }
      },
      "removeSmartContractRole(address)": {
        "details": "The sender must have the admin role",
        "params": {
          "_address": "EOA or contract affected"
        }
      },
      "renounceRole(bytes32,address)": {
        "details": "Revokes `role` from the calling account. Roles are often managed via {grantRole} and {revokeRole}: this function's purpose is to provide a mechanism for accounts to lose their privileges if they are compromised (such as when a trusted device is misplaced). If the calling account had been granted `role`, emits a {RoleRevoked} event. Requirements: - the caller must be `account`."
      },
      "revokeRole(bytes32,address)": {
        "details": "Revokes `role` from `account`. If `account` had been granted `role`, emits a {RoleRevoked} event. Requirements: - the caller must have ``role``'s admin role."
      },
      "setAuctionPrice(uint256,uint256)": {
        "params": {
          "_goal": "Minimum amount raised and goal for the auction.",
          "_rate": "Price per token."
        }
      },
      "setAuctionTime(uint256,uint256)": {
        "params": {
          "_endTime": "Auction end time.",
          "_startTime": "Auction start time."
        }
      },
      "setAuctionWallet(address)": {
        "params": {
          "_wallet": "Auction wallet is where funds will be sent."
        }
      },
      "tokensClaimable(address)": {
        "returns": {
          "claimerCommitment": "How many tokens the user is able to claim."
        }
      },
      "withdrawTokens(address)": {
        "details": "Withdraw tokens only after crowdsale ends.",
        "params": {
          "beneficiary": "Whose tokens will be withdrawn."
        }
      }
    },
    "stateVariables": {
      "marketTemplate": {
        "details": "For different marketplace types, this must be incremented."
      }
    },
    "version": 1
  },
  "userdoc": {
    "events": {
      "AddedCommitment(address,uint256)": {
        "notice": "Event for adding a commitment."
      },
      "AuctionCancelled()": {
        "notice": "Event for cancellation of the auction."
      },
      "AuctionDeployed(address,address,address,uint256,address,address)": {
        "notice": "Event for all auction data. Emmited on deployment."
      },
      "AuctionFinalized()": {
        "notice": "Event for finalization of the crowdsale"
      },
      "AuctionPointListUpdated(address,bool)": {
        "notice": "Event for updating the point list."
      },
      "AuctionPriceUpdated(uint256,uint256)": {
        "notice": "Event for updating auction prices. Needs to be before auction starts."
      },
      "AuctionTimeUpdated(uint256,uint256)": {
        "notice": "Event for updating auction times.  Needs to be before auction starts."
      },
      "AuctionWalletUpdated(address)": {
        "notice": "Event for updating auction wallet. Needs to be before auction starts."
      },
      "TokensWithdrawn(address,address,uint256)": {
        "notice": "Event for token withdrawals."
      }
    },
    "kind": "user",
    "methods": {
      "MINTER_ROLE()": {
        "notice": "Role definitions"
      },
      "addAdminRole(address)": {
        "notice": "Grants the admin role to an address."
      },
      "addMinterRole(address)": {
        "notice": "Grants the minter role to an address"
      },
      "addOperatorRole(address)": {
        "notice": "Grants the operator role to an address"
      },
      "addSmartContractRole(address)": {
        "notice": "Grants the smart contract role to an address"
      },
      "auctionEnded()": {
        "notice": "Checks if the sale has ended."
      },
      "auctionSuccessful()": {
        "notice": "Checks if the sale minimum amount was raised."
      },
      "auctionToken()": {
        "notice": "The token being sold."
      },
      "batch(bytes[],bool)": {
        "notice": "Allows batched call to self (this contract)."
      },
      "calculateCommitment(uint256)": {
        "notice": "Checks if the commitment does not exceed the goal of this sale."
      },
      "cancelAuction()": {
        "notice": "Cancel Auction"
      },
      "claimed(address)": {
        "notice": "Amount of tokens to claim per address."
      },
      "commitEth(address,bool)": {
        "notice": "Checks the amount of ETH to commit and adds the commitment. Refunds the buyer if commit is too high."
      },
      "commitTokens(uint256,bool)": {
        "notice": "Buy Tokens by commiting approved ERC20 tokens to this contract address."
      },
      "commitTokensFrom(address,uint256,bool)": {
        "notice": "Checks how much is user able to commit and processes that commitment."
      },
      "commitments(address)": {
        "notice": "The commited amount of accounts."
      },
      "finalize()": {
        "notice": "Manually finalizes the Crowdsale."
      },
      "finalized()": {
        "notice": "Checks if the sale has been finalised."
      },
      "getAllDocuments()": {
        "notice": "Used to retrieve a full list of documents attached to the smart contract."
      },
      "getCrowdsaleInitData(address,address,address,uint256,uint256,uint256,uint256,uint256,address,address,address)": {
        "notice": "Collects data to initialize the crowd sale."
      },
      "getDocument(string)": {
        "notice": "Used to return the details of a document with a known name (`string`)."
      },
      "getDocumentCount()": {
        "notice": "Used to retrieve the total documents in the smart contract."
      },
      "getDocumentName(uint256)": {
        "notice": "Used to retrieve the document name from index in the smart contract."
      },
      "hasAdminRole(address)": {
        "notice": "Used to check whether an address has the admin role."
      },
      "hasMinterRole(address)": {
        "notice": "Used to check whether an address has the minter role"
      },
      "hasOperatorRole(address)": {
        "notice": "Used to check whether an address has the operator role"
      },
      "hasSmartContractRole(address)": {
        "notice": "Used to check whether an address has the smart contract role"
      },
      "initAccessControls(address)": {
        "notice": "Initializes access controls."
      },
      "initCrowdsale(address,address,address,uint256,uint256,uint256,uint256,uint256,address,address,address)": {
        "notice": "Initializes main contract variables and transfers funds for the sale."
      },
      "initMarket(bytes)": {
        "notice": "Decodes and hands Crowdsale data to the initCrowdsale function."
      },
      "isOpen()": {
        "notice": "Checks if the sale is open."
      },
      "marketTemplate()": {
        "notice": "MISOMarket template id for the factory contract."
      },
      "paymentCurrency()": {
        "notice": "The currency the crowdsale accepts for payment. Can be ETH or token address."
      },
      "permitToken(address,address,address,uint256,uint256,uint8,bytes32,bytes32)": {
        "notice": "Call wrapper that performs `ERC20.permit` on `token`. Lookup `IERC20.permit`."
      },
      "pointList()": {
        "notice": "Address that manages auction approvals."
      },
      "removeAdminRole(address)": {
        "notice": "Removes the admin role from an address."
      },
      "removeMinterRole(address)": {
        "notice": "Removes the minter role from an address"
      },
      "removeOperatorRole(address)": {
        "notice": "Removes the operator role from an address"
      },
      "removeSmartContractRole(address)": {
        "notice": "Removes the smart contract role from an address"
      },
      "setAuctionPrice(uint256,uint256)": {
        "notice": "Admin can set auction price through this function."
      },
      "setAuctionTime(uint256,uint256)": {
        "notice": "Admin can set start and end time through this function."
      },
      "setAuctionWallet(address)": {
        "notice": "Admin can set the auction wallet through this function."
      },
      "tokensClaimable(address)": {
        "notice": "Adjusts users commitment depending on amount already claimed and unclaimed tokens left."
      },
      "wallet()": {
        "notice": "Address where funds are collected."
      },
      "withdrawTokens(address)": {
        "notice": "Withdraws bought tokens, or returns commitment if the sale is unsuccessful."
      }
    },
    "version": 1
  },
  "storageLayout": {
    "storage": [
      {
        "astId": 17183,
        "contract": "contracts/Auctions/Crowdsale.sol:Crowdsale",
        "label": "_roles",
        "offset": 0,
        "slot": "0",
        "type": "t_mapping(t_bytes32,t_struct(RoleData)17179_storage)"
      },
      {
        "astId": 808,
        "contract": "contracts/Auctions/Crowdsale.sol:Crowdsale",
        "label": "initAccess",
        "offset": 0,
        "slot": "1",
        "type": "t_bool"
      },
      {
        "astId": 25991,
        "contract": "contracts/Auctions/Crowdsale.sol:Crowdsale",
        "label": "_documents",
        "offset": 0,
        "slot": "2",
        "type": "t_mapping(t_string_memory_ptr,t_struct(Document)25987_storage)"
      },
      {
        "astId": 25995,
        "contract": "contracts/Auctions/Crowdsale.sol:Crowdsale",
        "label": "_docIndexes",
        "offset": 0,
        "slot": "3",
        "type": "t_mapping(t_string_memory_ptr,t_uint32)"
      },
      {
        "astId": 25998,
        "contract": "contracts/Auctions/Crowdsale.sol:Crowdsale",
        "label": "_docNames",
        "offset": 0,
        "slot": "4",
        "type": "t_array(t_string_storage)dyn_storage"
      },
      {
        "astId": 19192,
        "contract": "contracts/Auctions/Crowdsale.sol:Crowdsale",
        "label": "_status",
        "offset": 0,
        "slot": "5",
        "type": "t_uint256"
      },
      {
        "astId": 2712,
        "contract": "contracts/Auctions/Crowdsale.sol:Crowdsale",
        "label": "marketPrice",
        "offset": 0,
        "slot": "6",
        "type": "t_struct(MarketPrice)2710_storage"
      },
      {
        "astId": 2721,
        "contract": "contracts/Auctions/Crowdsale.sol:Crowdsale",
        "label": "marketInfo",
        "offset": 0,
        "slot": "7",
        "type": "t_struct(MarketInfo)2719_storage"
      },
      {
        "astId": 2730,
        "contract": "contracts/Auctions/Crowdsale.sol:Crowdsale",
        "label": "marketStatus",
        "offset": 0,
        "slot": "8",
        "type": "t_struct(MarketStatus)2728_storage"
      },
      {
        "astId": 2733,
        "contract": "contracts/Auctions/Crowdsale.sol:Crowdsale",
        "label": "auctionToken",
        "offset": 0,
        "slot": "9",
        "type": "t_address"
      },
      {
        "astId": 2736,
        "contract": "contracts/Auctions/Crowdsale.sol:Crowdsale",
        "label": "wallet",
        "offset": 0,
        "slot": "10",
        "type": "t_address_payable"
      },
      {
        "astId": 2739,
        "contract": "contracts/Auctions/Crowdsale.sol:Crowdsale",
        "label": "paymentCurrency",
        "offset": 0,
        "slot": "11",
        "type": "t_address"
      },
      {
        "astId": 2742,
        "contract": "contracts/Auctions/Crowdsale.sol:Crowdsale",
        "label": "pointList",
        "offset": 0,
        "slot": "12",
        "type": "t_address"
      },
      {
        "astId": 2747,
        "contract": "contracts/Auctions/Crowdsale.sol:Crowdsale",
        "label": "commitments",
        "offset": 0,
        "slot": "13",
        "type": "t_mapping(t_address,t_uint256)"
      },
      {
        "astId": 2752,
        "contract": "contracts/Auctions/Crowdsale.sol:Crowdsale",
        "label": "claimed",
        "offset": 0,
        "slot": "14",
        "type": "t_mapping(t_address,t_uint256)"
      }
    ],
    "types": {
      "t_address": {
        "encoding": "inplace",
        "label": "address",
        "numberOfBytes": "20"
      },
      "t_address_payable": {
        "encoding": "inplace",
        "label": "address payable",
        "numberOfBytes": "20"
      },
      "t_array(t_bytes32)dyn_storage": {
        "base": "t_bytes32",
        "encoding": "dynamic_array",
        "label": "bytes32[]",
        "numberOfBytes": "32"
      },
      "t_array(t_string_storage)dyn_storage": {
        "base": "t_string_storage",
        "encoding": "dynamic_array",
        "label": "string[]",
        "numberOfBytes": "32"
      },
      "t_bool": {
        "encoding": "inplace",
        "label": "bool",
        "numberOfBytes": "1"
      },
      "t_bytes32": {
        "encoding": "inplace",
        "label": "bytes32",
        "numberOfBytes": "32"
      },
      "t_mapping(t_address,t_uint256)": {
        "encoding": "mapping",
        "key": "t_address",
        "label": "mapping(address => uint256)",
        "numberOfBytes": "32",
        "value": "t_uint256"
      },
      "t_mapping(t_bytes32,t_struct(RoleData)17179_storage)": {
        "encoding": "mapping",
        "key": "t_bytes32",
        "label": "mapping(bytes32 => struct AccessControl.RoleData)",
        "numberOfBytes": "32",
        "value": "t_struct(RoleData)17179_storage"
      },
      "t_mapping(t_bytes32,t_uint256)": {
        "encoding": "mapping",
        "key": "t_bytes32",
        "label": "mapping(bytes32 => uint256)",
        "numberOfBytes": "32",
        "value": "t_uint256"
      },
      "t_mapping(t_string_memory_ptr,t_struct(Document)25987_storage)": {
        "encoding": "mapping",
        "key": "t_string_memory_ptr",
        "label": "mapping(string => struct Documents.Document)",
        "numberOfBytes": "32",
        "value": "t_struct(Document)25987_storage"
      },
      "t_mapping(t_string_memory_ptr,t_uint32)": {
        "encoding": "mapping",
        "key": "t_string_memory_ptr",
        "label": "mapping(string => uint32)",
        "numberOfBytes": "32",
        "value": "t_uint32"
      },
      "t_string_memory_ptr": {
        "encoding": "bytes",
        "label": "string",
        "numberOfBytes": "32"
      },
      "t_string_storage": {
        "encoding": "bytes",
        "label": "string",
        "numberOfBytes": "32"
      },
      "t_struct(AddressSet)18873_storage": {
        "encoding": "inplace",
        "label": "struct EnumerableSet.AddressSet",
        "members": [
          {
            "astId": 18872,
            "contract": "contracts/Auctions/Crowdsale.sol:Crowdsale",
            "label": "_inner",
            "offset": 0,
            "slot": "0",
            "type": "t_struct(Set)18608_storage"
          }
        ],
        "numberOfBytes": "64"
      },
      "t_struct(Document)25987_storage": {
        "encoding": "inplace",
        "label": "struct Documents.Document",
        "members": [
          {
            "astId": 25982,
            "contract": "contracts/Auctions/Crowdsale.sol:Crowdsale",
            "label": "docIndex",
            "offset": 0,
            "slot": "0",
            "type": "t_uint32"
          },
          {
            "astId": 25984,
            "contract": "contracts/Auctions/Crowdsale.sol:Crowdsale",
            "label": "lastModified",
            "offset": 4,
            "slot": "0",
            "type": "t_uint64"
          },
          {
            "astId": 25986,
            "contract": "contracts/Auctions/Crowdsale.sol:Crowdsale",
            "label": "data",
            "offset": 0,
            "slot": "1",
            "type": "t_string_storage"
          }
        ],
        "numberOfBytes": "64"
      },
      "t_struct(MarketInfo)2719_storage": {
        "encoding": "inplace",
        "label": "struct Crowdsale.MarketInfo",
        "members": [
          {
            "astId": 2714,
            "contract": "contracts/Auctions/Crowdsale.sol:Crowdsale",
            "label": "startTime",
            "offset": 0,
            "slot": "0",
            "type": "t_uint64"
          },
          {
            "astId": 2716,
            "contract": "contracts/Auctions/Crowdsale.sol:Crowdsale",
            "label": "endTime",
            "offset": 8,
            "slot": "0",
            "type": "t_uint64"
          },
          {
            "astId": 2718,
            "contract": "contracts/Auctions/Crowdsale.sol:Crowdsale",
            "label": "totalTokens",
            "offset": 16,
            "slot": "0",
            "type": "t_uint128"
          }
        ],
        "numberOfBytes": "32"
      },
      "t_struct(MarketPrice)2710_storage": {
        "encoding": "inplace",
        "label": "struct Crowdsale.MarketPrice",
        "members": [
          {
            "astId": 2707,
            "contract": "contracts/Auctions/Crowdsale.sol:Crowdsale",
            "label": "rate",
            "offset": 0,
            "slot": "0",
            "type": "t_uint128"
          },
          {
            "astId": 2709,
            "contract": "contracts/Auctions/Crowdsale.sol:Crowdsale",
            "label": "goal",
            "offset": 16,
            "slot": "0",
            "type": "t_uint128"
          }
        ],
        "numberOfBytes": "32"
      },
      "t_struct(MarketStatus)2728_storage": {
        "encoding": "inplace",
        "label": "struct Crowdsale.MarketStatus",
        "members": [
          {
            "astId": 2723,
            "contract": "contracts/Auctions/Crowdsale.sol:Crowdsale",
            "label": "commitmentsTotal",
            "offset": 0,
            "slot": "0",
            "type": "t_uint128"
          },
          {
            "astId": 2725,
            "contract": "contracts/Auctions/Crowdsale.sol:Crowdsale",
            "label": "finalized",
            "offset": 16,
            "slot": "0",
            "type": "t_bool"
          },
          {
            "astId": 2727,
            "contract": "contracts/Auctions/Crowdsale.sol:Crowdsale",
            "label": "usePointList",
            "offset": 17,
            "slot": "0",
            "type": "t_bool"
          }
        ],
        "numberOfBytes": "32"
      },
      "t_struct(RoleData)17179_storage": {
        "encoding": "inplace",
        "label": "struct AccessControl.RoleData",
        "members": [
          {
            "astId": 17176,
            "contract": "contracts/Auctions/Crowdsale.sol:Crowdsale",
            "label": "members",
            "offset": 0,
            "slot": "0",
            "type": "t_struct(AddressSet)18873_storage"
          },
          {
            "astId": 17178,
            "contract": "contracts/Auctions/Crowdsale.sol:Crowdsale",
            "label": "adminRole",
            "offset": 0,
            "slot": "2",
            "type": "t_bytes32"
          }
        ],
        "numberOfBytes": "96"
      },
      "t_struct(Set)18608_storage": {
        "encoding": "inplace",
        "label": "struct EnumerableSet.Set",
        "members": [
          {
            "astId": 18603,
            "contract": "contracts/Auctions/Crowdsale.sol:Crowdsale",
            "label": "_values",
            "offset": 0,
            "slot": "0",
            "type": "t_array(t_bytes32)dyn_storage"
          },
          {
            "astId": 18607,
            "contract": "contracts/Auctions/Crowdsale.sol:Crowdsale",
            "label": "_indexes",
            "offset": 0,
            "slot": "1",
            "type": "t_mapping(t_bytes32,t_uint256)"
          }
        ],
        "numberOfBytes": "64"
      },
      "t_uint128": {
        "encoding": "inplace",
        "label": "uint128",
        "numberOfBytes": "16"
      },
      "t_uint256": {
        "encoding": "inplace",
        "label": "uint256",
        "numberOfBytes": "32"
      },
      "t_uint32": {
        "encoding": "inplace",
        "label": "uint32",
        "numberOfBytes": "4"
      },
      "t_uint64": {
        "encoding": "inplace",
        "label": "uint64",
        "numberOfBytes": "8"
      }
    }
  }
}