{
  "address": "0x3e603C14aF37EBdaD31709C4f848Fc6aD5BEc715",
  "abi": [
    {
      "inputs": [],
      "stateMutability": "nonpayable",
      "type": "constructor"
    },
    {
      "anonymous": false,
      "inputs": [
        {
          "indexed": false,
          "internalType": "address",
          "name": "newAuction",
          "type": "address"
        },
        {
          "indexed": false,
          "internalType": "uint256",
          "name": "templateId",
          "type": "uint256"
        }
      ],
      "name": "AuctionTemplateAdded",
      "type": "event"
    },
    {
      "anonymous": false,
      "inputs": [
        {
          "indexed": false,
          "internalType": "address",
          "name": "auction",
          "type": "address"
        },
        {
          "indexed": false,
          "internalType": "uint256",
          "name": "templateId",
          "type": "uint256"
        }
      ],
      "name": "AuctionTemplateRemoved",
      "type": "event"
    },
    {
      "anonymous": false,
      "inputs": [
        {
          "indexed": true,
          "internalType": "address",
          "name": "owner",
          "type": "address"
        },
        {
          "indexed": true,
          "internalType": "address",
          "name": "addr",
          "type": "address"
        },
        {
          "indexed": false,
          "internalType": "address",
          "name": "marketTemplate",
          "type": "address"
        }
      ],
      "name": "MarketCreated",
      "type": "event"
    },
    {
      "anonymous": false,
      "inputs": [
        {
          "indexed": false,
          "internalType": "address",
          "name": "sender",
          "type": "address"
        }
      ],
      "name": "MisoInitMarket",
      "type": "event"
    },
    {
      "anonymous": false,
      "inputs": [
        {
          "indexed": false,
          "internalType": "address",
          "name": "token",
          "type": "address"
        },
        {
          "indexed": false,
          "internalType": "address",
          "name": "to",
          "type": "address"
        },
        {
          "indexed": false,
          "internalType": "uint256",
          "name": "amount",
          "type": "uint256"
        }
      ],
      "name": "TokensWithdrawn",
      "type": "event"
    },
    {
      "inputs": [],
      "name": "MARKET_MINTER_ROLE",
      "outputs": [
        {
          "internalType": "bytes32",
          "name": "",
          "type": "bytes32"
        }
      ],
      "stateMutability": "view",
      "type": "function"
    },
    {
      "inputs": [],
      "name": "accessControls",
      "outputs": [
        {
          "internalType": "contract MISOAccessControls",
          "name": "",
          "type": "address"
        }
      ],
      "stateMutability": "view",
      "type": "function"
    },
    {
      "inputs": [
        {
          "internalType": "address",
          "name": "_template",
          "type": "address"
        }
      ],
      "name": "addAuctionTemplate",
      "outputs": [],
      "stateMutability": "nonpayable",
      "type": "function"
    },
    {
      "inputs": [
        {
          "internalType": "address",
          "name": "",
          "type": "address"
        }
      ],
      "name": "auctionInfo",
      "outputs": [
        {
          "internalType": "bool",
          "name": "exists",
          "type": "bool"
        },
        {
          "internalType": "uint64",
          "name": "templateId",
          "type": "uint64"
        },
        {
          "internalType": "uint128",
          "name": "index",
          "type": "uint128"
        }
      ],
      "stateMutability": "view",
      "type": "function"
    },
    {
      "inputs": [],
      "name": "auctionTemplateId",
      "outputs": [
        {
          "internalType": "uint256",
          "name": "",
          "type": "uint256"
        }
      ],
      "stateMutability": "view",
      "type": "function"
    },
    {
      "inputs": [
        {
          "internalType": "uint256",
          "name": "",
          "type": "uint256"
        }
      ],
      "name": "auctions",
      "outputs": [
        {
          "internalType": "address",
          "name": "",
          "type": "address"
        }
      ],
      "stateMutability": "view",
      "type": "function"
    },
    {
      "inputs": [],
      "name": "bentoBox",
      "outputs": [
        {
          "internalType": "contract IBentoBoxFactory",
          "name": "",
          "type": "address"
        }
      ],
      "stateMutability": "view",
      "type": "function"
    },
    {
      "inputs": [
        {
          "internalType": "uint256",
          "name": "_templateId",
          "type": "uint256"
        },
        {
          "internalType": "address",
          "name": "_token",
          "type": "address"
        },
        {
          "internalType": "uint256",
          "name": "_tokenSupply",
          "type": "uint256"
        },
        {
          "internalType": "address payable",
          "name": "_integratorFeeAccount",
          "type": "address"
        },
        {
          "internalType": "bytes",
          "name": "_data",
          "type": "bytes"
        }
      ],
      "name": "createMarket",
      "outputs": [
        {
          "internalType": "address",
          "name": "newMarket",
          "type": "address"
        }
      ],
      "stateMutability": "payable",
      "type": "function"
    },
    {
      "inputs": [
        {
          "internalType": "uint256",
          "name": "",
          "type": "uint256"
        }
      ],
      "name": "currentTemplateId",
      "outputs": [
        {
          "internalType": "uint256",
          "name": "",
          "type": "uint256"
        }
      ],
      "stateMutability": "view",
      "type": "function"
    },
    {
      "inputs": [
        {
          "internalType": "uint256",
          "name": "_templateId",
          "type": "uint256"
        },
        {
          "internalType": "address payable",
          "name": "_integratorFeeAccount",
          "type": "address"
        }
      ],
      "name": "deployMarket",
      "outputs": [
        {
          "internalType": "address",
          "name": "newMarket",
          "type": "address"
        }
      ],
      "stateMutability": "payable",
      "type": "function"
    },
    {
      "inputs": [
        {
          "internalType": "uint256",
          "name": "_templateId",
          "type": "uint256"
        }
      ],
      "name": "getAuctionTemplate",
      "outputs": [
        {
          "internalType": "address",
          "name": "",
          "type": "address"
        }
      ],
      "stateMutability": "view",
      "type": "function"
    },
    {
      "inputs": [
        {
          "internalType": "address",
          "name": "_auction",
          "type": "address"
        }
      ],
      "name": "getMarketTemplateId",
      "outputs": [
        {
          "internalType": "uint64",
          "name": "",
          "type": "uint64"
        }
      ],
      "stateMutability": "view",
      "type": "function"
    },
    {
      "inputs": [],
      "name": "getMarkets",
      "outputs": [
        {
          "internalType": "address[]",
          "name": "",
          "type": "address[]"
        }
      ],
      "stateMutability": "view",
      "type": "function"
    },
    {
      "inputs": [
        {
          "internalType": "address",
          "name": "_auctionTemplate",
          "type": "address"
        }
      ],
      "name": "getTemplateId",
      "outputs": [
        {
          "internalType": "uint256",
          "name": "",
          "type": "uint256"
        }
      ],
      "stateMutability": "view",
      "type": "function"
    },
    {
      "inputs": [
        {
          "internalType": "address",
          "name": "_address",
          "type": "address"
        }
      ],
      "name": "hasMarketMinterRole",
      "outputs": [
        {
          "internalType": "bool",
          "name": "",
          "type": "bool"
        }
      ],
      "stateMutability": "view",
      "type": "function"
    },
    {
      "inputs": [
        {
          "internalType": "address",
          "name": "_accessControls",
          "type": "address"
        },
        {
          "internalType": "address",
          "name": "_bentoBox",
          "type": "address"
        },
        {
          "internalType": "address[]",
          "name": "_templates",
          "type": "address[]"
        }
      ],
      "name": "initMISOMarket",
      "outputs": [],
      "stateMutability": "nonpayable",
      "type": "function"
    },
    {
      "inputs": [],
      "name": "locked",
      "outputs": [
        {
          "internalType": "bool",
          "name": "",
          "type": "bool"
        }
      ],
      "stateMutability": "view",
      "type": "function"
    },
    {
      "inputs": [],
      "name": "marketFees",
      "outputs": [
        {
          "internalType": "uint128",
          "name": "minimumFee",
          "type": "uint128"
        },
        {
          "internalType": "uint32",
          "name": "integratorFeePct",
          "type": "uint32"
        }
      ],
      "stateMutability": "view",
      "type": "function"
    },
    {
      "inputs": [],
      "name": "minimumFee",
      "outputs": [
        {
          "internalType": "uint128",
          "name": "",
          "type": "uint128"
        }
      ],
      "stateMutability": "view",
      "type": "function"
    },
    {
      "inputs": [],
      "name": "misoDiv",
      "outputs": [
        {
          "internalType": "address payable",
          "name": "",
          "type": "address"
        }
      ],
      "stateMutability": "view",
      "type": "function"
    },
    {
      "inputs": [],
      "name": "numberOfAuctions",
      "outputs": [
        {
          "internalType": "uint256",
          "name": "",
          "type": "uint256"
        }
      ],
      "stateMutability": "view",
      "type": "function"
    },
    {
      "inputs": [
        {
          "internalType": "uint256",
          "name": "_templateId",
          "type": "uint256"
        }
      ],
      "name": "removeAuctionTemplate",
      "outputs": [],
      "stateMutability": "nonpayable",
      "type": "function"
    },
    {
      "inputs": [
        {
          "internalType": "uint256",
          "name": "_templateType",
          "type": "uint256"
        },
        {
          "internalType": "uint256",
          "name": "_templateId",
          "type": "uint256"
        }
      ],
      "name": "setCurrentTemplateId",
      "outputs": [],
      "stateMutability": "nonpayable",
      "type": "function"
    },
    {
      "inputs": [
        {
          "internalType": "address payable",
          "name": "_divaddr",
          "type": "address"
        }
      ],
      "name": "setDividends",
      "outputs": [],
      "stateMutability": "nonpayable",
      "type": "function"
    },
    {
      "inputs": [
        {
          "internalType": "uint256",
          "name": "_amount",
          "type": "uint256"
        }
      ],
      "name": "setIntegratorFeePct",
      "outputs": [],
      "stateMutability": "nonpayable",
      "type": "function"
    },
    {
      "inputs": [
        {
          "internalType": "bool",
          "name": "_locked",
          "type": "bool"
        }
      ],
      "name": "setLocked",
      "outputs": [],
      "stateMutability": "nonpayable",
      "type": "function"
    },
    {
      "inputs": [
        {
          "internalType": "uint256",
          "name": "_amount",
          "type": "uint256"
        }
      ],
      "name": "setMinimumFee",
      "outputs": [],
      "stateMutability": "nonpayable",
      "type": "function"
    }
  ],
  "transactionHash": "0xf18d17effa499bfa3fe2b1ede85433a21ba204df96f321992ed5bee71488ca8d",
  "args": [],
  "numDeployments": 1,
  "solcInputHash": "f383c588ca82e498010b89fc5071466e",
  "bytecode": "0x608060405234801561001057600080fd5b5061262d806100206000396000f3fe60806040526004361061019c5760003560e01c80636b2ace87116100ec578063aa1bd2f61161008a578063c9907b0811610064578063c9907b08146106ed578063cf30901214610702578063d335ebda14610717578063ec2c90161461074a5761019c565b8063aa1bd2f6146105dd578063b034349314610673578063b9551d14146106c35761019c565b80639e5940cc116100c65780639e5940cc1461050a5780639e9188ea1461053a5780639edbd90a1461056d578063a5fd7565146105aa5761019c565b80636b2ace87146104cb5780636c2eefe1146104e0578063748365ef146104f55761019c565b80632ed4f578116101595780634b939ed7116101335780634b939ed71461044d5780634f5f2a451461047757806350d9d4721461048c578063571a26a0146104a15761019c565b80632ed4f578146103a0578063390467b6146103dc5780633f1f44b0146104235761019c565b80630448e51a146101a1578063182a7506146102065780631a7626e714610232578063211e28b614610263578063274a22581461028f57806328e58e4f14610358575b600080fd5b3480156101ad57600080fd5b506101d4600480360360208110156101c457600080fd5b50356001600160a01b03166107af565b60408051931515845267ffffffffffffffff90921660208401526001600160801b031682820152519081900360600190f35b34801561021257600080fd5b506102306004803603602081101561022957600080fd5b50356107e6565b005b34801561023e57600080fd5b506102476108cd565b604080516001600160801b039092168252519081900360200190f35b34801561026f57600080fd5b506102306004803603602081101561028657600080fd5b503515156108dc565b34801561029b57600080fd5b50610230600480360360608110156102b257600080fd5b6001600160a01b0382358116926020810135909116918101906060810160408201356401000000008111156102e657600080fd5b8201836020820111156102f857600080fd5b8035906020019184602083028401116401000000008311171561031a57600080fd5b9190808060200260200160405190810160405280939291908181526020018383602002808284376000920191909152509295506109b7945050505050565b6103846004803603604081101561036e57600080fd5b50803590602001356001600160a01b0316610b0b565b604080516001600160a01b039092168252519081900360200190f35b3480156103ac57600080fd5b506103ca600480360360208110156103c357600080fd5b5035610fea565b60408051918252519081900360200190f35b3480156103e857600080fd5b5061040f600480360360208110156103ff57600080fd5b50356001600160a01b0316610ffc565b604080519115158252519081900360200190f35b34801561042f57600080fd5b506102306004803603602081101561044657600080fd5b50356110a2565b34801561045957600080fd5b506103846004803603602081101561047057600080fd5b50356111c6565b34801561048357600080fd5b506103ca6111e1565b34801561049857600080fd5b506103ca611205565b3480156104ad57600080fd5b50610384600480360360208110156104c457600080fd5b503561120b565b3480156104d757600080fd5b50610384611232565b3480156104ec57600080fd5b506103ca611241565b34801561050157600080fd5b50610384611247565b34801561051657600080fd5b506102306004803603604081101561052d57600080fd5b5080359060200135611256565b34801561054657600080fd5b506102306004803603602081101561055d57600080fd5b50356001600160a01b031661143c565b34801561057957600080fd5b50610582611529565b604080516001600160801b03909316835263ffffffff90911660208301528051918290030190f35b3480156105b657600080fd5b50610230600480360360208110156105cd57600080fd5b50356001600160a01b0316611547565b610384600480360360a08110156105f357600080fd5b8135916001600160a01b0360208201358116926040830135926060810135909216919081019060a08101608082013564010000000081111561063457600080fd5b82018360208201111561064657600080fd5b8035906020019184600183028401116401000000008311171561066857600080fd5b509092509050611683565b34801561067f57600080fd5b506106a66004803603602081101561069657600080fd5b50356001600160a01b03166117e5565b6040805167ffffffffffffffff9092168252519081900360200190f35b3480156106cf57600080fd5b50610230600480360360208110156106e657600080fd5b503561180f565b3480156106f957600080fd5b50610384611a57565b34801561070e57600080fd5b5061040f611a6b565b34801561072357600080fd5b506103ca6004803603602081101561073a57600080fd5b50356001600160a01b0316611a74565b34801561075657600080fd5b5061075f611a8f565b60408051602080825283518183015283519192839290830191858101910280838360005b8381101561079b578181015183820152602001610783565b505050509050019250505060405180910390f35b60076020526000908152604090205460ff811690610100810467ffffffffffffffff1690600160481b90046001600160801b031683565b6000546040805163c395fcb360e01b815233600482015290516001600160a01b039092169163c395fcb391602480820192602092909190829003018186803b15801561083157600080fd5b505afa158015610845573d6000803e3d6000fd5b505050506040513d602081101561085b57600080fd5b50516108985760405162461bcd60e51b81526004018080602001828103825260238152602001806123c06023913960400191505060405180910390fd5b6108a181611af1565b600880546fffffffffffffffffffffffffffffffff19166001600160801b039290921691909117905550565b6008546001600160801b031690565b6000546040805163c395fcb360e01b815233600482015290516001600160a01b039092169163c395fcb391602480820192602092909190829003018186803b15801561092757600080fd5b505afa15801561093b573d6000803e3d6000fd5b505050506040513d602081101561095157600080fd5b50516109a4576040805162461bcd60e51b815260206004820181905260248201527f4d49534f4d61726b65743a2053656e646572206d7573742062652061646d696e604482015290519081900360640190fd5b6009805460ff1916911515919091179055565b600054600160a01b900460ff16156109ce57600080fd5b6001600160a01b038316610a135760405162461bcd60e51b815260040180806020018281038252603481526020018061247c6034913960400191505060405180910390fd5b6001600160a01b038216610a585760405162461bcd60e51b815260040180806020018281038252602e815260200180612404602e913960400191505060405180910390fd5b600080546001600160a01b038086166001600160a01b031992831617835560038054918616919092161790555b8151811015610ab257610aaa828281518110610a9d57fe5b6020026020010151611b53565b600101610a85565b506009805460ff191660011790556000805460ff60a01b1916600160a01b1790556040805133815290517f9728848f268715c9f5810670481aba9b347f34c21407e902d679356b7617b6b29181900360200190a1505050565b60095460009060ff1615610c58576000546040805163c395fcb360e01b815233600482015290516001600160a01b039092169163c395fcb391602480820192602092909190829003018186803b158015610b6457600080fd5b505afa158015610b78573d6000803e3d6000fd5b505050506040513d6020811015610b8e57600080fd5b505180610c0e57506000546040805163099db01760e01b815233600482015290516001600160a01b039092169163099db01791602480820192602092909190829003018186803b158015610be157600080fd5b505afa158015610bf5573d6000803e3d6000fd5b505050506040513d6020811015610c0b57600080fd5b50515b80610c1d5750610c1d33610ffc565b610c585760405162461bcd60e51b815260040180806020018281038252602b815260200180612597602b913960400191505060405180910390fd5b610c6061237e565b506040805180820182526008546001600160801b038082168352600160801b90910463ffffffff16602080840191909152600087815260049091529290922054815191926001600160a01b039091169116341015610cef5760405162461bcd60e51b81526004018080602001828103825260298152602001806125446029913960400191505060405180910390fd5b6001600160a01b038116610d345760405162461bcd60e51b815260040180806020018281038252602a8152602001806124d5602a913960400191505060405180910390fd5b6000346001600160a01b03861615801590610d6257506009546001600160a01b038781166101009092041614155b15610d85576103e8846020015163ffffffff16820281610d7e57fe5b0491508190035b60035460408051631f54245b60e01b81526001600160a01b03868116600483015260006044830181905260606024840152606483018190529251931692631f54245b9260a480840193602093929083900390910190829087803b158015610deb57600080fd5b505af1158015610dff573d6000803e3d6000fd5b505050506040513d6020811015610e1557600080fd5b505160408051606081019091526001815290955060208101610e3689611d38565b67ffffffffffffffff168152602001610e53600180549050611af1565b6001600160801b039081169091526001600160a01b038088166000818152600760209081526040808320875181548985015199840151909816600160481b0278ffffffffffffffffffffffffffffffff0000000000000000001967ffffffffffffffff909a166101000268ffffffffffffffff001992151560ff19909a16999099179190911697909717979097169590951790955560018054808201825591527fb10e2d527612073b26eecdfd717e6a320cf44b4afac2b0732d9fcbe2b7fa0cf60180546001600160a01b03191682179055825191871682529151919233927fe63e6130091e2155004c4b5ac35e8fb9be704d6637ff3068a8f710ba36c9f41a9281900390910190a38015610fa2576009546040516101009091046001600160a01b0316906108fc8315029083906000818181858888f19350505050158015610fa0573d6000803e3d6000fd5b505b8115610fe0576040516001600160a01b0387169083156108fc029084906000818181858888f19350505050158015610fde573d6000803e3d6000fd5b505b5050505092915050565b60066020526000908152604090205481565b6000805460408051632474521560e21b81527f185f85149db0f205130703941d0f9ccd8133e50df5d5080231c7704337aa2c3860048201526001600160a01b038581166024830152915191909216916391d14854916044808301926020929190829003018186803b15801561107057600080fd5b505afa158015611084573d6000803e3d6000fd5b505050506040513d602081101561109a57600080fd5b505192915050565b6000546040805163c395fcb360e01b815233600482015290516001600160a01b039092169163c395fcb391602480820192602092909190829003018186803b1580156110ed57600080fd5b505afa158015611101573d6000803e3d6000fd5b505050506040513d602081101561111757600080fd5b50516111545760405162461bcd60e51b81526004018080602001828103825260238152602001806123c06023913960400191505060405180910390fd5b6103e88111156111955760405162461bcd60e51b81526004018080602001828103825260258152602001806124b06025913960400191505060405180910390fd5b61119e81611d97565b6008805463ffffffff92909216600160801b0263ffffffff60801b1990921691909117905550565b6000908152600460205260409020546001600160a01b031690565b7f185f85149db0f205130703941d0f9ccd8133e50df5d5080231c7704337aa2c3881565b60015490565b6001818154811061121857fe5b6000918252602090912001546001600160a01b0316905081565b6003546001600160a01b031681565b60025481565b6000546001600160a01b031681565b6000546040805163c395fcb360e01b815233600482015290516001600160a01b039092169163c395fcb391602480820192602092909190829003018186803b1580156112a157600080fd5b505afa1580156112b5573d6000803e3d6000fd5b505050506040513d60208110156112cb57600080fd5b505161131e576040805162461bcd60e51b815260206004820181905260248201527f4d49534f4d61726b65743a2053656e646572206d7573742062652061646d696e604482015290519081900360640190fd5b6000818152600460205260409020546001600160a01b03166113715760405162461bcd60e51b81526004018080602001828103825260218152602001806123e36021913960400191505060405180910390fd5b600081815260046020818152604092839020548351630d9f230760e11b8152935186946001600160a01b0390921693631b3e460e938382019390929190829003018186803b1580156113c257600080fd5b505afa1580156113d6573d6000803e3d6000fd5b505050506040513d60208110156113ec57600080fd5b50511461142a5760405162461bcd60e51b81526004018080602001828103825260238152602001806124ff6023913960400191505060405180910390fd5b60009182526006602052604090912055565b6000546040805163c395fcb360e01b815233600482015290516001600160a01b039092169163c395fcb391602480820192602092909190829003018186803b15801561148757600080fd5b505afa15801561149b573d6000803e3d6000fd5b505050506040513d60208110156114b157600080fd5b50516114ee5760405162461bcd60e51b815260040180806020018281038252602a815260200180612396602a913960400191505060405180910390fd5b6001600160a01b03811661150157600080fd5b600980546001600160a01b0390921661010002610100600160a81b0319909216919091179055565b6008546001600160801b03811690600160801b900463ffffffff1682565b6000546040805163c395fcb360e01b815233600482015290516001600160a01b039092169163c395fcb391602480820192602092909190829003018186803b15801561159257600080fd5b505afa1580156115a6573d6000803e3d6000fd5b505050506040513d60208110156115bc57600080fd5b50518061163c575060005460408051637e271f0560e11b815233600482015290516001600160a01b039092169163fc4e3e0a91602480820192602092909190829003018186803b15801561160f57600080fd5b505afa158015611623573d6000803e3d6000fd5b505050506040513d602081101561163957600080fd5b50515b6116775760405162461bcd60e51b81526004018080602001828103825260238152602001806123c06023913960400191505060405180910390fd5b61168081611b53565b50565b600061168f8785610b0b565b905084156116b6576116a2863387611df2565b6116b66001600160a01b0387168287611f1a565b60405163409a9e4760e11b8152602060048201908152602482018490526001600160a01b038316916381353c8e9186918691908190604401848480828437600081840152601f19601f8201169050808301925050509350505050600060405180830381600087803b15801561172a57600080fd5b505af115801561173e573d6000803e3d6000fd5b5050505060008511156117db576000866001600160a01b03166370a08231306040518263ffffffff1660e01b815260040180826001600160a01b0316815260200191505060206040518083038186803b15801561179a57600080fd5b505afa1580156117ae573d6000803e3d6000fd5b505050506040513d60208110156117c457600080fd5b5051905080156117d9576117d9873383612032565b505b9695505050505050565b6001600160a01b0316600090815260076020526040902054610100900467ffffffffffffffff1690565b6000546040805163c395fcb360e01b815233600482015290516001600160a01b039092169163c395fcb391602480820192602092909190829003018186803b15801561185a57600080fd5b505afa15801561186e573d6000803e3d6000fd5b505050506040513d602081101561188457600080fd5b505180611904575060005460408051637e271f0560e11b815233600482015290516001600160a01b039092169163fc4e3e0a91602480820192602092909190829003018186803b1580156118d757600080fd5b505afa1580156118eb573d6000803e3d6000fd5b505050506040513d602081101561190157600080fd5b50515b61193f5760405162461bcd60e51b81526004018080602001828103825260238152602001806123c06023913960400191505060405180910390fd5b6000818152600460208181526040808420548151630d9f230760e11b815291516001600160a01b0390911694938593631b3e460e9380830193919290829003018186803b15801561198f57600080fd5b505afa1580156119a3573d6000803e3d6000fd5b505050506040513d60208110156119b957600080fd5b50516000818152600660205260409020549091508314156119e4576000818152600660205260408120555b600083815260046020908152604080832080546001600160a01b03191690556001600160a01b0385168084526005835281842093909355805192835290820185905280517f9e451d330e5bb7320c38b55046b66305a869486110a27e84e383b9b2a329875b9281900390910190a1505050565b60095461010090046001600160a01b031681565b60095460ff1681565b6001600160a01b031660009081526005602052604090205490565b60606001805480602002602001604051908101604052809291908181526020018280548015611ae757602002820191906000526020600020905b81546001600160a01b03168152600190910190602001808311611ac9575b5050505050905090565b60006001600160801b03821115611b4f576040805162461bcd60e51b815260206004820152601c60248201527f426f72696e674d6174683a2075696e74313238204f766572666c6f7700000000604482015290519081900360640190fd5b5090565b6001600160a01b038116611bae576040805162461bcd60e51b815260206004820152601e60248201527f4d49534f4d61726b65743a20496e636f72726563742074656d706c6174650000604482015290519081900360640190fd5b6001600160a01b03811660009081526005602052604090205415611c035760405162461bcd60e51b81526004018080602001828103825260228152602001806125226022913960400191505060405180910390fd5b6000816001600160a01b0316631b3e460e6040518163ffffffff1660e01b815260040160206040518083038186803b158015611c3e57600080fd5b505afa158015611c52573d6000803e3d6000fd5b505050506040513d6020811015611c6857600080fd5b5051905080611ca85760405162461bcd60e51b81526004018080602001828103825260248152602001806124326024913960400191505060405180910390fd5b60028054600101808255600090815260046020908152604080832080546001600160a01b0319166001600160a01b038816908117909155935484845260058352818420819055858452600683529281902083905580519384529083019190915280517f893e8595c407d2a22d29ff3ba939d15ec3966113ce988bd39c68e4b0035040079281900390910190a15050565b600067ffffffffffffffff821115611b4f576040805162461bcd60e51b815260206004820152601b60248201527f426f72696e674d6174683a2075696e743634204f766572666c6f770000000000604482015290519081900360640190fd5b600063ffffffff821115611b4f576040805162461bcd60e51b815260206004820152601b60248201527f426f72696e674d6174683a2075696e743332204f766572666c6f770000000000604482015290519081900360640190fd5b604080516001600160a01b038481166024830152306044830152606480830185905283518084039091018152608490920183526020820180516001600160e01b03166323b872dd60e01b178152925182516000946060949389169392918291908083835b60208310611e755780518252601f199092019160209182019101611e56565b6001836020036101000a0380198251168184511680821785525050505050509050019150506000604051808303816000865af19150503d8060008114611ed7576040519150601f19603f3d011682016040523d82523d6000602084013e611edc565b606091505b5091509150818015611f0a575080511580611f0a5750808060200190516020811015611f0757600080fd5b50515b611f1357600080fd5b5050505050565b801580611fa0575060408051636eb1769f60e11b81523060048201526001600160a01b03848116602483015291519185169163dd62ed3e91604480820192602092909190829003018186803b158015611f7257600080fd5b505afa158015611f86573d6000803e3d6000fd5b505050506040513d6020811015611f9c57600080fd5b5051155b611fdb5760405162461bcd60e51b81526004018080602001828103825260368152602001806125c26036913960400191505060405180910390fd5b604080516001600160a01b038416602482015260448082018490528251808303909101815260649091019091526020810180516001600160e01b031663095ea7b360e01b17905261202d9084906120ae565b505050565b604080516001600160a01b038481166024830152604480830185905283518084039091018152606490920183526020820180516001600160e01b031663a9059cbb60e01b1781529251825160009460609493891693929182919080838360208310611e755780518252601f199092019160209182019101611e56565b6060612103826040518060400160405280602081526020017f5361666545524332303a206c6f772d6c6576656c2063616c6c206661696c6564815250856001600160a01b031661215f9092919063ffffffff16565b80519091501561202d5780806020019051602081101561212257600080fd5b505161202d5760405162461bcd60e51b815260040180806020018281038252602a81526020018061256d602a913960400191505060405180910390fd5b606061216e8484600085612178565b90505b9392505050565b6060824710156121b95760405162461bcd60e51b81526004018080602001828103825260268152602001806124566026913960400191505060405180910390fd5b6121c2856122d4565b612213576040805162461bcd60e51b815260206004820152601d60248201527f416464726573733a2063616c6c20746f206e6f6e2d636f6e7472616374000000604482015290519081900360640190fd5b60006060866001600160a01b031685876040518082805190602001908083835b602083106122525780518252601f199092019160209182019101612233565b6001836020036101000a03801982511681845116808217855250505050505090500191505060006040518083038185875af1925050503d80600081146122b4576040519150601f19603f3d011682016040523d82523d6000602084013e6122b9565b606091505b50915091506122c98282866122da565b979650505050505050565b3b151590565b606083156122e9575081612171565b8251156122f95782518084602001fd5b8160405162461bcd60e51b81526004018080602001828103825283818151815260200191508051906020019080838360005b8381101561234357818101518382015260200161232b565b50505050905090810190601f1680156123705780820380516001836020036101000a031916815260200191505b509250505060405180910390fd5b60408051808201909152600080825260208201529056fe4d49534f4d61726b65742e7365744465763a2053656e646572206d757374206265206f70657261746f724d49534f4d61726b65743a2053656e646572206d757374206265206f70657261746f724d49534f4d61726b65743a20696e636f7272656374205f74656d706c6174654964696e69744d49534f4d61726b65743a2062656e746f426f782063616e6e6f742062652073657420746f207a65726f4d49534f4d61726b65743a20496e636f72726563742074656d706c61746520636f646520416464726573733a20696e73756666696369656e742062616c616e636520666f722063616c6c696e69744d49534f4d61726b65743a20616363657373436f6e74726f6c732063616e6e6f742062652073657420746f207a65726f4d49534f4d61726b65743a2050657263656e74616765206973206f7574206f6620313030304d49534f4d61726b65743a2041756374696f6e2074656d706c61746520646f65736e27742065786973744d49534f4d61726b65743a20696e636f7272656374205f74656d706c617465547970654d49534f4d61726b65743a2054656d706c61746520616c72656164792061646465644d49534f4d61726b65743a204661696c656420746f207472616e73666572206d696e696d756d4665655361666545524332303a204552433230206f7065726174696f6e20646964206e6f7420737563636565644d49534f4d61726b65743a2053656e646572206d757374206265206d696e746572206966206c6f636b65645361666545524332303a20617070726f76652066726f6d206e6f6e2d7a65726f20746f206e6f6e2d7a65726f20616c6c6f77616e6365a26469706673582212201e60ed3283279d7c32b3449d56c042792c89ccbd2e7800f53deb2185d7705dd964736f6c634300060c0033",
  "devdoc": {
    "kind": "dev",
    "methods": {
      "addAuctionTemplate(address)": {
        "details": "Should have operator access.",
        "params": {
          "_template": "Auction template to create an auction."
        }
      },
      "createMarket(uint256,address,uint256,address,bytes)": {
        "details": "Initializes auction with the parameters passed.",
        "params": {
          "_data": "Data to be sent to template on Init.",
          "_integratorFeeAccount": "Address to send refferal bonus, if set.",
          "_templateId": "Id of the auction template to create.",
          "_token": "The token address to be sold.",
          "_tokenSupply": "Amount of tokens to be sold at market."
        },
        "returns": {
          "newMarket": "Market address."
        }
      },
      "deployMarket(uint256,address)": {
        "params": {
          "_integratorFeeAccount": "Address to pay the fee to.",
          "_templateId": "Id of the crowdsale template to create."
        },
        "returns": {
          "newMarket": "Market address."
        }
      },
      "getAuctionTemplate(uint256)": {
        "params": {
          "_templateId": "Auction template ID."
        },
        "returns": {
          "_0": "Address of the required template ID."
        }
      },
      "getTemplateId(address)": {
        "params": {
          "_auctionTemplate": "Auction template address."
        },
        "returns": {
          "_0": "ID of the required template address."
        }
      },
      "hasMarketMinterRole(address)": {
        "params": {
          "_address": "EOA or contract being checked"
        },
        "returns": {
          "_0": "bool True if the account has the role or false if it does not"
        }
      },
      "initMISOMarket(address,address,address[])": {
        "details": "Can only be initialized once.",
        "params": {
          "_accessControls": "Sets address to get the access controls from.",
          "_templates": "Initial array of MISOMarket templates."
        }
      },
      "numberOfAuctions()": {
        "returns": {
          "_0": "Auction count."
        }
      },
      "removeAuctionTemplate(uint256)": {
        "details": "Function to remove an auction template.Should have operator access.",
        "params": {
          "_templateId": "Refers to template that is to be deleted."
        }
      },
      "setCurrentTemplateId(uint256,uint256)": {
        "params": {
          "_templateId": "The ID of the current template for that type",
          "_templateType": "Type of template."
        }
      },
      "setDividends(address)": {
        "params": {
          "_divaddr": "Dividend address."
        }
      },
      "setIntegratorFeePct(uint256)": {
        "params": {
          "_amount": "Percentage amount."
        }
      },
      "setLocked(bool)": {
        "params": {
          "_locked": "bool."
        }
      },
      "setMinimumFee(uint256)": {
        "params": {
          "_amount": "Fee amount."
        }
      }
    },
    "version": 1
  },
  "userdoc": {
    "events": {
      "AuctionTemplateAdded(address,uint256)": {
        "notice": "Event emitted when template is added to factory."
      },
      "AuctionTemplateRemoved(address,uint256)": {
        "notice": "Event emitted when auction template is removed."
      },
      "MarketCreated(address,address,address)": {
        "notice": "Event emitted when auction is created using template id."
      },
      "MisoInitMarket(address)": {
        "notice": "Event emitted when first initializing the Market factory."
      },
      "TokensWithdrawn(address,address,uint256)": {
        "notice": "Event for token withdrawals."
      }
    },
    "kind": "user",
    "methods": {
      "accessControls()": {
        "notice": "Responsible for access rights to the contract."
      },
      "addAuctionTemplate(address)": {
        "notice": "Function to add an auction template to create through factory."
      },
      "auctionInfo(address)": {
        "notice": "Mapping from auction created through this contract to Auction struct."
      },
      "auctionTemplateId()": {
        "notice": "Template id to track respective auction template."
      },
      "auctions(uint256)": {
        "notice": "Auctions created using factory."
      },
      "createMarket(uint256,address,uint256,address,bytes)": {
        "notice": "Creates a new MISOMarket using _templateId."
      },
      "deployMarket(uint256,address)": {
        "notice": "Creates a new MISOMarket from template _templateId and transfers fees."
      },
      "getAuctionTemplate(uint256)": {
        "notice": "Get the address based on template ID."
      },
      "getTemplateId(address)": {
        "notice": "Get the ID based on template address."
      },
      "hasMarketMinterRole(address)": {
        "notice": "Used to check whether an address has the minter role"
      },
      "initMISOMarket(address,address,address[])": {
        "notice": "Initializes the market with a list of auction templates."
      },
      "locked()": {
        "notice": "Contract locked status. If locked, only minters can deploy"
      },
      "marketFees()": {
        "notice": "Minimum fee to create a farm through the factory."
      },
      "misoDiv()": {
        "notice": "Any donations if set are sent here."
      },
      "numberOfAuctions()": {
        "notice": "Get the total number of auctions in the factory."
      },
      "setCurrentTemplateId(uint256,uint256)": {
        "notice": "Sets the current template ID for any type."
      },
      "setDividends(address)": {
        "notice": "Sets dividend address."
      },
      "setIntegratorFeePct(uint256)": {
        "notice": "Sets integrator fee percentage."
      },
      "setLocked(bool)": {
        "notice": "Sets the factory to be locked or unlocked."
      },
      "setMinimumFee(uint256)": {
        "notice": "Sets the minimum fee."
      }
    },
    "version": 1
  },
  "storageLayout": {
    "storage": [
      {
        "astId": 15633,
        "contract": "contracts/MISOMarket.sol:MISOMarket",
        "label": "accessControls",
        "offset": 0,
        "slot": "0",
        "type": "t_contract(MISOAccessControls)510"
      },
      {
        "astId": 15641,
        "contract": "contracts/MISOMarket.sol:MISOMarket",
        "label": "initialised",
        "offset": 20,
        "slot": "0",
        "type": "t_bool"
      },
      {
        "astId": 15652,
        "contract": "contracts/MISOMarket.sol:MISOMarket",
        "label": "auctions",
        "offset": 0,
        "slot": "1",
        "type": "t_array(t_address)dyn_storage"
      },
      {
        "astId": 15655,
        "contract": "contracts/MISOMarket.sol:MISOMarket",
        "label": "auctionTemplateId",
        "offset": 0,
        "slot": "2",
        "type": "t_uint256"
      },
      {
        "astId": 15657,
        "contract": "contracts/MISOMarket.sol:MISOMarket",
        "label": "bentoBox",
        "offset": 0,
        "slot": "3",
        "type": "t_contract(IBentoBoxFactory)28119"
      },
      {
        "astId": 15662,
        "contract": "contracts/MISOMarket.sol:MISOMarket",
        "label": "auctionTemplates",
        "offset": 0,
        "slot": "4",
        "type": "t_mapping(t_uint256,t_address)"
      },
      {
        "astId": 15667,
        "contract": "contracts/MISOMarket.sol:MISOMarket",
        "label": "auctionTemplateToId",
        "offset": 0,
        "slot": "5",
        "type": "t_mapping(t_address,t_uint256)"
      },
      {
        "astId": 15671,
        "contract": "contracts/MISOMarket.sol:MISOMarket",
        "label": "currentTemplateId",
        "offset": 0,
        "slot": "6",
        "type": "t_mapping(t_uint256,t_uint256)"
      },
      {
        "astId": 15676,
        "contract": "contracts/MISOMarket.sol:MISOMarket",
        "label": "auctionInfo",
        "offset": 0,
        "slot": "7",
        "type": "t_mapping(t_address,t_struct(Auction)15648_storage)"
      },
      {
        "astId": 15684,
        "contract": "contracts/MISOMarket.sol:MISOMarket",
        "label": "marketFees",
        "offset": 0,
        "slot": "8",
        "type": "t_struct(MarketFees)15681_storage"
      },
      {
        "astId": 15687,
        "contract": "contracts/MISOMarket.sol:MISOMarket",
        "label": "locked",
        "offset": 0,
        "slot": "9",
        "type": "t_bool"
      },
      {
        "astId": 15690,
        "contract": "contracts/MISOMarket.sol:MISOMarket",
        "label": "misoDiv",
        "offset": 1,
        "slot": "9",
        "type": "t_address_payable"
      }
    ],
    "types": {
      "t_address": {
        "encoding": "inplace",
        "label": "address",
        "numberOfBytes": "20"
      },
      "t_address_payable": {
        "encoding": "inplace",
        "label": "address payable",
        "numberOfBytes": "20"
      },
      "t_array(t_address)dyn_storage": {
        "base": "t_address",
        "encoding": "dynamic_array",
        "label": "address[]",
        "numberOfBytes": "32"
      },
      "t_bool": {
        "encoding": "inplace",
        "label": "bool",
        "numberOfBytes": "1"
      },
      "t_contract(IBentoBoxFactory)28119": {
        "encoding": "inplace",
        "label": "contract IBentoBoxFactory",
        "numberOfBytes": "20"
      },
      "t_contract(MISOAccessControls)510": {
        "encoding": "inplace",
        "label": "contract MISOAccessControls",
        "numberOfBytes": "20"
      },
      "t_mapping(t_address,t_struct(Auction)15648_storage)": {
        "encoding": "mapping",
        "key": "t_address",
        "label": "mapping(address => struct MISOMarket.Auction)",
        "numberOfBytes": "32",
        "value": "t_struct(Auction)15648_storage"
      },
      "t_mapping(t_address,t_uint256)": {
        "encoding": "mapping",
        "key": "t_address",
        "label": "mapping(address => uint256)",
        "numberOfBytes": "32",
        "value": "t_uint256"
      },
      "t_mapping(t_uint256,t_address)": {
        "encoding": "mapping",
        "key": "t_uint256",
        "label": "mapping(uint256 => address)",
        "numberOfBytes": "32",
        "value": "t_address"
      },
      "t_mapping(t_uint256,t_uint256)": {
        "encoding": "mapping",
        "key": "t_uint256",
        "label": "mapping(uint256 => uint256)",
        "numberOfBytes": "32",
        "value": "t_uint256"
      },
      "t_struct(Auction)15648_storage": {
        "encoding": "inplace",
        "label": "struct MISOMarket.Auction",
        "members": [
          {
            "astId": 15643,
            "contract": "contracts/MISOMarket.sol:MISOMarket",
            "label": "exists",
            "offset": 0,
            "slot": "0",
            "type": "t_bool"
          },
          {
            "astId": 15645,
            "contract": "contracts/MISOMarket.sol:MISOMarket",
            "label": "templateId",
            "offset": 1,
            "slot": "0",
            "type": "t_uint64"
          },
          {
            "astId": 15647,
            "contract": "contracts/MISOMarket.sol:MISOMarket",
            "label": "index",
            "offset": 9,
            "slot": "0",
            "type": "t_uint128"
          }
        ],
        "numberOfBytes": "32"
      },
      "t_struct(MarketFees)15681_storage": {
        "encoding": "inplace",
        "label": "struct MISOMarket.MarketFees",
        "members": [
          {
            "astId": 15678,
            "contract": "contracts/MISOMarket.sol:MISOMarket",
            "label": "minimumFee",
            "offset": 0,
            "slot": "0",
            "type": "t_uint128"
          },
          {
            "astId": 15680,
            "contract": "contracts/MISOMarket.sol:MISOMarket",
            "label": "integratorFeePct",
            "offset": 16,
            "slot": "0",
            "type": "t_uint32"
          }
        ],
        "numberOfBytes": "32"
      },
      "t_uint128": {
        "encoding": "inplace",
        "label": "uint128",
        "numberOfBytes": "16"
      },
      "t_uint256": {
        "encoding": "inplace",
        "label": "uint256",
        "numberOfBytes": "32"
      },
      "t_uint32": {
        "encoding": "inplace",
        "label": "uint32",
        "numberOfBytes": "4"
      },
      "t_uint64": {
        "encoding": "inplace",
        "label": "uint64",
        "numberOfBytes": "8"
      }
    }
  }
}