{
  "address": "0xBD87Bef520f8CEC45d73B0413B6cBb8b061736d9",
  "abi": [
    {
      "inputs": [],
      "stateMutability": "nonpayable",
      "type": "constructor"
    },
    {
      "anonymous": false,
      "inputs": [
        {
          "indexed": false,
          "internalType": "uint256",
          "name": "oldPoints",
          "type": "uint256"
        },
        {
          "indexed": false,
          "internalType": "uint256",
          "name": "newPoints",
          "type": "uint256"
        }
      ],
      "name": "PointsUpdated",
      "type": "event"
    },
    {
      "anonymous": false,
      "inputs": [
        {
          "indexed": true,
          "internalType": "bytes32",
          "name": "role",
          "type": "bytes32"
        },
        {
          "indexed": true,
          "internalType": "bytes32",
          "name": "previousAdminRole",
          "type": "bytes32"
        },
        {
          "indexed": true,
          "internalType": "bytes32",
          "name": "newAdminRole",
          "type": "bytes32"
        }
      ],
      "name": "RoleAdminChanged",
      "type": "event"
    },
    {
      "anonymous": false,
      "inputs": [
        {
          "indexed": true,
          "internalType": "bytes32",
          "name": "role",
          "type": "bytes32"
        },
        {
          "indexed": true,
          "internalType": "address",
          "name": "account",
          "type": "address"
        },
        {
          "indexed": true,
          "internalType": "address",
          "name": "sender",
          "type": "address"
        }
      ],
      "name": "RoleGranted",
      "type": "event"
    },
    {
      "anonymous": false,
      "inputs": [
        {
          "indexed": true,
          "internalType": "bytes32",
          "name": "role",
          "type": "bytes32"
        },
        {
          "indexed": true,
          "internalType": "address",
          "name": "account",
          "type": "address"
        },
        {
          "indexed": true,
          "internalType": "address",
          "name": "sender",
          "type": "address"
        }
      ],
      "name": "RoleRevoked",
      "type": "event"
    },
    {
      "inputs": [],
      "name": "DEFAULT_ADMIN_ROLE",
      "outputs": [
        {
          "internalType": "bytes32",
          "name": "",
          "type": "bytes32"
        }
      ],
      "stateMutability": "view",
      "type": "function"
    },
    {
      "inputs": [],
      "name": "MINTER_ROLE",
      "outputs": [
        {
          "internalType": "bytes32",
          "name": "",
          "type": "bytes32"
        }
      ],
      "stateMutability": "view",
      "type": "function"
    },
    {
      "inputs": [],
      "name": "OPERATOR_ROLE",
      "outputs": [
        {
          "internalType": "bytes32",
          "name": "",
          "type": "bytes32"
        }
      ],
      "stateMutability": "view",
      "type": "function"
    },
    {
      "inputs": [],
      "name": "SMART_CONTRACT_ROLE",
      "outputs": [
        {
          "internalType": "bytes32",
          "name": "",
          "type": "bytes32"
        }
      ],
      "stateMutability": "view",
      "type": "function"
    },
    {
      "inputs": [
        {
          "internalType": "address",
          "name": "_address",
          "type": "address"
        }
      ],
      "name": "addAdminRole",
      "outputs": [],
      "stateMutability": "nonpayable",
      "type": "function"
    },
    {
      "inputs": [
        {
          "internalType": "address",
          "name": "_address",
          "type": "address"
        }
      ],
      "name": "addMinterRole",
      "outputs": [],
      "stateMutability": "nonpayable",
      "type": "function"
    },
    {
      "inputs": [
        {
          "internalType": "address",
          "name": "_address",
          "type": "address"
        }
      ],
      "name": "addOperatorRole",
      "outputs": [],
      "stateMutability": "nonpayable",
      "type": "function"
    },
    {
      "inputs": [
        {
          "internalType": "address",
          "name": "_address",
          "type": "address"
        }
      ],
      "name": "addSmartContractRole",
      "outputs": [],
      "stateMutability": "nonpayable",
      "type": "function"
    },
    {
      "inputs": [
        {
          "internalType": "bytes32",
          "name": "role",
          "type": "bytes32"
        }
      ],
      "name": "getRoleAdmin",
      "outputs": [
        {
          "internalType": "bytes32",
          "name": "",
          "type": "bytes32"
        }
      ],
      "stateMutability": "view",
      "type": "function"
    },
    {
      "inputs": [
        {
          "internalType": "bytes32",
          "name": "role",
          "type": "bytes32"
        },
        {
          "internalType": "uint256",
          "name": "index",
          "type": "uint256"
        }
      ],
      "name": "getRoleMember",
      "outputs": [
        {
          "internalType": "address",
          "name": "",
          "type": "address"
        }
      ],
      "stateMutability": "view",
      "type": "function"
    },
    {
      "inputs": [
        {
          "internalType": "bytes32",
          "name": "role",
          "type": "bytes32"
        }
      ],
      "name": "getRoleMemberCount",
      "outputs": [
        {
          "internalType": "uint256",
          "name": "",
          "type": "uint256"
        }
      ],
      "stateMutability": "view",
      "type": "function"
    },
    {
      "inputs": [
        {
          "internalType": "bytes32",
          "name": "role",
          "type": "bytes32"
        },
        {
          "internalType": "address",
          "name": "account",
          "type": "address"
        }
      ],
      "name": "grantRole",
      "outputs": [],
      "stateMutability": "nonpayable",
      "type": "function"
    },
    {
      "inputs": [
        {
          "internalType": "address",
          "name": "_address",
          "type": "address"
        }
      ],
      "name": "hasAdminRole",
      "outputs": [
        {
          "internalType": "bool",
          "name": "",
          "type": "bool"
        }
      ],
      "stateMutability": "view",
      "type": "function"
    },
    {
      "inputs": [
        {
          "internalType": "address",
          "name": "_address",
          "type": "address"
        }
      ],
      "name": "hasMinterRole",
      "outputs": [
        {
          "internalType": "bool",
          "name": "",
          "type": "bool"
        }
      ],
      "stateMutability": "view",
      "type": "function"
    },
    {
      "inputs": [
        {
          "internalType": "address",
          "name": "_address",
          "type": "address"
        }
      ],
      "name": "hasOperatorRole",
      "outputs": [
        {
          "internalType": "bool",
          "name": "",
          "type": "bool"
        }
      ],
      "stateMutability": "view",
      "type": "function"
    },
    {
      "inputs": [
        {
          "internalType": "address",
          "name": "_account",
          "type": "address"
        },
        {
          "internalType": "uint256",
          "name": "_amount",
          "type": "uint256"
        }
      ],
      "name": "hasPoints",
      "outputs": [
        {
          "internalType": "bool",
          "name": "",
          "type": "bool"
        }
      ],
      "stateMutability": "view",
      "type": "function"
    },
    {
      "inputs": [
        {
          "internalType": "bytes32",
          "name": "role",
          "type": "bytes32"
        },
        {
          "internalType": "address",
          "name": "account",
          "type": "address"
        }
      ],
      "name": "hasRole",
      "outputs": [
        {
          "internalType": "bool",
          "name": "",
          "type": "bool"
        }
      ],
      "stateMutability": "view",
      "type": "function"
    },
    {
      "inputs": [
        {
          "internalType": "address",
          "name": "_address",
          "type": "address"
        }
      ],
      "name": "hasSmartContractRole",
      "outputs": [
        {
          "internalType": "bool",
          "name": "",
          "type": "bool"
        }
      ],
      "stateMutability": "view",
      "type": "function"
    },
    {
      "inputs": [
        {
          "internalType": "address",
          "name": "_admin",
          "type": "address"
        }
      ],
      "name": "initAccessControls",
      "outputs": [],
      "stateMutability": "nonpayable",
      "type": "function"
    },
    {
      "inputs": [
        {
          "internalType": "address",
          "name": "_admin",
          "type": "address"
        }
      ],
      "name": "initPointList",
      "outputs": [],
      "stateMutability": "nonpayable",
      "type": "function"
    },
    {
      "inputs": [
        {
          "internalType": "address",
          "name": "_account",
          "type": "address"
        }
      ],
      "name": "isInList",
      "outputs": [
        {
          "internalType": "bool",
          "name": "",
          "type": "bool"
        }
      ],
      "stateMutability": "view",
      "type": "function"
    },
    {
      "inputs": [],
      "name": "maxPoints",
      "outputs": [
        {
          "internalType": "uint256",
          "name": "",
          "type": "uint256"
        }
      ],
      "stateMutability": "view",
      "type": "function"
    },
    {
      "inputs": [
        {
          "internalType": "address",
          "name": "_account",
          "type": "address"
        }
      ],
      "name": "points",
      "outputs": [
        {
          "internalType": "uint256",
          "name": "",
          "type": "uint256"
        }
      ],
      "stateMutability": "view",
      "type": "function"
    },
    {
      "inputs": [
        {
          "internalType": "address",
          "name": "_address",
          "type": "address"
        }
      ],
      "name": "removeAdminRole",
      "outputs": [],
      "stateMutability": "nonpayable",
      "type": "function"
    },
    {
      "inputs": [
        {
          "internalType": "address",
          "name": "_address",
          "type": "address"
        }
      ],
      "name": "removeMinterRole",
      "outputs": [],
      "stateMutability": "nonpayable",
      "type": "function"
    },
    {
      "inputs": [
        {
          "internalType": "address",
          "name": "_address",
          "type": "address"
        }
      ],
      "name": "removeOperatorRole",
      "outputs": [],
      "stateMutability": "nonpayable",
      "type": "function"
    },
    {
      "inputs": [
        {
          "internalType": "address",
          "name": "_address",
          "type": "address"
        }
      ],
      "name": "removeSmartContractRole",
      "outputs": [],
      "stateMutability": "nonpayable",
      "type": "function"
    },
    {
      "inputs": [
        {
          "internalType": "bytes32",
          "name": "role",
          "type": "bytes32"
        },
        {
          "internalType": "address",
          "name": "account",
          "type": "address"
        }
      ],
      "name": "renounceRole",
      "outputs": [],
      "stateMutability": "nonpayable",
      "type": "function"
    },
    {
      "inputs": [
        {
          "internalType": "bytes32",
          "name": "role",
          "type": "bytes32"
        },
        {
          "internalType": "address",
          "name": "account",
          "type": "address"
        }
      ],
      "name": "revokeRole",
      "outputs": [],
      "stateMutability": "nonpayable",
      "type": "function"
    },
    {
      "inputs": [
        {
          "internalType": "address[]",
          "name": "_accounts",
          "type": "address[]"
        },
        {
          "internalType": "uint256[]",
          "name": "_amounts",
          "type": "uint256[]"
        }
      ],
      "name": "setPoints",
      "outputs": [],
      "stateMutability": "nonpayable",
      "type": "function"
    }
  ],
  "transactionHash": "0x69ee4c6505a851add94f3012e6116523eeb0488eb9cafd20447d788832f2a850",
  "args": [],
  "numDeployments": 1,
  "solcInputHash": "39bc4613650a8df0046cd58a21def393",
  "bytecode": "0x608060405234801561001057600080fd5b50610fb4806100206000396000f3fe608060405234801561001057600080fd5b50600436106101da5760003560e01c80639478941c11610104578063ca15c873116100a2578063e6594abd11610071578063e6594abd14610691578063f5b541a6146106b7578063fa33bcf3146106bf578063fc4e3e0a146106e5576101da565b8063ca15c8731461061a578063d539139314610637578063d547741f1461063f578063dccfe3101461066b576101da565b8063a217fddf116100de578063a217fddf146105a0578063adbf3776146105a8578063b7928b1d146105ce578063c395fcb3146105f4576101da565b80639478941c1461044b5780639a65e3eb146104715780639a80c4a114610479576101da565b806336568abe1161017c578063857d26081161014b578063857d2608146103b25780638a845fc0146103ba5780639010d07c146103e057806391d148541461041f576101da565b806336568abe146103145780633f16431a1461034057806354f1e126146103665780636595171c1461038c576101da565b8063248a9ca3116101b8578063248a9ca31461026b578063283ba19b1461029a5780632f2ff15d146102c2578063358b8166146102ee576101da565b8063099db017146101df578063113b0ab2146102195780631cd53d551461023f575b600080fd5b610205600480360360208110156101f557600080fd5b50356001600160a01b031661070b565b604080519115158252519081900360200190f35b6102056004803603602081101561022f57600080fd5b50356001600160a01b031661072b565b6102056004803603604081101561025557600080fd5b506001600160a01b038135169060200135610745565b6102886004803603602081101561028157600080fd5b503561074f565b60408051918252519081900360200190f35b6102c0600480360360208110156102b057600080fd5b50356001600160a01b0316610764565b005b6102c0600480360360408110156102d857600080fd5b50803590602001356001600160a01b0316610770565b6102886004803603602081101561030457600080fd5b50356001600160a01b03166107dc565b6102c06004803603604081101561032a57600080fd5b50803590602001356001600160a01b03166107e3565b6102c06004803603602081101561035657600080fd5b50356001600160a01b0316610844565b6102c06004803603602081101561037c57600080fd5b50356001600160a01b031661085c565b6102c0600480360360208110156103a257600080fd5b50356001600160a01b0316610874565b61028861087f565b6102c0600480360360208110156103d057600080fd5b50356001600160a01b0316610891565b610403600480360360408110156103f657600080fd5b50803590602001356108a9565b604080516001600160a01b039092168252519081900360200190f35b6102056004803603604081101561043557600080fd5b50803590602001356001600160a01b03166108c8565b6102c06004803603602081101561046157600080fd5b50356001600160a01b03166108e0565b6102886108f8565b6102c06004803603604081101561048f57600080fd5b8101906020810181356401000000008111156104aa57600080fd5b8201836020820111156104bc57600080fd5b803590602001918460208302840111640100000000831117156104de57600080fd5b919080806020026020016040519081016040528093929190818152602001838360200280828437600092019190915250929594936020810193503591505064010000000081111561052e57600080fd5b82018360208201111561054057600080fd5b8035906020019184602083028401116401000000008311171561056257600080fd5b9190808060200260200160405190810160405280939291908181526020018383602002808284376000920191909152509295506108fe945050505050565b6102886109d3565b6102c0600480360360208110156105be57600080fd5b50356001600160a01b03166109d8565b6102c0600480360360208110156105e457600080fd5b50356001600160a01b03166109f0565b6102056004803603602081101561060a57600080fd5b50356001600160a01b0316610a08565b6102886004803603602081101561063057600080fd5b5035610a14565b610288610a2b565b6102c06004803603604081101561065557600080fd5b50803590602001356001600160a01b0316610a3d565b6102c06004803603602081101561068157600080fd5b50356001600160a01b0316610a96565b6102c0600480360360208110156106a757600080fd5b50356001600160a01b0316610aa1565b610288610b56565b610205600480360360208110156106d557600080fd5b50356001600160a01b0316610b68565b610205600480360360208110156106fb57600080fd5b50356001600160a01b0316610b6e565b6000610725600080516020610f06833981519152836108c8565b92915050565b6000610725600080516020610e96833981519152836108c8565b6002541015919050565b60009081526020819052604090206002015490565b61076d81610aa1565b50565b6000828152602081905260409020600201546107939061078e610b88565b6108c8565b6107ce5760405162461bcd60e51b815260040180806020018281038252602f815260200180610e67602f913960400191505060405180910390fd5b6107d88282610b8c565b5050565b5060025490565b6107eb610b88565b6001600160a01b0316816001600160a01b03161461083a5760405162461bcd60e51b815260040180806020018281038252602f815260200180610f50602f913960400191505060405180910390fd5b6107d88282610bf5565b61076d600080516020610e9683398151915282610770565b61076d600080516020610f0683398151915282610a3d565b61076d600082610770565b600080516020610e9683398151915281565b61076d600080516020610e9683398151915282610a3d565b60008281526020819052604081206108c19083610c5e565b9392505050565b60008281526020819052604081206108c19083610c6a565b61076d600080516020610ee683398151915282610a3d565b60025481565b61090733610a08565b80610916575061091633610b6e565b6109515760405162461bcd60e51b815260040180806020018281038252602a815260200180610f26602a913960400191505060405180910390fd5b805160011461095f57600080fd5b8060008151811061096c57fe5b60200260200101516002819055507f2a4f386dacbb02a5d478d3fc1d2dbc487b69ed735b8d629e99d905680db927eb600254826000815181106109ab57fe5b6020026020010151604051808381526020018281526020019250505060405180910390a15050565b600081565b61076d600080516020610f0683398151915282610770565b61076d600080516020610ee683398151915282610770565b600061072581836108c8565b600081815260208190526040812061072590610c7f565b600080516020610f0683398151915281565b600082815260208190526040902060020154610a5b9061078e610b88565b61083a5760405162461bcd60e51b8152600401808060200182810382526030815260200180610eb66030913960400191505060405180910390fd5b61076d600082610a3d565b60015460ff1615610aef576040805162461bcd60e51b8152602060048201526013602482015272105b1c9958591e481a5b9a5d1a585b1a5cd959606a1b604482015290519081900360640190fd5b6001600160a01b038116610b3c576040805162461bcd60e51b815260206004820152600f60248201526e125b98dbdc9c9958dd081a5b9c1d5d608a1b604482015290519081900360640190fd5b610b476000826107ce565b506001805460ff191681179055565b600080516020610ee683398151915281565b50600190565b6000610725600080516020610ee6833981519152836108c8565b3390565b6000828152602081905260409020610ba49082610c8a565b156107d857610bb1610b88565b6001600160a01b0316816001600160a01b0316837f2f8788117e7eff1d82e926ec794901d17c78024a50270940304540a733656f0d60405160405180910390a45050565b6000828152602081905260409020610c0d9082610c9f565b156107d857610c1a610b88565b6001600160a01b0316816001600160a01b0316837ff6391f5c32d9c69d2a47ea670b442974b53935d1edc7fd64eb21e047a839171b60405160405180910390a45050565b60006108c18383610cb4565b60006108c1836001600160a01b038416610d18565b600061072582610d30565b60006108c1836001600160a01b038416610d34565b60006108c1836001600160a01b038416610d7e565b81546000908210610cf65760405162461bcd60e51b8152600401808060200182810382526022815260200180610e456022913960400191505060405180910390fd5b826000018281548110610d0557fe5b9060005260206000200154905092915050565b60009081526001919091016020526040902054151590565b5490565b6000610d408383610d18565b610d7657508154600181810184556000848152602080822090930184905584548482528286019093526040902091909155610725565b506000610725565b60008181526001830160205260408120548015610e3a5783546000198083019190810190600090879083908110610db157fe5b9060005260206000200154905080876000018481548110610dce57fe5b600091825260208083209091019290925582815260018981019092526040902090840190558654879080610dfe57fe5b60019003818190600052602060002001600090559055866001016000878152602001908152602001600020600090556001945050505050610725565b600091505061072556fe456e756d657261626c655365743a20696e646578206f7574206f6620626f756e6473416363657373436f6e74726f6c3a2073656e646572206d75737420626520616e2061646d696e20746f206772616e749d49f397ae9ef1a834b569acb967799a367061e305932181a44f5773da873bfd416363657373436f6e74726f6c3a2073656e646572206d75737420626520616e2061646d696e20746f207265766f6b6597667070c54ef182b0f5858b034beac1b6f3089aa2d3188bb1e8929f4fa9b9299f2df0fed2c77648de5860a4cc508cd0818c85b8b8a1ab4ceeef8d981c8956a64d61784c6973742e736574506f696e74733a2053656e646572206d757374206265206f70657261746f72416363657373436f6e74726f6c3a2063616e206f6e6c792072656e6f756e636520726f6c657320666f722073656c66a2646970667358221220461b892d434e31f6a6d221422c55dc255eb6809b2159e43ae5d8dbae99a7160c64736f6c634300060c0033",
  "devdoc": {
    "kind": "dev",
    "methods": {
      "addAdminRole(address)": {
        "details": "The sender must have the admin role.",
        "params": {
          "_address": "EOA or contract receiving the new role."
        }
      },
      "addMinterRole(address)": {
        "details": "The sender must have the admin role",
        "params": {
          "_address": "EOA or contract receiving the new role"
        }
      },
      "addOperatorRole(address)": {
        "details": "The sender must have the admin role",
        "params": {
          "_address": "EOA or contract receiving the new role"
        }
      },
      "addSmartContractRole(address)": {
        "details": "The sender must have the admin role",
        "params": {
          "_address": "EOA or contract receiving the new role"
        }
      },
      "getRoleAdmin(bytes32)": {
        "details": "Returns the admin role that controls `role`. See {grantRole} and {revokeRole}. To change a role's admin, use {_setRoleAdmin}."
      },
      "getRoleMember(bytes32,uint256)": {
        "details": "Returns one of the accounts that have `role`. `index` must be a value between 0 and {getRoleMemberCount}, non-inclusive. Role bearers are not sorted in any particular way, and their ordering may change at any point. WARNING: When using {getRoleMember} and {getRoleMemberCount}, make sure you perform all queries on the same block. See the following https://forum.openzeppelin.com/t/iterating-over-elements-on-enumerableset-in-openzeppelin-contracts/2296[forum post] for more information."
      },
      "getRoleMemberCount(bytes32)": {
        "details": "Returns the number of accounts that have `role`. Can be used together with {getRoleMember} to enumerate all bearers of a role."
      },
      "grantRole(bytes32,address)": {
        "details": "Grants `role` to `account`. If `account` had not been already granted `role`, emits a {RoleGranted} event. Requirements: - the caller must have ``role``'s admin role."
      },
      "hasAdminRole(address)": {
        "params": {
          "_address": "EOA or contract being checked."
        },
        "returns": {
          "_0": "bool True if the account has the role or false if it does not."
        }
      },
      "hasMinterRole(address)": {
        "params": {
          "_address": "EOA or contract being checked"
        },
        "returns": {
          "_0": "bool True if the account has the role or false if it does not"
        }
      },
      "hasOperatorRole(address)": {
        "params": {
          "_address": "EOA or contract being checked"
        },
        "returns": {
          "_0": "bool True if the account has the role or false if it does not"
        }
      },
      "hasPoints(address,uint256)": {
        "params": {
          "_account": "Account address.",
          "_amount": "Desired amount of points."
        },
        "returns": {
          "_0": "bool True or False."
        }
      },
      "hasRole(bytes32,address)": {
        "details": "Returns `true` if `account` has been granted `role`."
      },
      "hasSmartContractRole(address)": {
        "params": {
          "_address": "EOA or contract being checked"
        },
        "returns": {
          "_0": "bool True if the account has the role or false if it does not"
        }
      },
      "initAccessControls(address)": {
        "params": {
          "_admin": "Admins address."
        }
      },
      "initPointList(address)": {
        "params": {
          "_admin": "Admins address."
        }
      },
      "isInList(address)": {
        "params": {
          "_account": "Account address."
        },
        "returns": {
          "_0": "bool True or False."
        }
      },
      "points(address)": {
        "params": {
          "_account": "Account address."
        },
        "returns": {
          "_0": "uint256 maxPoints."
        }
      },
      "removeAdminRole(address)": {
        "details": "The sender must have the admin role.",
        "params": {
          "_address": "EOA or contract affected."
        }
      },
      "removeMinterRole(address)": {
        "details": "The sender must have the admin role",
        "params": {
          "_address": "EOA or contract affected"
        }
      },
      "removeOperatorRole(address)": {
        "details": "The sender must have the admin role",
        "params": {
          "_address": "EOA or contract affected"
        }
      },
      "removeSmartContractRole(address)": {
        "details": "The sender must have the admin role",
        "params": {
          "_address": "EOA or contract affected"
        }
      },
      "renounceRole(bytes32,address)": {
        "details": "Revokes `role` from the calling account. Roles are often managed via {grantRole} and {revokeRole}: this function's purpose is to provide a mechanism for accounts to lose their privileges if they are compromised (such as when a trusted device is misplaced). If the calling account had been granted `role`, emits a {RoleRevoked} event. Requirements: - the caller must be `account`."
      },
      "revokeRole(bytes32,address)": {
        "details": "Revokes `role` from `account`. If `account` had been granted `role`, emits a {RoleRevoked} event. Requirements: - the caller must have ``role``'s admin role."
      },
      "setPoints(address[],uint256[])": {
        "params": {
          "_accounts": "An array of accounts. Kept for compatibility with IPointList",
          "_amounts": "An array of corresponding amounts. Kept for compatibility with IPointList"
        }
      }
    },
    "version": 1
  },
  "userdoc": {
    "events": {
      "PointsUpdated(uint256,uint256)": {
        "notice": "Event emitted when points are updated."
      }
    },
    "kind": "user",
    "methods": {
      "MINTER_ROLE()": {
        "notice": "Role definitions"
      },
      "addAdminRole(address)": {
        "notice": "Grants the admin role to an address."
      },
      "addMinterRole(address)": {
        "notice": "Grants the minter role to an address"
      },
      "addOperatorRole(address)": {
        "notice": "Grants the operator role to an address"
      },
      "addSmartContractRole(address)": {
        "notice": "Grants the smart contract role to an address"
      },
      "hasAdminRole(address)": {
        "notice": "Used to check whether an address has the admin role."
      },
      "hasMinterRole(address)": {
        "notice": "Used to check whether an address has the minter role"
      },
      "hasOperatorRole(address)": {
        "notice": "Used to check whether an address has the operator role"
      },
      "hasPoints(address,uint256)": {
        "notice": "Checks if maxPoints is bigger or equal to the number given."
      },
      "hasSmartContractRole(address)": {
        "notice": "Used to check whether an address has the smart contract role"
      },
      "initAccessControls(address)": {
        "notice": "Initializes access controls."
      },
      "initPointList(address)": {
        "notice": "Initializes point list with admin address."
      },
      "isInList(address)": {
        "notice": "Returns the maximum amount of points."
      },
      "maxPoints()": {
        "notice": "Maximum amount of points for any address."
      },
      "points(address)": {
        "notice": "Returns the amount of points of any address."
      },
      "removeAdminRole(address)": {
        "notice": "Removes the admin role from an address."
      },
      "removeMinterRole(address)": {
        "notice": "Removes the minter role from an address"
      },
      "removeOperatorRole(address)": {
        "notice": "Removes the operator role from an address"
      },
      "removeSmartContractRole(address)": {
        "notice": "Removes the smart contract role from an address"
      },
      "setPoints(address[],uint256[])": {
        "notice": "Sets maxPoints."
      }
    },
    "version": 1
  },
  "storageLayout": {
    "storage": [
      {
        "astId": 17183,
        "contract": "contracts/Access/MaxList.sol:MaxList",
        "label": "_roles",
        "offset": 0,
        "slot": "0",
        "type": "t_mapping(t_bytes32,t_struct(RoleData)17179_storage)"
      },
      {
        "astId": 808,
        "contract": "contracts/Access/MaxList.sol:MaxList",
        "label": "initAccess",
        "offset": 0,
        "slot": "1",
        "type": "t_bool"
      },
      {
        "astId": 899,
        "contract": "contracts/Access/MaxList.sol:MaxList",
        "label": "maxPoints",
        "offset": 0,
        "slot": "2",
        "type": "t_uint256"
      }
    ],
    "types": {
      "t_array(t_bytes32)dyn_storage": {
        "base": "t_bytes32",
        "encoding": "dynamic_array",
        "label": "bytes32[]",
        "numberOfBytes": "32"
      },
      "t_bool": {
        "encoding": "inplace",
        "label": "bool",
        "numberOfBytes": "1"
      },
      "t_bytes32": {
        "encoding": "inplace",
        "label": "bytes32",
        "numberOfBytes": "32"
      },
      "t_mapping(t_bytes32,t_struct(RoleData)17179_storage)": {
        "encoding": "mapping",
        "key": "t_bytes32",
        "label": "mapping(bytes32 => struct AccessControl.RoleData)",
        "numberOfBytes": "32",
        "value": "t_struct(RoleData)17179_storage"
      },
      "t_mapping(t_bytes32,t_uint256)": {
        "encoding": "mapping",
        "key": "t_bytes32",
        "label": "mapping(bytes32 => uint256)",
        "numberOfBytes": "32",
        "value": "t_uint256"
      },
      "t_struct(AddressSet)18873_storage": {
        "encoding": "inplace",
        "label": "struct EnumerableSet.AddressSet",
        "members": [
          {
            "astId": 18872,
            "contract": "contracts/Access/MaxList.sol:MaxList",
            "label": "_inner",
            "offset": 0,
            "slot": "0",
            "type": "t_struct(Set)18608_storage"
          }
        ],
        "numberOfBytes": "64"
      },
      "t_struct(RoleData)17179_storage": {
        "encoding": "inplace",
        "label": "struct AccessControl.RoleData",
        "members": [
          {
            "astId": 17176,
            "contract": "contracts/Access/MaxList.sol:MaxList",
            "label": "members",
            "offset": 0,
            "slot": "0",
            "type": "t_struct(AddressSet)18873_storage"
          },
          {
            "astId": 17178,
            "contract": "contracts/Access/MaxList.sol:MaxList",
            "label": "adminRole",
            "offset": 0,
            "slot": "2",
            "type": "t_bytes32"
          }
        ],
        "numberOfBytes": "96"
      },
      "t_struct(Set)18608_storage": {
        "encoding": "inplace",
        "label": "struct EnumerableSet.Set",
        "members": [
          {
            "astId": 18603,
            "contract": "contracts/Access/MaxList.sol:MaxList",
            "label": "_values",
            "offset": 0,
            "slot": "0",
            "type": "t_array(t_bytes32)dyn_storage"
          },
          {
            "astId": 18607,
            "contract": "contracts/Access/MaxList.sol:MaxList",
            "label": "_indexes",
            "offset": 0,
            "slot": "1",
            "type": "t_mapping(t_bytes32,t_uint256)"
          }
        ],
        "numberOfBytes": "64"
      },
      "t_uint256": {
        "encoding": "inplace",
        "label": "uint256",
        "numberOfBytes": "32"
      }
    }
  }
}