{
  "address": "0x5fB5d087A67d412350060c848b826B9Fb0FE92bA",
  "abi": [
    {
      "inputs": [],
      "stateMutability": "nonpayable",
      "type": "constructor"
    },
    {
      "anonymous": false,
      "inputs": [
        {
          "indexed": true,
          "internalType": "address",
          "name": "owner",
          "type": "address"
        },
        {
          "indexed": true,
          "internalType": "address",
          "name": "addr",
          "type": "address"
        },
        {
          "indexed": false,
          "internalType": "address",
          "name": "launcherTemplate",
          "type": "address"
        }
      ],
      "name": "LauncherCreated",
      "type": "event"
    },
    {
      "anonymous": false,
      "inputs": [
        {
          "indexed": false,
          "internalType": "address",
          "name": "newLauncher",
          "type": "address"
        },
        {
          "indexed": false,
          "internalType": "uint256",
          "name": "templateId",
          "type": "uint256"
        }
      ],
      "name": "LauncherTemplateAdded",
      "type": "event"
    },
    {
      "anonymous": false,
      "inputs": [
        {
          "indexed": false,
          "internalType": "address",
          "name": "launcher",
          "type": "address"
        },
        {
          "indexed": false,
          "internalType": "uint256",
          "name": "templateId",
          "type": "uint256"
        }
      ],
      "name": "LauncherTemplateRemoved",
      "type": "event"
    },
    {
      "anonymous": false,
      "inputs": [
        {
          "indexed": false,
          "internalType": "address",
          "name": "sender",
          "type": "address"
        }
      ],
      "name": "MisoInitLauncher",
      "type": "event"
    },
    {
      "inputs": [],
      "name": "LAUNCHER_MINTER_ROLE",
      "outputs": [
        {
          "internalType": "bytes32",
          "name": "",
          "type": "bytes32"
        }
      ],
      "stateMutability": "view",
      "type": "function"
    },
    {
      "inputs": [],
      "name": "accessControls",
      "outputs": [
        {
          "internalType": "contract MISOAccessControls",
          "name": "",
          "type": "address"
        }
      ],
      "stateMutability": "view",
      "type": "function"
    },
    {
      "inputs": [
        {
          "internalType": "address",
          "name": "_template",
          "type": "address"
        }
      ],
      "name": "addLiquidityLauncherTemplate",
      "outputs": [],
      "stateMutability": "nonpayable",
      "type": "function"
    },
    {
      "inputs": [],
      "name": "bentoBox",
      "outputs": [
        {
          "internalType": "contract IBentoBoxFactory",
          "name": "",
          "type": "address"
        }
      ],
      "stateMutability": "view",
      "type": "function"
    },
    {
      "inputs": [
        {
          "internalType": "uint256",
          "name": "_templateId",
          "type": "uint256"
        },
        {
          "internalType": "address",
          "name": "_token",
          "type": "address"
        },
        {
          "internalType": "uint256",
          "name": "_tokenSupply",
          "type": "uint256"
        },
        {
          "internalType": "address payable",
          "name": "_integratorFeeAccount",
          "type": "address"
        },
        {
          "internalType": "bytes",
          "name": "_data",
          "type": "bytes"
        }
      ],
      "name": "createLauncher",
      "outputs": [
        {
          "internalType": "address",
          "name": "newLauncher",
          "type": "address"
        }
      ],
      "stateMutability": "payable",
      "type": "function"
    },
    {
      "inputs": [
        {
          "internalType": "uint256",
          "name": "",
          "type": "uint256"
        }
      ],
      "name": "currentTemplateId",
      "outputs": [
        {
          "internalType": "uint256",
          "name": "",
          "type": "uint256"
        }
      ],
      "stateMutability": "view",
      "type": "function"
    },
    {
      "inputs": [
        {
          "internalType": "uint256",
          "name": "_templateId",
          "type": "uint256"
        },
        {
          "internalType": "address payable",
          "name": "_integratorFeeAccount",
          "type": "address"
        }
      ],
      "name": "deployLauncher",
      "outputs": [
        {
          "internalType": "address",
          "name": "launcher",
          "type": "address"
        }
      ],
      "stateMutability": "payable",
      "type": "function"
    },
    {
      "inputs": [
        {
          "internalType": "address",
          "name": "_launcher",
          "type": "address"
        }
      ],
      "name": "getLauncherTemplateId",
      "outputs": [
        {
          "internalType": "uint64",
          "name": "",
          "type": "uint64"
        }
      ],
      "stateMutability": "view",
      "type": "function"
    },
    {
      "inputs": [],
      "name": "getLaunchers",
      "outputs": [
        {
          "internalType": "address[]",
          "name": "",
          "type": "address[]"
        }
      ],
      "stateMutability": "view",
      "type": "function"
    },
    {
      "inputs": [
        {
          "internalType": "uint256",
          "name": "_templateId",
          "type": "uint256"
        }
      ],
      "name": "getLiquidityLauncherTemplate",
      "outputs": [
        {
          "internalType": "address",
          "name": "",
          "type": "address"
        }
      ],
      "stateMutability": "view",
      "type": "function"
    },
    {
      "inputs": [
        {
          "internalType": "address",
          "name": "_launcherTemplate",
          "type": "address"
        }
      ],
      "name": "getTemplateId",
      "outputs": [
        {
          "internalType": "uint256",
          "name": "",
          "type": "uint256"
        }
      ],
      "stateMutability": "view",
      "type": "function"
    },
    {
      "inputs": [
        {
          "internalType": "address",
          "name": "_address",
          "type": "address"
        }
      ],
      "name": "hasLauncherMinterRole",
      "outputs": [
        {
          "internalType": "bool",
          "name": "",
          "type": "bool"
        }
      ],
      "stateMutability": "view",
      "type": "function"
    },
    {
      "inputs": [
        {
          "internalType": "address",
          "name": "_accessControls",
          "type": "address"
        },
        {
          "internalType": "address",
          "name": "_bentoBox",
          "type": "address"
        }
      ],
      "name": "initMISOLauncher",
      "outputs": [],
      "stateMutability": "nonpayable",
      "type": "function"
    },
    {
      "inputs": [],
      "name": "launcherFees",
      "outputs": [
        {
          "internalType": "uint128",
          "name": "minimumFee",
          "type": "uint128"
        },
        {
          "internalType": "uint32",
          "name": "integratorFeePct",
          "type": "uint32"
        }
      ],
      "stateMutability": "view",
      "type": "function"
    },
    {
      "inputs": [
        {
          "internalType": "address",
          "name": "",
          "type": "address"
        }
      ],
      "name": "launcherInfo",
      "outputs": [
        {
          "internalType": "bool",
          "name": "exists",
          "type": "bool"
        },
        {
          "internalType": "uint64",
          "name": "templateId",
          "type": "uint64"
        },
        {
          "internalType": "uint128",
          "name": "index",
          "type": "uint128"
        }
      ],
      "stateMutability": "view",
      "type": "function"
    },
    {
      "inputs": [],
      "name": "launcherTemplateId",
      "outputs": [
        {
          "internalType": "uint256",
          "name": "",
          "type": "uint256"
        }
      ],
      "stateMutability": "view",
      "type": "function"
    },
    {
      "inputs": [
        {
          "internalType": "uint256",
          "name": "",
          "type": "uint256"
        }
      ],
      "name": "launchers",
      "outputs": [
        {
          "internalType": "address",
          "name": "",
          "type": "address"
        }
      ],
      "stateMutability": "view",
      "type": "function"
    },
    {
      "inputs": [],
      "name": "locked",
      "outputs": [
        {
          "internalType": "bool",
          "name": "",
          "type": "bool"
        }
      ],
      "stateMutability": "view",
      "type": "function"
    },
    {
      "inputs": [],
      "name": "minimumFee",
      "outputs": [
        {
          "internalType": "uint128",
          "name": "",
          "type": "uint128"
        }
      ],
      "stateMutability": "view",
      "type": "function"
    },
    {
      "inputs": [],
      "name": "misoDiv",
      "outputs": [
        {
          "internalType": "address payable",
          "name": "",
          "type": "address"
        }
      ],
      "stateMutability": "view",
      "type": "function"
    },
    {
      "inputs": [],
      "name": "numberOfLiquidityLauncherContracts",
      "outputs": [
        {
          "internalType": "uint256",
          "name": "",
          "type": "uint256"
        }
      ],
      "stateMutability": "view",
      "type": "function"
    },
    {
      "inputs": [
        {
          "internalType": "uint256",
          "name": "_templateId",
          "type": "uint256"
        }
      ],
      "name": "removeLiquidityLauncherTemplate",
      "outputs": [],
      "stateMutability": "nonpayable",
      "type": "function"
    },
    {
      "inputs": [
        {
          "internalType": "uint256",
          "name": "_templateType",
          "type": "uint256"
        },
        {
          "internalType": "uint256",
          "name": "_templateId",
          "type": "uint256"
        }
      ],
      "name": "setCurrentTemplateId",
      "outputs": [],
      "stateMutability": "nonpayable",
      "type": "function"
    },
    {
      "inputs": [
        {
          "internalType": "address payable",
          "name": "_divaddr",
          "type": "address"
        }
      ],
      "name": "setDividends",
      "outputs": [],
      "stateMutability": "nonpayable",
      "type": "function"
    },
    {
      "inputs": [
        {
          "internalType": "uint256",
          "name": "_amount",
          "type": "uint256"
        }
      ],
      "name": "setIntegratorFeePct",
      "outputs": [],
      "stateMutability": "nonpayable",
      "type": "function"
    },
    {
      "inputs": [
        {
          "internalType": "bool",
          "name": "_locked",
          "type": "bool"
        }
      ],
      "name": "setLocked",
      "outputs": [],
      "stateMutability": "nonpayable",
      "type": "function"
    },
    {
      "inputs": [
        {
          "internalType": "uint256",
          "name": "_amount",
          "type": "uint256"
        }
      ],
      "name": "setMinimumFee",
      "outputs": [],
      "stateMutability": "nonpayable",
      "type": "function"
    }
  ],
  "transactionHash": "0x34da79ca57d7d876c69090ff99603f7a9396313749352f24b2c41587bde4988c",
  "args": [],
  "numDeployments": 1,
  "solcInputHash": "5f16f235179430f8f431a3a607dd8012",
  "bytecode": "0x608060405234801561001057600080fd5b506123d7806100206000396000f3fe60806040526004361061019c5760003560e01c80638637e041116100ec578063bc79913b1161008a578063cf30901211610064578063cf30901214610661578063d335ebda14610676578063f0ba33eb146106a9578063fcb62f90146106e45761019c565b8063bc79913b146105d0578063c9907b0814610620578063cd70f734146106355761019c565b806392787b48116100c657806392787b481461052e57806396f1266e146105585780639e5940cc1461056d5780639e9188ea1461059d5761019c565b80638637e041146104bd57806386adc322146104d25780638c363a0b146104e75761019c565b8063632cef90116101595780636de88d97116101335780636de88d97146103e657806370433d0314610410578063748365ef146104755780637b7fb1531461048a5761019c565b8063632cef90146102d65780636b2ace871461036c5780636c4ceb36146103815761019c565b8063182a7506146101a15780631a7626e7146101cd578063211e28b6146101fe5780632ed4f5781461022a5780633eb63aa0146102665780633f1f44b0146102ac575b600080fd5b3480156101ad57600080fd5b506101cb600480360360208110156101c457600080fd5b5035610721565b005b3480156101d957600080fd5b506101e2610808565b604080516001600160801b039092168252519081900360200190f35b34801561020a57600080fd5b506101cb6004803603602081101561022157600080fd5b50351515610817565b34801561023657600080fd5b506102546004803603602081101561024d57600080fd5b50356108dc565b60408051918252519081900360200190f35b34801561027257600080fd5b506102906004803603602081101561028957600080fd5b50356108ee565b604080516001600160a01b039092168252519081900360200190f35b3480156102b857600080fd5b506101cb600480360360208110156102cf57600080fd5b5035610915565b610290600480360360a08110156102ec57600080fd5b8135916001600160a01b0360208201358116926040830135926060810135909216919081019060a08101608082013564010000000081111561032d57600080fd5b82018360208201111561033f57600080fd5b8035906020019184600183028401116401000000008311171561036157600080fd5b509092509050610a39565b34801561037857600080fd5b50610290610b9b565b34801561038d57600080fd5b506103b4600480360360208110156103a457600080fd5b50356001600160a01b0316610baa565b60408051931515845267ffffffffffffffff90921660208401526001600160801b031682820152519081900360600190f35b3480156103f257600080fd5b506102906004803603602081101561040957600080fd5b5035610be1565b34801561041c57600080fd5b50610425610bfc565b60408051602080825283518183015283519192839290830191858101910280838360005b83811015610461578181015183820152602001610449565b505050509050019250505060405180910390f35b34801561048157600080fd5b50610290610c5e565b34801561049657600080fd5b506101cb600480360360208110156104ad57600080fd5b50356001600160a01b0316610c6d565b3480156104c957600080fd5b50610254610ed2565b3480156104de57600080fd5b50610254610ef6565b3480156104f357600080fd5b5061051a6004803603602081101561050a57600080fd5b50356001600160a01b0316610efc565b604080519115158252519081900360200190f35b34801561053a57600080fd5b506101cb6004803603602081101561055157600080fd5b5035610fa2565b34801561056457600080fd5b506102546111fc565b34801561057957600080fd5b506101cb6004803603604081101561059057600080fd5b5080359060200135611202565b3480156105a957600080fd5b506101cb600480360360208110156105c057600080fd5b50356001600160a01b0316611344565b3480156105dc57600080fd5b50610603600480360360208110156105f357600080fd5b50356001600160a01b0316611431565b6040805167ffffffffffffffff9092168252519081900360200190f35b34801561062c57600080fd5b5061029061145b565b6102906004803603604081101561064b57600080fd5b50803590602001356001600160a01b031661146f565b34801561066d57600080fd5b5061051a611957565b34801561068257600080fd5b506102546004803603602081101561069957600080fd5b50356001600160a01b0316611960565b3480156106b557600080fd5b506101cb600480360360408110156106cc57600080fd5b506001600160a01b038135811691602001351661197b565b3480156106f057600080fd5b506106f9611a9b565b604080516001600160801b03909316835263ffffffff90911660208301528051918290030190f35b6000546040805163c395fcb360e01b815233600482015290516001600160a01b039092169163c395fcb391602480820192602092909190829003018186803b15801561076c57600080fd5b505afa158015610780573d6000803e3d6000fd5b505050506040513d602081101561079657600080fd5b50516107d35760405162461bcd60e51b81526004018080602001828103825260258152602001806121cb6025913960400191505060405180910390fd5b6107dc81611ab9565b600880546fffffffffffffffffffffffffffffffff19166001600160801b039290921691909117905550565b6008546001600160801b031690565b6000546040805163c395fcb360e01b815233600482015290516001600160a01b039092169163c395fcb391602480820192602092909190829003018186803b15801561086257600080fd5b505afa158015610876573d6000803e3d6000fd5b505050506040513d602081101561088c57600080fd5b50516108c95760405162461bcd60e51b81526004018080602001828103825260228152602001806122686022913960400191505060405180910390fd5b6009805460ff1916911515919091179055565b60066020526000908152604090205481565b600181815481106108fb57fe5b6000918252602090912001546001600160a01b0316905081565b6000546040805163c395fcb360e01b815233600482015290516001600160a01b039092169163c395fcb391602480820192602092909190829003018186803b15801561096057600080fd5b505afa158015610974573d6000803e3d6000fd5b505050506040513d602081101561098a57600080fd5b50516109c75760405162461bcd60e51b81526004018080602001828103825260258152602001806121cb6025913960400191505060405180910390fd5b6103e8811115610a085760405162461bcd60e51b81526004018080602001828103825260278152602001806121f06027913960400191505060405180910390fd5b610a1181611b1b565b6008805463ffffffff92909216600160801b0263ffffffff60801b1990921691909117905550565b6000610a45878561146f565b90508415610a6c57610a58863387611b76565b610a6c6001600160a01b0387168287611c9e565b604051637c17e46760e11b8152602060048201908152602482018490526001600160a01b0383169163f82fc8ce9186918691908190604401848480828437600081840152601f19601f8201169050808301925050509350505050600060405180830381600087803b158015610ae057600080fd5b505af1158015610af4573d6000803e3d6000fd5b505050506000851115610b91576000866001600160a01b03166370a08231306040518263ffffffff1660e01b815260040180826001600160a01b0316815260200191505060206040518083038186803b158015610b5057600080fd5b505afa158015610b64573d6000803e3d6000fd5b505050506040513d6020811015610b7a57600080fd5b505190508015610b8f57610b8f873383611db6565b505b9695505050505050565b6003546001600160a01b031681565b60076020526000908152604090205460ff811690610100810467ffffffffffffffff1690600160481b90046001600160801b031683565b6000908152600460205260409020546001600160a01b031690565b60606001805480602002602001604051908101604052809291908181526020018280548015610c5457602002820191906000526020600020905b81546001600160a01b03168152600190910190602001808311610c36575b5050505050905090565b6000546001600160a01b031681565b6000546040805163c395fcb360e01b815233600482015290516001600160a01b039092169163c395fcb391602480820192602092909190829003018186803b158015610cb857600080fd5b505afa158015610ccc573d6000803e3d6000fd5b505050506040513d6020811015610ce257600080fd5b505180610d62575060005460408051637e271f0560e11b815233600482015290516001600160a01b039092169163fc4e3e0a91602480820192602092909190829003018186803b158015610d3557600080fd5b505afa158015610d49573d6000803e3d6000fd5b505050506040513d6020811015610d5f57600080fd5b50515b610d9d5760405162461bcd60e51b81526004018080602001828103825260258152602001806121cb6025913960400191505060405180910390fd5b6000816001600160a01b0316638566de4b6040518163ffffffff1660e01b815260040160206040518083038186803b158015610dd857600080fd5b505afa158015610dec573d6000803e3d6000fd5b505050506040513d6020811015610e0257600080fd5b5051905080610e425760405162461bcd60e51b81526004018080602001828103825260258152602001806121a66025913960400191505060405180910390fd5b60028054600101808255600090815260046020908152604080832080546001600160a01b0319166001600160a01b038816908117909155935484845260058352818420819055858452600683529281902083905580519384529083019190915280517f6c52e34db307a16709b387d61b2de0b4dd4a2ef6fd68b04b5515ef00a533b18f9281900390910190a15050565b7fceb69df9dd42f6c115645ad1e6ac8c9f124a39546dd50de2e04024128b14698081565b60015490565b6000805460408051632474521560e21b81527fceb69df9dd42f6c115645ad1e6ac8c9f124a39546dd50de2e04024128b14698060048201526001600160a01b038581166024830152915191909216916391d14854916044808301926020929190829003018186803b158015610f7057600080fd5b505afa158015610f84573d6000803e3d6000fd5b505050506040513d6020811015610f9a57600080fd5b505192915050565b6000546040805163c395fcb360e01b815233600482015290516001600160a01b039092169163c395fcb391602480820192602092909190829003018186803b158015610fed57600080fd5b505afa158015611001573d6000803e3d6000fd5b505050506040513d602081101561101757600080fd5b505180611097575060005460408051637e271f0560e11b815233600482015290516001600160a01b039092169163fc4e3e0a91602480820192602092909190829003018186803b15801561106a57600080fd5b505afa15801561107e573d6000803e3d6000fd5b505050506040513d602081101561109457600080fd5b50515b6110d25760405162461bcd60e51b81526004018080602001828103825260258152602001806121cb6025913960400191505060405180910390fd5b6000818152600460205260409020546001600160a01b03166110f357600080fd5b600081815260046020818152604080842080546001600160a01b031981169091556001600160a01b0316808552600583528185208590558151638566de4b60e01b815291519094938593638566de4b9380830193919290829003018186803b15801561115e57600080fd5b505afa158015611172573d6000803e3d6000fd5b505050506040513d602081101561118857600080fd5b50516000818152600660205260409020549091508314156111b3576000818152600660205260408120555b604080516001600160a01b03841681526020810185905281517f9c4b27a4ee95cde6444d871111211ff603accbdff0b4e96e07af9f4eba52be57929181900390910190a1505050565b60025481565b6000546040805163c395fcb360e01b815233600482015290516001600160a01b039092169163c395fcb391602480820192602092909190829003018186803b15801561124d57600080fd5b505afa158015611261573d6000803e3d6000fd5b505050506040513d602081101561127757600080fd5b5051806112f7575060005460408051637e271f0560e11b815233600482015290516001600160a01b039092169163fc4e3e0a91602480820192602092909190829003018186803b1580156112ca57600080fd5b505afa1580156112de573d6000803e3d6000fd5b505050506040513d60208110156112f457600080fd5b50515b6113325760405162461bcd60e51b815260040180806020018281038252602581526020018061231d6025913960400191505060405180910390fd5b60009182526006602052604090912055565b6000546040805163c395fcb360e01b815233600482015290516001600160a01b039092169163c395fcb391602480820192602092909190829003018186803b15801561138f57600080fd5b505afa1580156113a3573d6000803e3d6000fd5b505050506040513d60208110156113b957600080fd5b50516113f65760405162461bcd60e51b81526004018080602001828103825260258152602001806121cb6025913960400191505060405180910390fd5b6001600160a01b03811661140957600080fd5b600980546001600160a01b0390921661010002610100600160a81b0319909216919091179055565b6001600160a01b0316600090815260076020526040902054610100900467ffffffffffffffff1690565b60095461010090046001600160a01b031681565b60095460009060ff16156115bc576000546040805163c395fcb360e01b815233600482015290516001600160a01b039092169163c395fcb391602480820192602092909190829003018186803b1580156114c857600080fd5b505afa1580156114dc573d6000803e3d6000fd5b505050506040513d60208110156114f257600080fd5b50518061157257506000546040805163099db01760e01b815233600482015290516001600160a01b039092169163099db01791602480820192602092909190829003018186803b15801561154557600080fd5b505afa158015611559573d6000803e3d6000fd5b505050506040513d602081101561156f57600080fd5b50515b80611581575061158133610efc565b6115bc5760405162461bcd60e51b815260040180806020018281038252602d81526020018061228a602d913960400191505060405180910390fd5b6115c4612161565b506040805180820182526008546001600160801b038082168352600160801b90910463ffffffff16602080840191909152600087815260049091529290922054815191926001600160a01b0390911691163410156116535760405162461bcd60e51b815260040180806020018281038252602b81526020018061223d602b913960400191505060405180910390fd5b6001600160a01b0381166116985760405162461bcd60e51b815260040180806020018281038252602d815260200180612179602d913960400191505060405180910390fd5b6000346001600160a01b038616158015906116c657506009546001600160a01b038781166101009092041614155b156116e9576103e8846020015163ffffffff168202816116e257fe5b0491508190035b60035460408051631f54245b60e01b81526001600160a01b03868116600483015260006044830181905260606024840152606483018190529251931692631f54245b9260a480840193602093929083900390910190829087803b15801561174f57600080fd5b505af1158015611763573d6000803e3d6000fd5b505050506040513d602081101561177957600080fd5b50516040805160608101909152600181529095506020810161179a89611e32565b67ffffffffffffffff1681526020016117b7600180549050611ab9565b6001600160801b039081169091526001600160a01b038088166000818152600760209081526040808320875181548985015199840151909816600160481b0278ffffffffffffffffffffffffffffffff0000000000000000001967ffffffffffffffff909a166101000268ffffffffffffffff001992151560ff19909a169990991791909116979097179790971695909517909555600180548082019091557fb10e2d527612073b26eecdfd717e6a320cf44b4afac2b0732d9fcbe2b7fa0cf60180546001600160a01b031916831790558b815260048552839020548351921682529151919233927f3ba8b254094e662ed7500a3ad77fd9f4f041f221a7b9f0714e3fdbf324c5d8639281900390910190a3801561190f576009546040516101009091046001600160a01b0316906108fc8315029083906000818181858888f1935050505015801561190d573d6000803e3d6000fd5b505b811561194d576040516001600160a01b0387169083156108fc029084906000818181858888f1935050505015801561194b573d6000803e3d6000fd5b505b5050505092915050565b60095460ff1681565b6001600160a01b031660009081526005602052604090205490565b600054600160a01b900460ff161561199257600080fd5b6001600160a01b0382166119d75760405162461bcd60e51b81526004018080602001828103825260368152602001806122b76036913960400191505060405180910390fd5b6001600160a01b038116611a1c5760405162461bcd60e51b81526004018080602001828103825260308152602001806122ed6030913960400191505060405180910390fd5b60008054600380546001600160a01b038581166001600160a01b0319928316179092556009805460ff1916600117905560ff60a01b1991861692169190911716600160a01b1790556040805133815290517f273553a2db9d9c7afb53120e2c4a60f274686bbe8e64b350d64aaa9d6289397e9181900360200190a15050565b6008546001600160801b03811690600160801b900463ffffffff1682565b60006001600160801b03821115611b17576040805162461bcd60e51b815260206004820152601c60248201527f426f72696e674d6174683a2075696e74313238204f766572666c6f7700000000604482015290519081900360640190fd5b5090565b600063ffffffff821115611b17576040805162461bcd60e51b815260206004820152601b60248201527f426f72696e674d6174683a2075696e743332204f766572666c6f770000000000604482015290519081900360640190fd5b604080516001600160a01b038481166024830152306044830152606480830185905283518084039091018152608490920183526020820180516001600160e01b03166323b872dd60e01b178152925182516000946060949389169392918291908083835b60208310611bf95780518252601f199092019160209182019101611bda565b6001836020036101000a0380198251168184511680821785525050505050509050019150506000604051808303816000865af19150503d8060008114611c5b576040519150601f19603f3d011682016040523d82523d6000602084013e611c60565b606091505b5091509150818015611c8e575080511580611c8e5750808060200190516020811015611c8b57600080fd5b50515b611c9757600080fd5b5050505050565b801580611d24575060408051636eb1769f60e11b81523060048201526001600160a01b03848116602483015291519185169163dd62ed3e91604480820192602092909190829003018186803b158015611cf657600080fd5b505afa158015611d0a573d6000803e3d6000fd5b505050506040513d6020811015611d2057600080fd5b5051155b611d5f5760405162461bcd60e51b815260040180806020018281038252603681526020018061236c6036913960400191505060405180910390fd5b604080516001600160a01b038416602482015260448082018490528251808303909101815260649091019091526020810180516001600160e01b031663095ea7b360e01b179052611db1908490611e91565b505050565b604080516001600160a01b038481166024830152604480830185905283518084039091018152606490920183526020820180516001600160e01b031663a9059cbb60e01b1781529251825160009460609493891693929182919080838360208310611bf95780518252601f199092019160209182019101611bda565b600067ffffffffffffffff821115611b17576040805162461bcd60e51b815260206004820152601b60248201527f426f72696e674d6174683a2075696e743634204f766572666c6f770000000000604482015290519081900360640190fd5b6060611ee6826040518060400160405280602081526020017f5361666545524332303a206c6f772d6c6576656c2063616c6c206661696c6564815250856001600160a01b0316611f429092919063ffffffff16565b805190915015611db157808060200190516020811015611f0557600080fd5b5051611db15760405162461bcd60e51b815260040180806020018281038252602a815260200180612342602a913960400191505060405180910390fd5b6060611f518484600085611f5b565b90505b9392505050565b606082471015611f9c5760405162461bcd60e51b81526004018080602001828103825260268152602001806122176026913960400191505060405180910390fd5b611fa5856120b7565b611ff6576040805162461bcd60e51b815260206004820152601d60248201527f416464726573733a2063616c6c20746f206e6f6e2d636f6e7472616374000000604482015290519081900360640190fd5b60006060866001600160a01b031685876040518082805190602001908083835b602083106120355780518252601f199092019160209182019101612016565b6001836020036101000a03801982511681845116808217855250505050505090500191505060006040518083038185875af1925050503d8060008114612097576040519150601f19603f3d011682016040523d82523d6000602084013e61209c565b606091505b50915091506120ac8282866120bd565b979650505050505050565b3b151590565b606083156120cc575081611f54565b8251156120dc5782518084602001fd5b8160405162461bcd60e51b81526004018080602001828103825283818151815260200191508051906020019080838360005b8381101561212657818101518382015260200161210e565b50505050905090810190601f1680156121535780820380516001836020036101000a031916815260200191505b509250505060405180910390fd5b60408051808201909152600080825260208201529056fe4d49534f4c61756e636865723a204c61756e636865722074656d706c61746520646f65736e27742065786973744d49534f4c61756e636865723a20496e636f72726563742074656d706c61746520636f64654d49534f4c61756e636865723a2053656e646572206d757374206265206f70657261746f724d49534f4c61756e636865723a2050657263656e74616765206973206f7574206f662031303030416464726573733a20696e73756666696369656e742062616c616e636520666f722063616c6c4d49534f4c61756e636865723a204661696c656420746f207472616e73666572206d696e696d756d4665654d49534f4c61756e636865723a2053656e646572206d7573742062652061646d696e4d49534f4c61756e636865723a2053656e646572206d757374206265206d696e746572206966206c6f636b6564696e69744d49534f4c61756e636865723a20616363657373436f6e74726f6c732063616e6e6f742062652073657420746f207a65726f696e69744d49534f4c61756e636865723a2062656e746f426f782063616e6e6f742062652073657420746f207a65726f4d49534f4c61756e636865723a2053656e646572206d757374206265204f70657261746f725361666545524332303a204552433230206f7065726174696f6e20646964206e6f7420737563636565645361666545524332303a20617070726f76652066726f6d206e6f6e2d7a65726f20746f206e6f6e2d7a65726f20616c6c6f77616e6365a26469706673582212208237b385945ef55252159352c3564e09ef1bf758f927c5ac0ad15f1f2c0a6bcd64736f6c634300060c0033",
  "devdoc": {
    "kind": "dev",
    "methods": {
      "addLiquidityLauncherTemplate(address)": {
        "details": "Should have operator access",
        "params": {
          "_template": "Launcher template address."
        }
      },
      "createLauncher(uint256,address,uint256,address,bytes)": {
        "details": "Initializes auction with the parameters passed.",
        "params": {
          "_data": "Data to be sent to template on Init.",
          "_integratorFeeAccount": "Address to send refferal bonus, if set.",
          "_templateId": "Id of the auction template to create.",
          "_token": "The token address to be sold.",
          "_tokenSupply": "Amount of tokens to be sold at market."
        },
        "returns": {
          "newLauncher": "Launcher address."
        }
      },
      "deployLauncher(uint256,address)": {
        "params": {
          "_integratorFeeAccount": "Address to pay the fee to.",
          "_templateId": "Template id of the launcher to create."
        },
        "returns": {
          "launcher": " Launcher address."
        }
      },
      "getLiquidityLauncherTemplate(uint256)": {
        "params": {
          "_templateId": "Launcher template ID."
        },
        "returns": {
          "_0": "address of the required template ID."
        }
      },
      "hasLauncherMinterRole(address)": {
        "params": {
          "_address": "EOA or contract being checked"
        },
        "returns": {
          "_0": "bool True if the account has the role or false if it does not"
        }
      },
      "initMISOLauncher(address,address)": {
        "details": "Can only be initialized once.",
        "params": {
          "_accessControls": "Sets address to get the access controls from."
        }
      },
      "numberOfLiquidityLauncherContracts()": {
        "returns": {
          "_0": "uint256 Launcher count."
        }
      },
      "removeLiquidityLauncherTemplate(uint256)": {
        "details": "Function to remove a launcher template from factory.Should have operator access.",
        "params": {
          "_templateId": "Id of the template to be deleted."
        }
      },
      "setCurrentTemplateId(uint256,uint256)": {
        "params": {
          "_templateId": "The ID of the current template for that type",
          "_templateType": "Type of template."
        }
      },
      "setDividends(address)": {
        "params": {
          "_divaddr": "Dividend address."
        }
      },
      "setIntegratorFeePct(uint256)": {
        "params": {
          "_amount": "Percentage amount."
        }
      },
      "setLocked(bool)": {
        "params": {
          "_locked": "bool."
        }
      },
      "setMinimumFee(uint256)": {
        "params": {
          "_amount": "Fee amount."
        }
      }
    },
    "version": 1
  },
  "userdoc": {
    "events": {
      "LauncherCreated(address,address,address)": {
        "notice": "Event emitted when launcher is created using template id."
      },
      "LauncherTemplateAdded(address,uint256)": {
        "notice": "Event emitted when launcher template is added to factory."
      },
      "LauncherTemplateRemoved(address,uint256)": {
        "notice": "Event emitted when launcher template is removed."
      },
      "MisoInitLauncher(address)": {
        "notice": "Event emitted when first intializing the liquidity launcher."
      }
    },
    "kind": "user",
    "methods": {
      "accessControls()": {
        "notice": "Responsible for access rights to the contract."
      },
      "addLiquidityLauncherTemplate(address)": {
        "notice": "Function to add a launcher template to create through factory."
      },
      "createLauncher(uint256,address,uint256,address,bytes)": {
        "notice": "Creates a new MISOLauncher using _templateId."
      },
      "deployLauncher(uint256,address)": {
        "notice": "Creates a launcher corresponding to _templateId."
      },
      "getLiquidityLauncherTemplate(uint256)": {
        "notice": "Get the address based on launcher template ID."
      },
      "hasLauncherMinterRole(address)": {
        "notice": "Used to check whether an address has the minter role"
      },
      "initMISOLauncher(address,address)": {
        "notice": "Single gateway to initialize the MISO Launcher with proper address."
      },
      "launcherFees()": {
        "notice": "Minimum fee to create a launcher through the factory."
      },
      "launcherInfo(address)": {
        "notice": "Mapping from launcher created through this contract to Launcher struct."
      },
      "launcherTemplateId()": {
        "notice": "Template id to track respective auction template."
      },
      "launchers(uint256)": {
        "notice": "All the launchers created using factory."
      },
      "locked()": {
        "notice": "Contract locked status. If locked, only minters can deploy"
      },
      "misoDiv()": {
        "notice": "Any donations if set are sent here."
      },
      "numberOfLiquidityLauncherContracts()": {
        "notice": "Get the total number of launchers in the contract."
      },
      "setCurrentTemplateId(uint256,uint256)": {
        "notice": "Sets the current template ID for any type."
      },
      "setDividends(address)": {
        "notice": "Sets dividend address."
      },
      "setIntegratorFeePct(uint256)": {
        "notice": "Sets integrator fee percentage."
      },
      "setLocked(bool)": {
        "notice": "Sets the factory to be locked or unlocked."
      },
      "setMinimumFee(uint256)": {
        "notice": "Sets the minimum fee."
      }
    },
    "version": 1
  },
  "storageLayout": {
    "storage": [
      {
        "astId": 14701,
        "contract": "contracts/MISOLauncher.sol:MISOLauncher",
        "label": "accessControls",
        "offset": 0,
        "slot": "0",
        "type": "t_contract(MISOAccessControls)583"
      },
      {
        "astId": 14709,
        "contract": "contracts/MISOLauncher.sol:MISOLauncher",
        "label": "initialised",
        "offset": 20,
        "slot": "0",
        "type": "t_bool"
      },
      {
        "astId": 14720,
        "contract": "contracts/MISOLauncher.sol:MISOLauncher",
        "label": "launchers",
        "offset": 0,
        "slot": "1",
        "type": "t_array(t_address)dyn_storage"
      },
      {
        "astId": 14723,
        "contract": "contracts/MISOLauncher.sol:MISOLauncher",
        "label": "launcherTemplateId",
        "offset": 0,
        "slot": "2",
        "type": "t_uint256"
      },
      {
        "astId": 14725,
        "contract": "contracts/MISOLauncher.sol:MISOLauncher",
        "label": "bentoBox",
        "offset": 0,
        "slot": "3",
        "type": "t_contract(IBentoBoxFactory)27793"
      },
      {
        "astId": 14730,
        "contract": "contracts/MISOLauncher.sol:MISOLauncher",
        "label": "launcherTemplates",
        "offset": 0,
        "slot": "4",
        "type": "t_mapping(t_uint256,t_address)"
      },
      {
        "astId": 14735,
        "contract": "contracts/MISOLauncher.sol:MISOLauncher",
        "label": "launcherTemplateToId",
        "offset": 0,
        "slot": "5",
        "type": "t_mapping(t_address,t_uint256)"
      },
      {
        "astId": 14739,
        "contract": "contracts/MISOLauncher.sol:MISOLauncher",
        "label": "currentTemplateId",
        "offset": 0,
        "slot": "6",
        "type": "t_mapping(t_uint256,t_uint256)"
      },
      {
        "astId": 14744,
        "contract": "contracts/MISOLauncher.sol:MISOLauncher",
        "label": "launcherInfo",
        "offset": 0,
        "slot": "7",
        "type": "t_mapping(t_address,t_struct(Launcher)14716_storage)"
      },
      {
        "astId": 14752,
        "contract": "contracts/MISOLauncher.sol:MISOLauncher",
        "label": "launcherFees",
        "offset": 0,
        "slot": "8",
        "type": "t_struct(LauncherFees)14749_storage"
      },
      {
        "astId": 14755,
        "contract": "contracts/MISOLauncher.sol:MISOLauncher",
        "label": "locked",
        "offset": 0,
        "slot": "9",
        "type": "t_bool"
      },
      {
        "astId": 14758,
        "contract": "contracts/MISOLauncher.sol:MISOLauncher",
        "label": "misoDiv",
        "offset": 1,
        "slot": "9",
        "type": "t_address_payable"
      }
    ],
    "types": {
      "t_address": {
        "encoding": "inplace",
        "label": "address",
        "numberOfBytes": "20"
      },
      "t_address_payable": {
        "encoding": "inplace",
        "label": "address payable",
        "numberOfBytes": "20"
      },
      "t_array(t_address)dyn_storage": {
        "base": "t_address",
        "encoding": "dynamic_array",
        "label": "address[]",
        "numberOfBytes": "32"
      },
      "t_bool": {
        "encoding": "inplace",
        "label": "bool",
        "numberOfBytes": "1"
      },
      "t_contract(IBentoBoxFactory)27793": {
        "encoding": "inplace",
        "label": "contract IBentoBoxFactory",
        "numberOfBytes": "20"
      },
      "t_contract(MISOAccessControls)583": {
        "encoding": "inplace",
        "label": "contract MISOAccessControls",
        "numberOfBytes": "20"
      },
      "t_mapping(t_address,t_struct(Launcher)14716_storage)": {
        "encoding": "mapping",
        "key": "t_address",
        "label": "mapping(address => struct MISOLauncher.Launcher)",
        "numberOfBytes": "32",
        "value": "t_struct(Launcher)14716_storage"
      },
      "t_mapping(t_address,t_uint256)": {
        "encoding": "mapping",
        "key": "t_address",
        "label": "mapping(address => uint256)",
        "numberOfBytes": "32",
        "value": "t_uint256"
      },
      "t_mapping(t_uint256,t_address)": {
        "encoding": "mapping",
        "key": "t_uint256",
        "label": "mapping(uint256 => address)",
        "numberOfBytes": "32",
        "value": "t_address"
      },
      "t_mapping(t_uint256,t_uint256)": {
        "encoding": "mapping",
        "key": "t_uint256",
        "label": "mapping(uint256 => uint256)",
        "numberOfBytes": "32",
        "value": "t_uint256"
      },
      "t_struct(Launcher)14716_storage": {
        "encoding": "inplace",
        "label": "struct MISOLauncher.Launcher",
        "members": [
          {
            "astId": 14711,
            "contract": "contracts/MISOLauncher.sol:MISOLauncher",
            "label": "exists",
            "offset": 0,
            "slot": "0",
            "type": "t_bool"
          },
          {
            "astId": 14713,
            "contract": "contracts/MISOLauncher.sol:MISOLauncher",
            "label": "templateId",
            "offset": 1,
            "slot": "0",
            "type": "t_uint64"
          },
          {
            "astId": 14715,
            "contract": "contracts/MISOLauncher.sol:MISOLauncher",
            "label": "index",
            "offset": 9,
            "slot": "0",
            "type": "t_uint128"
          }
        ],
        "numberOfBytes": "32"
      },
      "t_struct(LauncherFees)14749_storage": {
        "encoding": "inplace",
        "label": "struct MISOLauncher.LauncherFees",
        "members": [
          {
            "astId": 14746,
            "contract": "contracts/MISOLauncher.sol:MISOLauncher",
            "label": "minimumFee",
            "offset": 0,
            "slot": "0",
            "type": "t_uint128"
          },
          {
            "astId": 14748,
            "contract": "contracts/MISOLauncher.sol:MISOLauncher",
            "label": "integratorFeePct",
            "offset": 16,
            "slot": "0",
            "type": "t_uint32"
          }
        ],
        "numberOfBytes": "32"
      },
      "t_uint128": {
        "encoding": "inplace",
        "label": "uint128",
        "numberOfBytes": "16"
      },
      "t_uint256": {
        "encoding": "inplace",
        "label": "uint256",
        "numberOfBytes": "32"
      },
      "t_uint32": {
        "encoding": "inplace",
        "label": "uint32",
        "numberOfBytes": "4"
      },
      "t_uint64": {
        "encoding": "inplace",
        "label": "uint64",
        "numberOfBytes": "8"
      }
    }
  }
}