{
  "address": "0xc4F47C2E7480c8A8896aB527F2a2F50e1a9d3f9b",
  "abi": [
    {
      "inputs": [
        {
          "internalType": "address",
          "name": "_accessControls",
          "type": "address"
        },
        {
          "internalType": "address",
          "name": "_tokenFactory",
          "type": "address"
        },
        {
          "internalType": "address",
          "name": "_market",
          "type": "address"
        },
        {
          "internalType": "address",
          "name": "_launcher",
          "type": "address"
        },
        {
          "internalType": "address",
          "name": "_farmFactory",
          "type": "address"
        }
      ],
      "stateMutability": "nonpayable",
      "type": "constructor"
    },
    {
      "inputs": [],
      "name": "accessControls",
      "outputs": [
        {
          "internalType": "contract MISOAccessControls",
          "name": "",
          "type": "address"
        }
      ],
      "stateMutability": "view",
      "type": "function"
    },
    {
      "inputs": [
        {
          "internalType": "address",
          "name": "_token",
          "type": "address"
        },
        {
          "internalType": "address",
          "name": "_owner",
          "type": "address"
        },
        {
          "internalType": "address",
          "name": "_spender",
          "type": "address"
        }
      ],
      "name": "allowance",
      "outputs": [
        {
          "internalType": "uint256",
          "name": "",
          "type": "uint256"
        }
      ],
      "stateMutability": "view",
      "type": "function"
    },
    {
      "inputs": [],
      "name": "farmFactory",
      "outputs": [
        {
          "internalType": "contract IMisoFarmFactory",
          "name": "",
          "type": "address"
        }
      ],
      "stateMutability": "view",
      "type": "function"
    },
    {
      "inputs": [
        {
          "internalType": "address payable",
          "name": "_batchAuction",
          "type": "address"
        }
      ],
      "name": "getBatchAuctionInfo",
      "outputs": [
        {
          "components": [
            {
              "internalType": "address",
              "name": "addr",
              "type": "address"
            },
            {
              "internalType": "address",
              "name": "paymentCurrency",
              "type": "address"
            },
            {
              "internalType": "uint64",
              "name": "startTime",
              "type": "uint64"
            },
            {
              "internalType": "uint64",
              "name": "endTime",
              "type": "uint64"
            },
            {
              "internalType": "uint128",
              "name": "totalTokens",
              "type": "uint128"
            },
            {
              "internalType": "uint256",
              "name": "commitmentsTotal",
              "type": "uint256"
            },
            {
              "internalType": "uint256",
              "name": "minimumCommitmentAmount",
              "type": "uint256"
            },
            {
              "internalType": "bool",
              "name": "finalized",
              "type": "bool"
            },
            {
              "internalType": "bool",
              "name": "usePointList",
              "type": "bool"
            },
            {
              "internalType": "bool",
              "name": "auctionSuccessful",
              "type": "bool"
            },
            {
              "components": [
                {
                  "internalType": "address",
                  "name": "addr",
                  "type": "address"
                },
                {
                  "internalType": "uint256",
                  "name": "decimals",
                  "type": "uint256"
                },
                {
                  "internalType": "string",
                  "name": "name",
                  "type": "string"
                },
                {
                  "internalType": "string",
                  "name": "symbol",
                  "type": "string"
                }
              ],
              "internalType": "struct TokenHelper.TokenInfo",
              "name": "tokenInfo",
              "type": "tuple"
            },
            {
              "components": [
                {
                  "internalType": "address",
                  "name": "addr",
                  "type": "address"
                },
                {
                  "internalType": "uint256",
                  "name": "decimals",
                  "type": "uint256"
                },
                {
                  "internalType": "string",
                  "name": "name",
                  "type": "string"
                },
                {
                  "internalType": "string",
                  "name": "symbol",
                  "type": "string"
                }
              ],
              "internalType": "struct TokenHelper.TokenInfo",
              "name": "paymentCurrencyInfo",
              "type": "tuple"
            },
            {
              "components": [
                {
                  "internalType": "string",
                  "name": "name",
                  "type": "string"
                },
                {
                  "internalType": "string",
                  "name": "data",
                  "type": "string"
                },
                {
                  "internalType": "uint256",
                  "name": "lastModified",
                  "type": "uint256"
                }
              ],
              "internalType": "struct DocumentHepler.Document[]",
              "name": "documents",
              "type": "tuple[]"
            }
          ],
          "internalType": "struct MarketHelper.BatchAuctionInfo",
          "name": "",
          "type": "tuple"
        }
      ],
      "stateMutability": "view",
      "type": "function"
    },
    {
      "inputs": [
        {
          "internalType": "address",
          "name": "_crowdsale",
          "type": "address"
        }
      ],
      "name": "getCrowdsaleInfo",
      "outputs": [
        {
          "components": [
            {
              "internalType": "address",
              "name": "addr",
              "type": "address"
            },
            {
              "internalType": "address",
              "name": "paymentCurrency",
              "type": "address"
            },
            {
              "internalType": "uint128",
              "name": "commitmentsTotal",
              "type": "uint128"
            },
            {
              "internalType": "uint128",
              "name": "totalTokens",
              "type": "uint128"
            },
            {
              "internalType": "uint128",
              "name": "rate",
              "type": "uint128"
            },
            {
              "internalType": "uint128",
              "name": "goal",
              "type": "uint128"
            },
            {
              "internalType": "uint64",
              "name": "startTime",
              "type": "uint64"
            },
            {
              "internalType": "uint64",
              "name": "endTime",
              "type": "uint64"
            },
            {
              "internalType": "bool",
              "name": "finalized",
              "type": "bool"
            },
            {
              "internalType": "bool",
              "name": "usePointList",
              "type": "bool"
            },
            {
              "internalType": "bool",
              "name": "auctionSuccessful",
              "type": "bool"
            },
            {
              "components": [
                {
                  "internalType": "address",
                  "name": "addr",
                  "type": "address"
                },
                {
                  "internalType": "uint256",
                  "name": "decimals",
                  "type": "uint256"
                },
                {
                  "internalType": "string",
                  "name": "name",
                  "type": "string"
                },
                {
                  "internalType": "string",
                  "name": "symbol",
                  "type": "string"
                }
              ],
              "internalType": "struct TokenHelper.TokenInfo",
              "name": "tokenInfo",
              "type": "tuple"
            },
            {
              "components": [
                {
                  "internalType": "address",
                  "name": "addr",
                  "type": "address"
                },
                {
                  "internalType": "uint256",
                  "name": "decimals",
                  "type": "uint256"
                },
                {
                  "internalType": "string",
                  "name": "name",
                  "type": "string"
                },
                {
                  "internalType": "string",
                  "name": "symbol",
                  "type": "string"
                }
              ],
              "internalType": "struct TokenHelper.TokenInfo",
              "name": "paymentCurrencyInfo",
              "type": "tuple"
            },
            {
              "components": [
                {
                  "internalType": "string",
                  "name": "name",
                  "type": "string"
                },
                {
                  "internalType": "string",
                  "name": "data",
                  "type": "string"
                },
                {
                  "internalType": "uint256",
                  "name": "lastModified",
                  "type": "uint256"
                }
              ],
              "internalType": "struct DocumentHepler.Document[]",
              "name": "documents",
              "type": "tuple[]"
            }
          ],
          "internalType": "struct MarketHelper.CrowdsaleInfo",
          "name": "",
          "type": "tuple"
        }
      ],
      "stateMutability": "view",
      "type": "function"
    },
    {
      "inputs": [
        {
          "internalType": "address",
          "name": "_document",
          "type": "address"
        }
      ],
      "name": "getDocuments",
      "outputs": [
        {
          "components": [
            {
              "internalType": "string",
              "name": "name",
              "type": "string"
            },
            {
              "internalType": "string",
              "name": "data",
              "type": "string"
            },
            {
              "internalType": "uint256",
              "name": "lastModified",
              "type": "uint256"
            }
          ],
          "internalType": "struct DocumentHepler.Document[]",
          "name": "",
          "type": "tuple[]"
        }
      ],
      "stateMutability": "view",
      "type": "function"
    },
    {
      "inputs": [
        {
          "internalType": "address payable",
          "name": "_dutchAuction",
          "type": "address"
        }
      ],
      "name": "getDutchAuctionInfo",
      "outputs": [
        {
          "components": [
            {
              "internalType": "address",
              "name": "addr",
              "type": "address"
            },
            {
              "internalType": "address",
              "name": "paymentCurrency",
              "type": "address"
            },
            {
              "internalType": "uint64",
              "name": "startTime",
              "type": "uint64"
            },
            {
              "internalType": "uint64",
              "name": "endTime",
              "type": "uint64"
            },
            {
              "internalType": "uint128",
              "name": "totalTokens",
              "type": "uint128"
            },
            {
              "internalType": "uint128",
              "name": "startPrice",
              "type": "uint128"
            },
            {
              "internalType": "uint128",
              "name": "minimumPrice",
              "type": "uint128"
            },
            {
              "internalType": "uint128",
              "name": "commitmentsTotal",
              "type": "uint128"
            },
            {
              "internalType": "bool",
              "name": "finalized",
              "type": "bool"
            },
            {
              "internalType": "bool",
              "name": "usePointList",
              "type": "bool"
            },
            {
              "internalType": "bool",
              "name": "auctionSuccessful",
              "type": "bool"
            },
            {
              "components": [
                {
                  "internalType": "address",
                  "name": "addr",
                  "type": "address"
                },
                {
                  "internalType": "uint256",
                  "name": "decimals",
                  "type": "uint256"
                },
                {
                  "internalType": "string",
                  "name": "name",
                  "type": "string"
                },
                {
                  "internalType": "string",
                  "name": "symbol",
                  "type": "string"
                }
              ],
              "internalType": "struct TokenHelper.TokenInfo",
              "name": "tokenInfo",
              "type": "tuple"
            },
            {
              "components": [
                {
                  "internalType": "address",
                  "name": "addr",
                  "type": "address"
                },
                {
                  "internalType": "uint256",
                  "name": "decimals",
                  "type": "uint256"
                },
                {
                  "internalType": "string",
                  "name": "name",
                  "type": "string"
                },
                {
                  "internalType": "string",
                  "name": "symbol",
                  "type": "string"
                }
              ],
              "internalType": "struct TokenHelper.TokenInfo",
              "name": "paymentCurrencyInfo",
              "type": "tuple"
            },
            {
              "components": [
                {
                  "internalType": "string",
                  "name": "name",
                  "type": "string"
                },
                {
                  "internalType": "string",
                  "name": "data",
                  "type": "string"
                },
                {
                  "internalType": "uint256",
                  "name": "lastModified",
                  "type": "uint256"
                }
              ],
              "internalType": "struct DocumentHepler.Document[]",
              "name": "documents",
              "type": "tuple[]"
            }
          ],
          "internalType": "struct MarketHelper.DutchAuctionInfo",
          "name": "",
          "type": "tuple"
        }
      ],
      "stateMutability": "view",
      "type": "function"
    },
    {
      "inputs": [
        {
          "internalType": "address",
          "name": "_farm",
          "type": "address"
        },
        {
          "internalType": "address",
          "name": "_user",
          "type": "address"
        }
      ],
      "name": "getFarmDetail",
      "outputs": [
        {
          "components": [
            {
              "internalType": "address",
              "name": "addr",
              "type": "address"
            },
            {
              "internalType": "uint256",
              "name": "templateId",
              "type": "uint256"
            },
            {
              "internalType": "uint256",
              "name": "rewardsPerBlock",
              "type": "uint256"
            },
            {
              "internalType": "uint256",
              "name": "bonusMultiplier",
              "type": "uint256"
            },
            {
              "components": [
                {
                  "internalType": "address",
                  "name": "addr",
                  "type": "address"
                },
                {
                  "internalType": "uint256",
                  "name": "decimals",
                  "type": "uint256"
                },
                {
                  "internalType": "string",
                  "name": "name",
                  "type": "string"
                },
                {
                  "internalType": "string",
                  "name": "symbol",
                  "type": "string"
                }
              ],
              "internalType": "struct TokenHelper.TokenInfo",
              "name": "rewardToken",
              "type": "tuple"
            },
            {
              "components": [
                {
                  "internalType": "address",
                  "name": "lpToken",
                  "type": "address"
                },
                {
                  "internalType": "uint256",
                  "name": "allocPoint",
                  "type": "uint256"
                },
                {
                  "internalType": "uint256",
                  "name": "lastRewardBlock",
                  "type": "uint256"
                },
                {
                  "internalType": "uint256",
                  "name": "accRewardsPerShare",
                  "type": "uint256"
                },
                {
                  "internalType": "uint256",
                  "name": "totalStaked",
                  "type": "uint256"
                },
                {
                  "components": [
                    {
                      "internalType": "address",
                      "name": "addr",
                      "type": "address"
                    },
                    {
                      "internalType": "uint256",
                      "name": "decimals",
                      "type": "uint256"
                    },
                    {
                      "internalType": "string",
                      "name": "name",
                      "type": "string"
                    },
                    {
                      "internalType": "string",
                      "name": "symbol",
                      "type": "string"
                    }
                  ],
                  "internalType": "struct TokenHelper.TokenInfo",
                  "name": "stakingToken",
                  "type": "tuple"
                }
              ],
              "internalType": "struct FarmHelper.PoolInfo[]",
              "name": "pools",
              "type": "tuple[]"
            }
          ],
          "internalType": "struct FarmHelper.FarmInfo",
          "name": "farmInfo",
          "type": "tuple"
        },
        {
          "components": [
            {
              "internalType": "address",
              "name": "farm",
              "type": "address"
            },
            {
              "internalType": "uint256",
              "name": "pid",
              "type": "uint256"
            },
            {
              "internalType": "uint256",
              "name": "totalStaked",
              "type": "uint256"
            },
            {
              "internalType": "uint256",
              "name": "lpBalance",
              "type": "uint256"
            },
            {
              "internalType": "uint256",
              "name": "lpAllowance",
              "type": "uint256"
            },
            {
              "internalType": "uint256",
              "name": "rewardDebt",
              "type": "uint256"
            },
            {
              "internalType": "uint256",
              "name": "pendingRewards",
              "type": "uint256"
            }
          ],
          "internalType": "struct FarmHelper.UserPoolInfo[]",
          "name": "userInfos",
          "type": "tuple[]"
        }
      ],
      "stateMutability": "view",
      "type": "function"
    },
    {
      "inputs": [
        {
          "internalType": "uint256",
          "name": "pageSize",
          "type": "uint256"
        },
        {
          "internalType": "uint256",
          "name": "pageNbr",
          "type": "uint256"
        },
        {
          "internalType": "uint256",
          "name": "offset",
          "type": "uint256"
        }
      ],
      "name": "getFarms",
      "outputs": [
        {
          "components": [
            {
              "internalType": "address",
              "name": "addr",
              "type": "address"
            },
            {
              "internalType": "uint256",
              "name": "templateId",
              "type": "uint256"
            },
            {
              "internalType": "uint256",
              "name": "rewardsPerBlock",
              "type": "uint256"
            },
            {
              "internalType": "uint256",
              "name": "bonusMultiplier",
              "type": "uint256"
            },
            {
              "components": [
                {
                  "internalType": "address",
                  "name": "addr",
                  "type": "address"
                },
                {
                  "internalType": "uint256",
                  "name": "decimals",
                  "type": "uint256"
                },
                {
                  "internalType": "string",
                  "name": "name",
                  "type": "string"
                },
                {
                  "internalType": "string",
                  "name": "symbol",
                  "type": "string"
                }
              ],
              "internalType": "struct TokenHelper.TokenInfo",
              "name": "rewardToken",
              "type": "tuple"
            },
            {
              "components": [
                {
                  "internalType": "address",
                  "name": "lpToken",
                  "type": "address"
                },
                {
                  "internalType": "uint256",
                  "name": "allocPoint",
                  "type": "uint256"
                },
                {
                  "internalType": "uint256",
                  "name": "lastRewardBlock",
                  "type": "uint256"
                },
                {
                  "internalType": "uint256",
                  "name": "accRewardsPerShare",
                  "type": "uint256"
                },
                {
                  "internalType": "uint256",
                  "name": "totalStaked",
                  "type": "uint256"
                },
                {
                  "components": [
                    {
                      "internalType": "address",
                      "name": "addr",
                      "type": "address"
                    },
                    {
                      "internalType": "uint256",
                      "name": "decimals",
                      "type": "uint256"
                    },
                    {
                      "internalType": "string",
                      "name": "name",
                      "type": "string"
                    },
                    {
                      "internalType": "string",
                      "name": "symbol",
                      "type": "string"
                    }
                  ],
                  "internalType": "struct TokenHelper.TokenInfo",
                  "name": "stakingToken",
                  "type": "tuple"
                }
              ],
              "internalType": "struct FarmHelper.PoolInfo[]",
              "name": "pools",
              "type": "tuple[]"
            }
          ],
          "internalType": "struct FarmHelper.FarmInfo[]",
          "name": "",
          "type": "tuple[]"
        }
      ],
      "stateMutability": "view",
      "type": "function"
    },
    {
      "inputs": [],
      "name": "getFarms",
      "outputs": [
        {
          "components": [
            {
              "internalType": "address",
              "name": "addr",
              "type": "address"
            },
            {
              "internalType": "uint256",
              "name": "templateId",
              "type": "uint256"
            },
            {
              "internalType": "uint256",
              "name": "rewardsPerBlock",
              "type": "uint256"
            },
            {
              "internalType": "uint256",
              "name": "bonusMultiplier",
              "type": "uint256"
            },
            {
              "components": [
                {
                  "internalType": "address",
                  "name": "addr",
                  "type": "address"
                },
                {
                  "internalType": "uint256",
                  "name": "decimals",
                  "type": "uint256"
                },
                {
                  "internalType": "string",
                  "name": "name",
                  "type": "string"
                },
                {
                  "internalType": "string",
                  "name": "symbol",
                  "type": "string"
                }
              ],
              "internalType": "struct TokenHelper.TokenInfo",
              "name": "rewardToken",
              "type": "tuple"
            },
            {
              "components": [
                {
                  "internalType": "address",
                  "name": "lpToken",
                  "type": "address"
                },
                {
                  "internalType": "uint256",
                  "name": "allocPoint",
                  "type": "uint256"
                },
                {
                  "internalType": "uint256",
                  "name": "lastRewardBlock",
                  "type": "uint256"
                },
                {
                  "internalType": "uint256",
                  "name": "accRewardsPerShare",
                  "type": "uint256"
                },
                {
                  "internalType": "uint256",
                  "name": "totalStaked",
                  "type": "uint256"
                },
                {
                  "components": [
                    {
                      "internalType": "address",
                      "name": "addr",
                      "type": "address"
                    },
                    {
                      "internalType": "uint256",
                      "name": "decimals",
                      "type": "uint256"
                    },
                    {
                      "internalType": "string",
                      "name": "name",
                      "type": "string"
                    },
                    {
                      "internalType": "string",
                      "name": "symbol",
                      "type": "string"
                    }
                  ],
                  "internalType": "struct TokenHelper.TokenInfo",
                  "name": "stakingToken",
                  "type": "tuple"
                }
              ],
              "internalType": "struct FarmHelper.PoolInfo[]",
              "name": "pools",
              "type": "tuple[]"
            }
          ],
          "internalType": "struct FarmHelper.FarmInfo[]",
          "name": "",
          "type": "tuple[]"
        }
      ],
      "stateMutability": "view",
      "type": "function"
    },
    {
      "inputs": [
        {
          "internalType": "uint256",
          "name": "pageSize",
          "type": "uint256"
        },
        {
          "internalType": "uint256",
          "name": "pageNbr",
          "type": "uint256"
        }
      ],
      "name": "getFarms",
      "outputs": [
        {
          "components": [
            {
              "internalType": "address",
              "name": "addr",
              "type": "address"
            },
            {
              "internalType": "uint256",
              "name": "templateId",
              "type": "uint256"
            },
            {
              "internalType": "uint256",
              "name": "rewardsPerBlock",
              "type": "uint256"
            },
            {
              "internalType": "uint256",
              "name": "bonusMultiplier",
              "type": "uint256"
            },
            {
              "components": [
                {
                  "internalType": "address",
                  "name": "addr",
                  "type": "address"
                },
                {
                  "internalType": "uint256",
                  "name": "decimals",
                  "type": "uint256"
                },
                {
                  "internalType": "string",
                  "name": "name",
                  "type": "string"
                },
                {
                  "internalType": "string",
                  "name": "symbol",
                  "type": "string"
                }
              ],
              "internalType": "struct TokenHelper.TokenInfo",
              "name": "rewardToken",
              "type": "tuple"
            },
            {
              "components": [
                {
                  "internalType": "address",
                  "name": "lpToken",
                  "type": "address"
                },
                {
                  "internalType": "uint256",
                  "name": "allocPoint",
                  "type": "uint256"
                },
                {
                  "internalType": "uint256",
                  "name": "lastRewardBlock",
                  "type": "uint256"
                },
                {
                  "internalType": "uint256",
                  "name": "accRewardsPerShare",
                  "type": "uint256"
                },
                {
                  "internalType": "uint256",
                  "name": "totalStaked",
                  "type": "uint256"
                },
                {
                  "components": [
                    {
                      "internalType": "address",
                      "name": "addr",
                      "type": "address"
                    },
                    {
                      "internalType": "uint256",
                      "name": "decimals",
                      "type": "uint256"
                    },
                    {
                      "internalType": "string",
                      "name": "name",
                      "type": "string"
                    },
                    {
                      "internalType": "string",
                      "name": "symbol",
                      "type": "string"
                    }
                  ],
                  "internalType": "struct TokenHelper.TokenInfo",
                  "name": "stakingToken",
                  "type": "tuple"
                }
              ],
              "internalType": "struct FarmHelper.PoolInfo[]",
              "name": "pools",
              "type": "tuple[]"
            }
          ],
          "internalType": "struct FarmHelper.FarmInfo[]",
          "name": "",
          "type": "tuple[]"
        }
      ],
      "stateMutability": "view",
      "type": "function"
    },
    {
      "inputs": [
        {
          "internalType": "address payable",
          "name": "_hyperbolicAuction",
          "type": "address"
        }
      ],
      "name": "getHyperbolicAuctionInfo",
      "outputs": [
        {
          "components": [
            {
              "internalType": "address",
              "name": "addr",
              "type": "address"
            },
            {
              "internalType": "address",
              "name": "paymentCurrency",
              "type": "address"
            },
            {
              "internalType": "uint64",
              "name": "startTime",
              "type": "uint64"
            },
            {
              "internalType": "uint64",
              "name": "endTime",
              "type": "uint64"
            },
            {
              "internalType": "uint128",
              "name": "totalTokens",
              "type": "uint128"
            },
            {
              "internalType": "uint128",
              "name": "minimumPrice",
              "type": "uint128"
            },
            {
              "internalType": "uint128",
              "name": "alpha",
              "type": "uint128"
            },
            {
              "internalType": "uint128",
              "name": "commitmentsTotal",
              "type": "uint128"
            },
            {
              "internalType": "bool",
              "name": "finalized",
              "type": "bool"
            },
            {
              "internalType": "bool",
              "name": "usePointList",
              "type": "bool"
            },
            {
              "internalType": "bool",
              "name": "auctionSuccessful",
              "type": "bool"
            },
            {
              "components": [
                {
                  "internalType": "address",
                  "name": "addr",
                  "type": "address"
                },
                {
                  "internalType": "uint256",
                  "name": "decimals",
                  "type": "uint256"
                },
                {
                  "internalType": "string",
                  "name": "name",
                  "type": "string"
                },
                {
                  "internalType": "string",
                  "name": "symbol",
                  "type": "string"
                }
              ],
              "internalType": "struct TokenHelper.TokenInfo",
              "name": "tokenInfo",
              "type": "tuple"
            },
            {
              "components": [
                {
                  "internalType": "address",
                  "name": "addr",
                  "type": "address"
                },
                {
                  "internalType": "uint256",
                  "name": "decimals",
                  "type": "uint256"
                },
                {
                  "internalType": "string",
                  "name": "name",
                  "type": "string"
                },
                {
                  "internalType": "string",
                  "name": "symbol",
                  "type": "string"
                }
              ],
              "internalType": "struct TokenHelper.TokenInfo",
              "name": "paymentCurrencyInfo",
              "type": "tuple"
            },
            {
              "components": [
                {
                  "internalType": "string",
                  "name": "name",
                  "type": "string"
                },
                {
                  "internalType": "string",
                  "name": "data",
                  "type": "string"
                },
                {
                  "internalType": "uint256",
                  "name": "lastModified",
                  "type": "uint256"
                }
              ],
              "internalType": "struct DocumentHepler.Document[]",
              "name": "documents",
              "type": "tuple[]"
            }
          ],
          "internalType": "struct MarketHelper.HyperbolicAuctionInfo",
          "name": "",
          "type": "tuple"
        }
      ],
      "stateMutability": "view",
      "type": "function"
    },
    {
      "inputs": [
        {
          "internalType": "uint256",
          "name": "pageSize",
          "type": "uint256"
        },
        {
          "internalType": "uint256",
          "name": "pageNbr",
          "type": "uint256"
        },
        {
          "internalType": "uint256",
          "name": "offset",
          "type": "uint256"
        }
      ],
      "name": "getMarkets",
      "outputs": [
        {
          "components": [
            {
              "internalType": "address",
              "name": "addr",
              "type": "address"
            },
            {
              "internalType": "uint64",
              "name": "templateId",
              "type": "uint64"
            },
            {
              "internalType": "uint64",
              "name": "startTime",
              "type": "uint64"
            },
            {
              "internalType": "uint64",
              "name": "endTime",
              "type": "uint64"
            },
            {
              "internalType": "bool",
              "name": "finalized",
              "type": "bool"
            },
            {
              "components": [
                {
                  "internalType": "address",
                  "name": "addr",
                  "type": "address"
                },
                {
                  "internalType": "uint256",
                  "name": "decimals",
                  "type": "uint256"
                },
                {
                  "internalType": "string",
                  "name": "name",
                  "type": "string"
                },
                {
                  "internalType": "string",
                  "name": "symbol",
                  "type": "string"
                }
              ],
              "internalType": "struct TokenHelper.TokenInfo",
              "name": "tokenInfo",
              "type": "tuple"
            }
          ],
          "internalType": "struct MarketHelper.MarketBaseInfo[]",
          "name": "",
          "type": "tuple[]"
        }
      ],
      "stateMutability": "view",
      "type": "function"
    },
    {
      "inputs": [
        {
          "internalType": "uint256",
          "name": "pageSize",
          "type": "uint256"
        },
        {
          "internalType": "uint256",
          "name": "pageNbr",
          "type": "uint256"
        }
      ],
      "name": "getMarkets",
      "outputs": [
        {
          "components": [
            {
              "internalType": "address",
              "name": "addr",
              "type": "address"
            },
            {
              "internalType": "uint64",
              "name": "templateId",
              "type": "uint64"
            },
            {
              "internalType": "uint64",
              "name": "startTime",
              "type": "uint64"
            },
            {
              "internalType": "uint64",
              "name": "endTime",
              "type": "uint64"
            },
            {
              "internalType": "bool",
              "name": "finalized",
              "type": "bool"
            },
            {
              "components": [
                {
                  "internalType": "address",
                  "name": "addr",
                  "type": "address"
                },
                {
                  "internalType": "uint256",
                  "name": "decimals",
                  "type": "uint256"
                },
                {
                  "internalType": "string",
                  "name": "name",
                  "type": "string"
                },
                {
                  "internalType": "string",
                  "name": "symbol",
                  "type": "string"
                }
              ],
              "internalType": "struct TokenHelper.TokenInfo",
              "name": "tokenInfo",
              "type": "tuple"
            }
          ],
          "internalType": "struct MarketHelper.MarketBaseInfo[]",
          "name": "",
          "type": "tuple[]"
        }
      ],
      "stateMutability": "view",
      "type": "function"
    },
    {
      "inputs": [],
      "name": "getMarkets",
      "outputs": [
        {
          "components": [
            {
              "internalType": "address",
              "name": "addr",
              "type": "address"
            },
            {
              "internalType": "uint64",
              "name": "templateId",
              "type": "uint64"
            },
            {
              "internalType": "uint64",
              "name": "startTime",
              "type": "uint64"
            },
            {
              "internalType": "uint64",
              "name": "endTime",
              "type": "uint64"
            },
            {
              "internalType": "bool",
              "name": "finalized",
              "type": "bool"
            },
            {
              "components": [
                {
                  "internalType": "address",
                  "name": "addr",
                  "type": "address"
                },
                {
                  "internalType": "uint256",
                  "name": "decimals",
                  "type": "uint256"
                },
                {
                  "internalType": "string",
                  "name": "name",
                  "type": "string"
                },
                {
                  "internalType": "string",
                  "name": "symbol",
                  "type": "string"
                }
              ],
              "internalType": "struct TokenHelper.TokenInfo",
              "name": "tokenInfo",
              "type": "tuple"
            }
          ],
          "internalType": "struct MarketHelper.MarketBaseInfo[]",
          "name": "",
          "type": "tuple[]"
        }
      ],
      "stateMutability": "view",
      "type": "function"
    },
    {
      "inputs": [
        {
          "internalType": "address",
          "name": "_farm",
          "type": "address"
        }
      ],
      "name": "getPools",
      "outputs": [
        {
          "components": [
            {
              "internalType": "address",
              "name": "lpToken",
              "type": "address"
            },
            {
              "internalType": "uint256",
              "name": "allocPoint",
              "type": "uint256"
            },
            {
              "internalType": "uint256",
              "name": "lastRewardBlock",
              "type": "uint256"
            },
            {
              "internalType": "uint256",
              "name": "accRewardsPerShare",
              "type": "uint256"
            },
            {
              "internalType": "uint256",
              "name": "totalStaked",
              "type": "uint256"
            },
            {
              "components": [
                {
                  "internalType": "address",
                  "name": "addr",
                  "type": "address"
                },
                {
                  "internalType": "uint256",
                  "name": "decimals",
                  "type": "uint256"
                },
                {
                  "internalType": "string",
                  "name": "name",
                  "type": "string"
                },
                {
                  "internalType": "string",
                  "name": "symbol",
                  "type": "string"
                }
              ],
              "internalType": "struct TokenHelper.TokenInfo",
              "name": "stakingToken",
              "type": "tuple"
            }
          ],
          "internalType": "struct FarmHelper.PoolInfo[]",
          "name": "",
          "type": "tuple[]"
        }
      ],
      "stateMutability": "view",
      "type": "function"
    },
    {
      "inputs": [
        {
          "internalType": "address",
          "name": "_address",
          "type": "address"
        }
      ],
      "name": "getTokenInfo",
      "outputs": [
        {
          "components": [
            {
              "internalType": "address",
              "name": "addr",
              "type": "address"
            },
            {
              "internalType": "uint256",
              "name": "decimals",
              "type": "uint256"
            },
            {
              "internalType": "string",
              "name": "name",
              "type": "string"
            },
            {
              "internalType": "string",
              "name": "symbol",
              "type": "string"
            }
          ],
          "internalType": "struct TokenHelper.TokenInfo",
          "name": "",
          "type": "tuple"
        }
      ],
      "stateMutability": "view",
      "type": "function"
    },
    {
      "inputs": [
        {
          "internalType": "uint256",
          "name": "pageSize",
          "type": "uint256"
        },
        {
          "internalType": "uint256",
          "name": "pageNbr",
          "type": "uint256"
        }
      ],
      "name": "getTokens",
      "outputs": [
        {
          "components": [
            {
              "internalType": "address",
              "name": "addr",
              "type": "address"
            },
            {
              "internalType": "uint256",
              "name": "decimals",
              "type": "uint256"
            },
            {
              "internalType": "string",
              "name": "name",
              "type": "string"
            },
            {
              "internalType": "string",
              "name": "symbol",
              "type": "string"
            }
          ],
          "internalType": "struct TokenHelper.TokenInfo[]",
          "name": "",
          "type": "tuple[]"
        }
      ],
      "stateMutability": "view",
      "type": "function"
    },
    {
      "inputs": [
        {
          "internalType": "uint256",
          "name": "pageSize",
          "type": "uint256"
        },
        {
          "internalType": "uint256",
          "name": "pageNbr",
          "type": "uint256"
        },
        {
          "internalType": "uint256",
          "name": "offset",
          "type": "uint256"
        }
      ],
      "name": "getTokens",
      "outputs": [
        {
          "components": [
            {
              "internalType": "address",
              "name": "addr",
              "type": "address"
            },
            {
              "internalType": "uint256",
              "name": "decimals",
              "type": "uint256"
            },
            {
              "internalType": "string",
              "name": "name",
              "type": "string"
            },
            {
              "internalType": "string",
              "name": "symbol",
              "type": "string"
            }
          ],
          "internalType": "struct TokenHelper.TokenInfo[]",
          "name": "",
          "type": "tuple[]"
        }
      ],
      "stateMutability": "view",
      "type": "function"
    },
    {
      "inputs": [],
      "name": "getTokens",
      "outputs": [
        {
          "components": [
            {
              "internalType": "address",
              "name": "addr",
              "type": "address"
            },
            {
              "internalType": "uint256",
              "name": "decimals",
              "type": "uint256"
            },
            {
              "internalType": "string",
              "name": "name",
              "type": "string"
            },
            {
              "internalType": "string",
              "name": "symbol",
              "type": "string"
            }
          ],
          "internalType": "struct TokenHelper.TokenInfo[]",
          "name": "",
          "type": "tuple[]"
        }
      ],
      "stateMutability": "view",
      "type": "function"
    },
    {
      "inputs": [
        {
          "internalType": "address[]",
          "name": "addresses",
          "type": "address[]"
        }
      ],
      "name": "getTokensInfo",
      "outputs": [
        {
          "components": [
            {
              "internalType": "address",
              "name": "addr",
              "type": "address"
            },
            {
              "internalType": "uint256",
              "name": "decimals",
              "type": "uint256"
            },
            {
              "internalType": "string",
              "name": "name",
              "type": "string"
            },
            {
              "internalType": "string",
              "name": "symbol",
              "type": "string"
            }
          ],
          "internalType": "struct TokenHelper.TokenInfo[]",
          "name": "",
          "type": "tuple[]"
        }
      ],
      "stateMutability": "view",
      "type": "function"
    },
    {
      "inputs": [
        {
          "internalType": "address",
          "name": "_action",
          "type": "address"
        },
        {
          "internalType": "address",
          "name": "_user",
          "type": "address"
        }
      ],
      "name": "getUserMarketInfo",
      "outputs": [
        {
          "components": [
            {
              "internalType": "uint256",
              "name": "commitments",
              "type": "uint256"
            },
            {
              "internalType": "uint256",
              "name": "tokensClaimable",
              "type": "uint256"
            },
            {
              "internalType": "uint256",
              "name": "claimed",
              "type": "uint256"
            },
            {
              "internalType": "bool",
              "name": "isAdmin",
              "type": "bool"
            }
          ],
          "internalType": "struct MarketHelper.UserMarketInfo",
          "name": "userInfo",
          "type": "tuple"
        }
      ],
      "stateMutability": "view",
      "type": "function"
    },
    {
      "inputs": [
        {
          "internalType": "address",
          "name": "_user",
          "type": "address"
        }
      ],
      "name": "getUserPoolsInfos",
      "outputs": [
        {
          "components": [
            {
              "internalType": "address",
              "name": "farm",
              "type": "address"
            },
            {
              "internalType": "uint256[]",
              "name": "pids",
              "type": "uint256[]"
            },
            {
              "internalType": "uint256[]",
              "name": "totalStaked",
              "type": "uint256[]"
            },
            {
              "internalType": "uint256[]",
              "name": "pendingRewards",
              "type": "uint256[]"
            }
          ],
          "internalType": "struct FarmHelper.UserPoolsInfo[]",
          "name": "",
          "type": "tuple[]"
        }
      ],
      "stateMutability": "view",
      "type": "function"
    },
    {
      "inputs": [],
      "name": "launcher",
      "outputs": [
        {
          "internalType": "address",
          "name": "",
          "type": "address"
        }
      ],
      "stateMutability": "view",
      "type": "function"
    },
    {
      "inputs": [],
      "name": "market",
      "outputs": [
        {
          "internalType": "contract IMisoMarketFactory",
          "name": "",
          "type": "address"
        }
      ],
      "stateMutability": "view",
      "type": "function"
    },
    {
      "inputs": [
        {
          "internalType": "address",
          "name": "_tokenFactory",
          "type": "address"
        },
        {
          "internalType": "address",
          "name": "_market",
          "type": "address"
        },
        {
          "internalType": "address",
          "name": "_launcher",
          "type": "address"
        },
        {
          "internalType": "address",
          "name": "_farmFactory",
          "type": "address"
        }
      ],
      "name": "setContracts",
      "outputs": [],
      "stateMutability": "nonpayable",
      "type": "function"
    },
    {
      "inputs": [],
      "name": "tokenFactory",
      "outputs": [
        {
          "internalType": "contract IMisoTokenFactory",
          "name": "",
          "type": "address"
        }
      ],
      "stateMutability": "view",
      "type": "function"
    }
  ],
  "transactionHash": "0x9af78f9389bb2bd9f23970620deb9c1a44b8ab5d44d2b7b1b619e719363061bf",
  "args": [
    "0x1B0449d235b02C1773f391f500dCC3f8EbEaEff9",
    "0x2344D1F26F770084056D30caF879fF826D5f59cA",
    "0x53cb81bBe4c47019fd1d3F87949e0387064510db",
    "0x003B15a14D36DE18948bcbfb1648889f601de788",
    "0xFA54e06b0b842d87B3dcfC0dD5E6d24e4224daD3"
  ],
  "numDeployments": 5,
  "solcInputHash": "f383c588ca82e498010b89fc5071466e",
  "bytecode": "0x60806040523480156200001157600080fd5b5060405162004495380380620044958339810160408190526200003491620000ab565b6001600160a01b0385166200004857600080fd5b600480546001600160a01b03199081166001600160a01b0397881617909155600180548216958716959095179094556000805485169386169390931790925560038054841691851691909117905560028054909216921691909117905562000143565b600080600080600060a08688031215620000c3578081fd5b8551620000d0816200012a565b6020870151909550620000e3816200012a565b6040870151909450620000f6816200012a565b606087015190935062000109816200012a565b60808701519092506200011c816200012a565b809150509295509295909350565b6001600160a01b03811681146200014057600080fd5b50565b61434280620001536000396000f3fe608060405234801561001057600080fd5b50600436106101a95760003560e01c80635c39f467116100f9578063927da10511610097578063bce16f4b11610071578063bce16f4b146103ce578063bf989b6e146103e1578063e77772fe146103f6578063ec2c9016146103fe576101a9565b8063927da1051461039e5780639dc4ac8a146103be578063aa6ca808146103c6576101a9565b80636d25e175116100d35780636d25e17514610373578063748365ef1461037b57806380968d481461038357806380f5560514610396576101a9565b80635c39f467146103405780636306377d146101d757806364d414bf14610360576101a9565b806327f50a2d116101665780633c74720c116101405780633c74720c146102cc57806346a0fe47146102ec578063494cfc6c1461030c57806356468ddf1461031f576101a9565b806327f50a2d1461026c578063372cfb931461028c57806338d9893b146102ac576101a9565b80630cbf4ba7146101ae578063156ec681146101d757806316eebd1e146101f7578063193d13621461020c5780631f69565f1461022c57806322aeea091461024c575b600080fd5b6101c16101bc366004613394565b610406565b6040516101ce9190613e38565b60405180910390f35b6101ea6101e5366004613394565b61092e565b6040516101ce919061414a565b6101ff610ce3565b6040516101ce9190613c3a565b61021f61021a366004613394565b610cf2565b6040516101ce9190613f26565b61023f61023a366004613394565b610fe0565b6040516101ce91906141eb565b61025f61025a3660046137f1565b611176565b6040516101ce9190613cc8565b61027f61027a366004613394565b611349565b6040516101ce9190613c68565b61029f61029a3660046133cc565b61158d565b6040516101ce91906141fe565b6102bf6102ba3660046137f1565b6117a3565b6040516101ce9190613d1b565b6102df6102da366004613394565b61195d565b6040516101ce9190614033565b6102ff6102fa36600461353f565b611bf2565b6040516101ce9190613de5565b6102ff61031a366004613780565b611c97565b61033261032d3660046133cc565b611cae565b6040516101ce92919061415d565b61035361034e366004613394565b612212565b6040516101ce9190613dd2565b6102ff61036e3660046137f1565b6124d5565b6101ff61269a565b6101ff6126a9565b6102bf610391366004613780565b6126b8565b6101ff6126c6565b6103b16103ac366004613404565b6126d5565b6040516101ce919061422b565b61025f61275e565b6102ff612984565b61025f6103dc366004613780565b612a30565b6103f46103ef36600461344e565b612a3e565b005b6101ff612b94565b6102bf612ba3565b60606000600260009054906101000a90046001600160a01b03166001600160a01b0316638f5185e86040518163ffffffff1660e01b815260040160206040518083038186803b15801561045857600080fd5b505afa15801561046c573d6000803e3d6000fd5b505050506040513d601f19601f820116820180604052508101906104909190613768565b90506060816001600160401b03811180156104aa57600080fd5b506040519080825280602002602001820160405280156104e457816020015b6104d161307e565b8152602001906001900390816104c95790505b50905060005b8281101561092657600254604051633ed2387560e11b81526000916001600160a01b031690637da470ea9061052390859060040161422b565b60206040518083038186803b15801561053b57600080fd5b505afa15801561054f573d6000803e3d6000fd5b505050506040513d601f19601f8201168201806040525081019061057391906133b0565b905060008190506000816001600160a01b031663081e3eda6040518163ffffffff1660e01b815260040160206040518083038186803b1580156105b557600080fd5b505afa1580156105c9573d6000803e3d6000fd5b505050506040513d601f19601f820116820180604052508101906105ed9190613768565b90506060816001600160401b038111801561060757600080fd5b50604051908082528060200260200182016040528015610631578160200160208202803683370190505b5090506060826001600160401b038111801561064c57600080fd5b50604051908082528060200260200182016040528015610676578160200160208202803683370190505b5090506060836001600160401b038111801561069157600080fd5b506040519080825280602002602001820160405280156106bb578160200160208202803683370190505b50905060005b8481101561089a57604051631526fe2760e01b81526000906001600160a01b03881690631526fe27906106f890859060040161422b565b60806040518083038186803b15801561071057600080fd5b505afa158015610724573d6000803e3d6000fd5b505050506040513d601f19601f8201168201806040525081019061074891906134a9565b5050509050866001600160a01b03166393f1a40b838f6040518363ffffffff1660e01b815260040161077b929190614234565b604080518083038186803b15801561079257600080fd5b505afa1580156107a6573d6000803e3d6000fd5b505050506040513d601f19601f820116820180604052508101906107ca91906137a1565b508583815181106107d757fe5b602002602001018181525050866001600160a01b031663d18df53c838f6040518363ffffffff1660e01b8152600401610811929190614234565b60206040518083038186803b15801561082957600080fd5b505afa15801561083d573d6000803e3d6000fd5b505050506040513d601f19601f820116820180604052508101906108619190613768565b84838151811061086d57fe5b6020026020010181815250508183838151811061088657fe5b6020908102919091010152506001016106c1565b50828888815181106108a857fe5b602002602001015160400181905250818888815181106108c457fe5b602002602001015160600181905250808888815181106108e057fe5b602002602001015160200181905250858888815181106108fc57fe5b60209081029190910101516001600160a01b0390911690525050600190940193506104ea92505050565b509392505050565b6109366130af565b8161093f6130af565b6001600160a01b0382168082526040805162018df760e91b8152905163031bee0091600480820192606092909190829003018186803b15801561098157600080fd5b505afa158015610995573d6000803e3d6000fd5b505050506040513d601f19601f820116820180604052508101906109b99190613837565b6001600160801b031660808401526001600160401b0390811660608401521660408083019190915280516308b42a7160e31b815281516001600160a01b038516926345a153889260048082019391829003018186803b158015610a1b57600080fd5b505afa158015610a2f573d6000803e3d6000fd5b505050506040513d601f19601f82011682018060405250810190610a53919061373a565b6001600160801b0390811660c08401521660a0820152604080516336d0054b60e01b815290516001600160a01b038416916336d0054b916004808301926020929190829003018186803b158015610aa957600080fd5b505afa158015610abd573d6000803e3d6000fd5b505050506040513d601f19601f82011682018060405250810190610ae19190613667565b15156101408201526040805163e0e081d760e01b815290516001600160a01b0384169163e0e081d7916004808301926060929190829003018186803b158015610b2957600080fd5b505afa158015610b3d573d6000803e3d6000fd5b505050506040513d601f19601f82011682018060405250810190610b6191906136f9565b151561012084015215156101008301526001600160801b031660e0820152604080516304cfed9960e51b81529051610bfc916001600160a01b038516916399fdb32091600480820192602092909190829003018186803b158015610bc457600080fd5b505afa158015610bd8573d6000803e3d6000fd5b505050506040513d601f19601f8201168201806040525081019061023a91906133b0565b8161016001819052506000826001600160a01b0316633d15cc6d6040518163ffffffff1660e01b815260040160206040518083038186803b158015610c4057600080fd5b505afa158015610c54573d6000803e3d6000fd5b505050506040513d601f19601f82011682018060405250810190610c7891906133b0565b9050610c8261312f565b6001600160a01b03821673eeeeeeeeeeeeeeeeeeeeeeeeeeeeeeeeeeeeeeee1415610cb657610caf612cce565b9050610cc2565b610cbf82610fe0565b90505b6101808301819052610cd386611349565b6101a08401525090949350505050565b6003546001600160a01b031681565b610cfa613160565b81610d03613160565b6001600160a01b0382168082526040805162018df760e91b8152905163031bee0091600480820192606092909190829003018186803b158015610d4557600080fd5b505afa158015610d59573d6000803e3d6000fd5b505050506040513d601f19601f82011682018060405250810190610d7d9190613837565b6001600160801b031660808401526001600160401b0390811660608401521660408083019190915280516336d0054b60e01b815290516001600160a01b038416916336d0054b916004808301926020929190829003018186803b158015610de357600080fd5b505afa158015610df7573d6000803e3d6000fd5b505050506040513d601f19601f82011682018060405250810190610e1b9190613667565b15156101208201526040805163e0e081d760e01b815290516001600160a01b0384169163e0e081d7916004808301926080929190829003018186803b158015610e6357600080fd5b505afa158015610e77573d6000803e3d6000fd5b505050506040513d601f19601f82011682018060405250810190610e9b91906137c4565b1515610100850152151560e084015260c083015260a0820152604080516304cfed9960e51b81529051610ef9916001600160a01b038516916399fdb32091600480820192602092909190829003018186803b158015610bc457600080fd5b8161014001819052506000826001600160a01b0316633d15cc6d6040518163ffffffff1660e01b815260040160206040518083038186803b158015610f3d57600080fd5b505afa158015610f51573d6000803e3d6000fd5b505050506040513d601f19601f82011682018060405250810190610f7591906133b0565b9050610f7f61312f565b6001600160a01b03821673eeeeeeeeeeeeeeeeeeeeeeeeeeeeeeeeeeeeeeee1415610fb357610fac612cce565b9050610fbf565b610fbc82610fe0565b90505b6101608301819052610fd086611349565b6101808401525090949350505050565b610fe861312f565b610ff061312f565b6001600160a01b038316808252604080516306fdde0360e01b815290518592916306fdde03916004808301926000929190829003018186803b15801561103557600080fd5b505afa158015611049573d6000803e3d6000fd5b505050506040513d6000823e601f3d908101601f191682016040526110719190810190613683565b8260400181905250806001600160a01b03166395d89b416040518163ffffffff1660e01b815260040160006040518083038186803b1580156110b257600080fd5b505afa1580156110c6573d6000803e3d6000fd5b505050506040513d6000823e601f3d908101601f191682016040526110ee9190810190613683565b8260600181905250806001600160a01b031663313ce5676040518163ffffffff1660e01b815260040160206040518083038186803b15801561112f57600080fd5b505afa158015611143573d6000803e3d6000fd5b505050506040513d601f19601f820116820180604052508101906111679190613878565b60ff1660208301525092915050565b60606000600260009054906101000a90046001600160a01b03166001600160a01b0316638f5185e86040518163ffffffff1660e01b815260040160206040518083038186803b1580156111c857600080fd5b505afa1580156111dc573d6000803e3d6000fd5b505050506040513d601f19601f820116820180604052508101906112009190613768565b90508385028301808601606083821115611218578391505b8282101561122b57935061134292505050565b8282036001600160401b038111801561124357600080fd5b5060405190808252806020026020018201604052801561127d57816020015b61126a6131be565b8152602001906001900390816112625790505b50905060005b82848201101561133b57600254604051633ed2387560e11b81526000916001600160a01b031690637da470ea906112c0908589019060040161422b565b60206040518083038186803b1580156112d857600080fd5b505afa1580156112ec573d6000803e3d6000fd5b505050506040513d601f19601f8201168201806040525081019061131091906133b0565b905061131b81612d3e565b83838151811061132757fe5b602090810291909101015250600101611283565b5093505050505b9392505050565b606060008290506000816001600160a01b0316633d1c22736040518163ffffffff1660e01b815260040160206040518083038186803b15801561138b57600080fd5b505afa15801561139f573d6000803e3d6000fd5b505050506040513d601f19601f820116820180604052508101906113c39190613768565b90506060816001600160401b03811180156113dd57600080fd5b5060405190808252806020026020018201604052801561141757816020015b6114046131f6565b8152602001906001900390816113fc5790505b50905060005b828110156115845760405163635aa3f360e11b81526060906001600160a01b0386169063c6b547e69061145490859060040161422b565b60006040518083038186803b15801561146c57600080fd5b505afa158015611480573d6000803e3d6000fd5b505050506040513d6000823e601f3d908101601f191682016040526114a89190810190613683565b604051631f32da9960e21b81529091506001600160a01b03861690637ccb6a64906114d7908490600401613ede565b60006040518083038186803b1580156114ef57600080fd5b505afa158015611503573d6000803e3d6000fd5b505050506040513d6000823e601f3d908101601f1916820160405261152b91908101906136b5565b84848151811061153757fe5b602002602001015160200185858151811061154e57fe5b60200260200101516040018281525082905250508083838151811061156f57fe5b6020908102919091010151525060010161141d565b50949350505050565b611595613217565b60405163e8fcf72360e01b815283906001600160a01b0382169063e8fcf723906115c3908690600401613c3a565b60206040518083038186803b1580156115db57600080fd5b505afa1580156115ef573d6000803e3d6000fd5b505050506040513d601f19601f820116820180604052508101906116139190613768565b8252604051634dc80e1560e01b81526001600160a01b03821690634dc80e1590611641908690600401613c3a565b60206040518083038186803b15801561165957600080fd5b505afa15801561166d573d6000803e3d6000fd5b505050506040513d601f19601f820116820180604052508101906116919190613768565b602083015260405163c884ef8360e01b81526001600160a01b0382169063c884ef83906116c2908690600401613c3a565b60206040518083038186803b1580156116da57600080fd5b505afa1580156116ee573d6000803e3d6000fd5b505050506040513d601f19601f820116820180604052508101906117129190613768565b6040808401919091525163c395fcb360e01b81526001600160a01b0382169063c395fcb390611745908690600401613c3a565b60206040518083038186803b15801561175d57600080fd5b505afa158015611771573d6000803e3d6000fd5b505050506040513d601f19601f820116820180604052508101906117959190613667565b151560608301525092915050565b600080546040805163286cea3960e11b81529051606093926001600160a01b0316916350d9d472916004808301926020929190829003018186803b1580156117ea57600080fd5b505afa1580156117fe573d6000803e3d6000fd5b505050506040513d601f19601f820116820180604052508101906118229190613768565b9050838502830180860160608382111561183a578391505b8282101561184d57935061134292505050565b8282036001600160401b038111801561186557600080fd5b5060405190808252806020026020018201604052801561189f57816020015b61188c613241565b8152602001906001900390816118845790505b50905060005b82848201101561133b57600080546040516302b8d13560e51b81526001600160a01b039091169063571a26a0906118e2908589019060040161422b565b60206040518083038186803b1580156118fa57600080fd5b505afa15801561190e573d6000803e3d6000fd5b505050506040513d601f19601f8201168201806040525081019061193291906133b0565b905061193d81612f20565b83838151811061194957fe5b6020908102919091010152506001016118a5565b6119656130af565b8161196e6130af565b6001600160a01b0382168082526040805163e0e081d760e01b8152905163e0e081d791600480820192606092909190829003018186803b1580156119b157600080fd5b505afa1580156119c5573d6000803e3d6000fd5b505050506040513d601f19601f820116820180604052508101906119e991906136f9565b151561012084015215156101008301526001600160801b0316604080830191909152805162018df760e91b815290516001600160a01b0384169163031bee00916004808301926060929190829003018186803b158015611a4857600080fd5b505afa158015611a5c573d6000803e3d6000fd5b505050506040513d601f19601f82011682018060405250810190611a809190613837565b6001600160801b031660608401526001600160401b0390811660e08401521660c0820152604080516308b42a7160e31b815281516001600160a01b038516926345a153889260048082019391829003018186803b158015611ae057600080fd5b505afa158015611af4573d6000803e3d6000fd5b505050506040513d601f19601f82011682018060405250810190611b18919061373a565b6001600160801b0390811660a0840152166080820152604080516336d0054b60e01b815290516001600160a01b038416916336d0054b916004808301926020929190829003018186803b158015611b6e57600080fd5b505afa158015611b82573d6000803e3d6000fd5b505050506040513d601f19601f82011682018060405250810190611ba69190613667565b81610140019015159081151581525050610bfc826001600160a01b03166399fdb3206040518163ffffffff1660e01b815260040160206040518083038186803b158015610bc457600080fd5b60608082516001600160401b0381118015611c0c57600080fd5b50604051908082528060200260200182016040528015611c4657816020015b611c3361312f565b815260200190600190039081611c2b5790505b50905060005b8351811015611c9057611c71848281518110611c6457fe5b6020026020010151610fe0565b828281518110611c7d57fe5b6020908102919091010152600101611c4c565b5092915050565b6060611ca5838360006124d5565b90505b92915050565b611cb66131be565b6001600160a01b03808416825260025460405163699af5ed60e11b81526060928692169063d335ebda90611cee908490600401613c3a565b60206040518083038186803b158015611d0657600080fd5b505afa158015611d1a573d6000803e3d6000fd5b505050506040513d601f19601f82011682018060405250810190611d3e9190613768565b836020018181525050806001600160a01b0316635eeb67106040518163ffffffff1660e01b815260040160206040518083038186803b158015611d8057600080fd5b505afa158015611d94573d6000803e3d6000fd5b505050506040513d601f19601f82011682018060405250810190611db89190613768565b836040018181525050806001600160a01b031663a8b973a16040518163ffffffff1660e01b815260040160206040518083038186803b158015611dfa57600080fd5b505afa158015611e0e573d6000803e3d6000fd5b505050506040513d601f19601f82011682018060405250810190611e329190613768565b836060018181525050611e77816001600160a01b0316639ec5a8946040518163ffffffff1660e01b815260040160206040518083038186803b158015610bc457600080fd5b6080840152611e8585612212565b60a08401526001600160a01b0384161561220a5760a083015180516001600160401b0381118015611eb557600080fd5b50604051908082528060200260200182016040528015611eef57816020015b611edc61327d565b815260200190600190039081611ed45790505b50925060005b815181101561220757611f0661327d565b848281518110611f1257fe5b602002602001015190506000838381518110611f2a57fe5b602002602001015160a00151600001519050846001600160a01b03166393f1a40b848a6040518363ffffffff1660e01b8152600401611f6a929190614234565b604080518083038186803b158015611f8157600080fd5b505afa158015611f95573d6000803e3d6000fd5b505050506040513d601f19601f82011682018060405250810190611fb991906137a1565b60a0840152604080840191909152516370a0823160e01b81526001600160a01b038216906370a0823190611ff1908b90600401613c3a565b60206040518083038186803b15801561200957600080fd5b505afa15801561201d573d6000803e3d6000fd5b505050506040513d601f19601f820116820180604052508101906120419190613768565b6060830152604051636eb1769f60e11b81526001600160a01b0382169063dd62ed3e90612074908b908d90600401613c4e565b60206040518083038186803b15801561208c57600080fd5b505afa1580156120a0573d6000803e3d6000fd5b505050506040513d601f19601f820116820180604052508101906120c49190613768565b60808301526040516334637d4f60e21b81526001600160a01b0386169063d18df53c906120f79086908c90600401614234565b60206040518083038186803b15801561210f57600080fd5b505afa158015612123573d6000803e3d6000fd5b505050506040513d601f19601f820116820180604052508101906121479190613768565b60c08301526040516393f1a40b60e01b81526001600160a01b038616906393f1a40b9061217a9086908c90600401614234565b604080518083038186803b15801561219157600080fd5b505afa1580156121a5573d6000803e3d6000fd5b505050506040513d601f19601f820116820180604052508101906121c991906137a1565b5060408301526001600160a01b038916825260208201839052855182908790859081106121f257fe5b60209081029190910101525050600101611ef5565b50505b509250929050565b606060008290506000816001600160a01b031663081e3eda6040518163ffffffff1660e01b815260040160206040518083038186803b15801561225457600080fd5b505afa158015612268573d6000803e3d6000fd5b505050506040513d601f19601f8201168201806040525081019061228c9190613768565b90506060816001600160401b03811180156122a657600080fd5b506040519080825280602002602001820160405280156122e057816020015b6122cd6132c3565b8152602001906001900390816122c55790505b50905060005b8281101561158457604051631526fe2760e01b81526001600160a01b03851690631526fe279061231a90849060040161422b565b60806040518083038186803b15801561233257600080fd5b505afa158015612346573d6000803e3d6000fd5b505050506040513d601f19601f8201168201806040525081019061236a91906134a9565b85858151811061237657fe5b602002602001015160000186868151811061238d57fe5b60200260200101516020018787815181106123a457fe5b60200260200101516040018888815181106123bb57fe5b602090810291909101015160600193909352929091529190526001600160a01b03909116905281518290829081106123ef57fe5b6020026020010151600001516001600160a01b03166370a08231876040518263ffffffff1660e01b81526004016124269190613c3a565b60206040518083038186803b15801561243e57600080fd5b505afa158015612452573d6000803e3d6000fd5b505050506040513d601f19601f820116820180604052508101906124769190613768565b82828151811061248257fe5b602002602001015160800181815250506124b28282815181106124a157fe5b602002602001015160000151610fe0565b8282815181106124be57fe5b602090810291909101015160a001526001016122e6565b60606000600160009054906101000a90046001600160a01b03166001600160a01b031663f9f16ef26040518163ffffffff1660e01b815260040160206040518083038186803b15801561252757600080fd5b505afa15801561253b573d6000803e3d6000fd5b505050506040513d601f19601f8201168201806040525081019061255f9190613768565b90508385028301808601606083821115612577578391505b8282101561258a57935061134292505050565b8282036001600160401b03811180156125a257600080fd5b506040519080825280602002602001820160405280156125dc57816020015b6125c961312f565b8152602001906001900390816125c15790505b50905060005b82848201101561133b576001546040516327b2595f60e11b81526000916001600160a01b031690634f64b2be9061261f908589019060040161422b565b60206040518083038186803b15801561263757600080fd5b505afa15801561264b573d6000803e3d6000fd5b505050506040513d601f19601f8201168201806040525081019061266f91906133b0565b905061267a81610fe0565b83838151811061268657fe5b6020908102919091010152506001016125e2565b6002546001600160a01b031681565b6004546001600160a01b031681565b6060611ca5838360006117a3565b6000546001600160a01b031681565b604051636eb1769f60e11b81526000906001600160a01b0385169063dd62ed3e906127069086908690600401613c4e565b60206040518083038186803b15801561271e57600080fd5b505afa158015612732573d6000803e3d6000fd5b505050506040513d601f19601f820116820180604052508101906127569190613768565b949350505050565b60606000600260009054906101000a90046001600160a01b03166001600160a01b0316638f5185e86040518163ffffffff1660e01b815260040160206040518083038186803b1580156127b057600080fd5b505afa1580156127c4573d6000803e3d6000fd5b505050506040513d601f19601f820116820180604052508101906127e89190613768565b90506060816001600160401b038111801561280257600080fd5b5060405190808252806020026020018201604052801561283c57816020015b6128296131be565b8152602001906001900390816128215790505b50905060005b8281101561297d57600254604051633ed2387560e11b81526000916001600160a01b031690637da470ea9061287b90859060040161422b565b60206040518083038186803b15801561289357600080fd5b505afa1580156128a7573d6000803e3d6000fd5b505050506040513d601f19601f820116820180604052508101906128cb91906133b0565b60025460405163699af5ed60e11b81529192506000916001600160a01b039091169063d335ebda90612901908590600401613c3a565b60206040518083038186803b15801561291957600080fd5b505afa15801561292d573d6000803e3d6000fd5b505050506040513d601f19601f820116820180604052508101906129519190613768565b905061295c82612d3e565b84848151811061296857fe5b60209081029190910101525050600101612842565b5091505090565b606080600160009054906101000a90046001600160a01b03166001600160a01b031663aa6ca8086040518163ffffffff1660e01b815260040160006040518083038186803b1580156129d557600080fd5b505afa1580156129e9573d6000803e3d6000fd5b505050506040513d6000823e601f3d908101601f19168201604052612a1191908101906135db565b90506060612a1e82611bf2565b9050612a2982611bf2565b9250505090565b6060611ca583836000611176565b6004805460405163c395fcb360e01b81526001600160a01b039091169163c395fcb391612a6d91339101613c3a565b60206040518083038186803b158015612a8557600080fd5b505afa158015612a99573d6000803e3d6000fd5b505050506040513d601f19601f82011682018060405250810190612abd9190613667565b612ae25760405162461bcd60e51b8152600401612ad990613ef1565b60405180910390fd5b6001600160a01b03831615612b0d57600080546001600160a01b0319166001600160a01b0385161790555b6001600160a01b03841615612b3857600180546001600160a01b0319166001600160a01b0386161790555b6001600160a01b03821615612b6357600380546001600160a01b0319166001600160a01b0384161790555b6001600160a01b03811615612b8e57600280546001600160a01b0319166001600160a01b0383161790555b50505050565b6001546001600160a01b031681565b6000805460408051637616480b60e11b8152905160609384936001600160a01b03169263ec2c90169260048083019392829003018186803b158015612be757600080fd5b505afa158015612bfb573d6000803e3d6000fd5b505050506040513d6000823e601f3d908101601f19168201604052612c2391908101906135db565b9050606081516001600160401b0381118015612c3e57600080fd5b50604051908082528060200260200182016040528015612c7857816020015b612c65613241565b815260200190600190039081612c5d5790505b50905060005b825181101561297d57612c8f613241565b612cab848381518110612c9e57fe5b6020026020010151612f20565b905080838381518110612cba57fe5b602090810291909101015250600101612c7e565b612cd661312f565b73eeeeeeeeeeeeeeeeeeeeeeeeeeeeeeeeeeeeeeee81526040805180820182526008815267455448455245554d60c01b602080830191909152828401919091528151808301909252600382526208aa8960eb1b82820152606083019190915260129082015290565b612d466131be565b6001600160a01b03808316825260025460405163699af5ed60e11b81528492919091169063d335ebda90612d7e908490600401613c3a565b60206040518083038186803b158015612d9657600080fd5b505afa158015612daa573d6000803e3d6000fd5b505050506040513d601f19601f82011682018060405250810190612dce9190613768565b826020018181525050806001600160a01b0316635eeb67106040518163ffffffff1660e01b815260040160206040518083038186803b158015612e1057600080fd5b505afa158015612e24573d6000803e3d6000fd5b505050506040513d601f19601f82011682018060405250810190612e489190613768565b826040018181525050806001600160a01b031663a8b973a16040518163ffffffff1660e01b815260040160206040518083038186803b158015612e8a57600080fd5b505afa158015612e9e573d6000803e3d6000fd5b505050506040513d601f19601f82011682018060405250810190612ec29190613768565b826060018181525050612f07816001600160a01b0316639ec5a8946040518163ffffffff1660e01b815260040160206040518083038186803b158015610bc457600080fd5b6080830152612f1583612212565b60a083015250919050565b612f28613241565b6000805460405163b034349360e01b81526001600160a01b039091169063b034349390612f59908690600401613c3a565b60206040518083038186803b158015612f7157600080fd5b505afa158015612f85573d6000803e3d6000fd5b505050506040513d601f19601f82011682018060405250810190612fa9919061381c565b9050600080600080866001600160a01b031663314148e26040518163ffffffff1660e01b815260040160806040518083038186803b158015612fea57600080fd5b505afa158015612ffe573d6000803e3d6000fd5b505050506040513d601f19601f8201168201806040525081019061302291906134e7565b9296509094509250905061303461312f565b61303d85610fe0565b6001600160a01b039098168752506001600160401b03948516602087015291841660408601529092166060840152501515608082015260a081019190915290565b604051806080016040528060006001600160a01b031681526020016060815260200160608152602001606081525090565b604080516101c081018252600080825260208201819052918101829052606081018290526080810182905260a0810182905260c0810182905260e0810182905261010081018290526101208101829052610140810191909152610160810161311561312f565b815260200161312261312f565b8152602001606081525090565b604051806080016040528060006001600160a01b031681526020016000815260200160608152602001606081525090565b604080516101a081018252600080825260208201819052918101829052606081018290526080810182905260a0810182905260c0810182905260e081018290526101008101829052610120810191909152610140810161311561312f565b6040518060c0016040528060006001600160a01b0316815260200160008152602001600081526020016000815260200161312261312f565b60405180606001604052806060815260200160608152602001600081525090565b60405180608001604052806000815260200160008152602001600081526020016000151581525090565b6040805160c08101825260008082526020820181905291810182905260608101829052608081019190915260a0810161327861312f565b905290565b6040518060e0016040528060006001600160a01b031681526020016000815260200160008152602001600081526020016000815260200160008152602001600081525090565b6040518060c0016040528060006001600160a01b031681526020016000815260200160008152602001600081526020016000815260200161327861312f565b8035611ca8816142bc565b80518015158114611ca857600080fd5b600082601f83011261332d578081fd5b81516001600160401b03811115613342578182fd5b613355601f8201601f191660200161424b565b915080825283602082850101111561336c57600080fd5b611c90816020840160208601614290565b80516001600160401b0381168114611ca857600080fd5b6000602082840312156133a5578081fd5b8135611342816142bc565b6000602082840312156133c1578081fd5b8151611342816142bc565b600080604083850312156133de578081fd5b82356133e9816142bc565b915060208301356133f9816142bc565b809150509250929050565b600080600060608486031215613418578081fd5b8335613423816142bc565b92506020840135613433816142bc565b91506040840135613443816142bc565b809150509250925092565b60008060008060808587031215613463578081fd5b843561346e816142bc565b9350602085013561347e816142bc565b9250604085013561348e816142bc565b9150606085013561349e816142bc565b939692955090935050565b600080600080608085870312156134be578384fd5b84516134c9816142bc565b60208601516040870151606090970151919890975090945092505050565b600080600080608085870312156134fc578384fd5b8451613507816142bc565b9350613516866020870161337d565b9250613525866040870161337d565b9150613534866060870161330d565b905092959194509250565b60006020808385031215613551578182fd5b82356001600160401b03811115613566578283fd5b8301601f81018513613576578283fd5b803561358961358482614271565b61424b565b81815283810190838501858402850186018910156135a5578687fd5b8694505b838510156135cf576135bb8982613302565b8352600194909401939185019185016135a9565b50979650505050505050565b600060208083850312156135ed578182fd5b82516001600160401b03811115613602578283fd5b8301601f81018513613612578283fd5b805161362061358482614271565b818152838101908385018584028501860189101561363c578687fd5b8694505b838510156135cf578051613653816142bc565b835260019490940193918501918501613640565b600060208284031215613678578081fd5b8151611342816142d4565b600060208284031215613694578081fd5b81516001600160401b038111156136a9578182fd5b6127568482850161331d565b600080604083850312156136c7578182fd5b82516001600160401b038111156136dc578283fd5b6136e88582860161331d565b925050602083015190509250929050565b60008060006060848603121561370d578081fd5b8351613718816142e2565b6020850151909350613729816142d4565b6040850151909250613443816142d4565b6000806040838503121561374c578182fd5b8251613757816142e2565b60208401519092506133f9816142e2565b600060208284031215613779578081fd5b5051919050565b60008060408385031215613792578182fd5b50508035926020909101359150565b600080604083850312156137b3578182fd5b505080516020909101519092909150565b600080600080608085870312156137d9578182fd5b8451935060208501519250613525866040870161330d565b600080600060608486031215613805578081fd5b505081359360208301359350604090920135919050565b60006020828403121561382d578081fd5b611ca5838361337d565b60008060006060848603121561384b578081fd5b8351613856816142f7565b6020850151909350613867816142f7565b6040850151909250613443816142e2565b600060208284031215613889578081fd5b815160ff81168114611342578182fd5b60008151606084526138ae6060850182613a15565b9050602083015184820360208601526138c78282613a15565b915050604083015160408501528091505092915050565b6001600160a01b03169052565b6000815180845260208085018081965082840281019150828601855b8581101561393157828403895261391f848351613899565b98850198935090840190600101613907565b5091979650505050505050565b6000815180845260208085019450848183028601828601855b858110156139c8578383038952815180516001600160a01b03168452858101518685015260408082015190850152606080820151908501526080808201519085015260a09081015160c0918501829052906139b481860183613bd6565b9a87019a9450505090840190600101613957565b5090979650505050505050565b6000815180845260208085019450808401835b83811015613a04578151875295820195908201906001016139e8565b509495945050505050565b15159052565b60008151808452613a2d816020860160208601614290565b601f01601f19169290920160200192915050565b60006101c0613a518484516138de565b6020830151613a6360208601826138de565b506040830151613a766040860182613c2d565b506060830151613a896060860182613c2d565b506080830151613a9c6080860182613c20565b5060a0830151613aaf60a0860182613c20565b5060c0830151613ac260c0860182613c20565b5060e0830151613ad560e0860182613c20565b5061010080840151613ae982870182613a0f565b505061012080840151613afe82870182613a0f565b505061014080840151613b1382870182613a0f565b5050610160808401518282870152613b2d83870182613bd6565b925050506101808084015185830382870152613b498382613bd6565b925050506101a08084015185830382870152613b6583826138eb565b9695505050505050565b600060018060a01b038251168352602082015160208401526040820151604084015260608201516060840152608082015160c06080850152613bb460c0850182613bd6565b905060a083015184820360a0860152613bcd828261393e565b95945050505050565b600060018060a01b03825116835260208201516020840152604082015160806040850152613c076080850182613a15565b905060608301518482036060860152613bcd8282613a15565b6001600160801b03169052565b6001600160401b03169052565b6001600160a01b0391909116815260200190565b6001600160a01b0392831681529116602082015260400190565b6000602080830181845280855180835260408601915060408482028701019250838701855b82811015613cbb57603f19888603018452613ca9858351613899565b94509285019290850190600101613c8d565b5092979650505050505050565b6000602080830181845280855180835260408601915060408482028701019250838701855b82811015613cbb57603f19888603018452613d09858351613b6f565b94509285019290850190600101613ced565b60208082528251828201819052600091906040908185019080840286018301878501865b83811015613dc457888303603f19018552815180516001600160a01b03168452878101516001600160401b0390811689860152878201518116888601526060808301519091169085015260808082015115159085015260a09081015160c091850182905290613db081860183613bd6565b968901969450505090860190600101613d3f565b509098975050505050505050565b600060208252611ca5602083018461393e565b6000602080830181845280855180835260408601915060408482028701019250838701855b82811015613cbb57603f19888603018452613e26858351613bd6565b94509285019290850190600101613e0a565b60208082528251828201819052600091906040908185019080840286018301878501865b83811015613dc457888303603f19018552815180516001600160a01b0316845287810151608089860181905290613e95828701826139d5565b9150508782015185820389870152613ead82826139d5565b91505060608083015192508582038187015250613eca81836139d5565b968901969450505090860190600101613e5c565b600060208252611ca56020830184613a15565b6020808252818101527f4d49534f48656c7065723a2053656e646572206d7573742062652041646d696e604082015260600190565b600060208252613f3a6020830184516138de565b6020830151613f4c60408401826138de565b506040830151613f5f6060840182613c2d565b506060830151613f726080840182613c2d565b506080830151613f8560a0840182613c20565b5060a083015160c083015260c083015160e083015260e0830151610100613fae81850183613a0f565b8401519050610120613fc284820183613a0f565b8401519050610140613fd684820183613a0f565b808501519150506101a06101608181860152613ff66101c0860184613bd6565b9250808601519050601f196101808187860301818801526140178584613bd6565b908801518782039092018488015293509050613b6583826138eb565b6000602082526140476020830184516138de565b602083015161405960408401826138de565b50604083015161406c6060840182613c20565b50606083015161407f6080840182613c20565b50608083015161409260a0840182613c20565b5060a08301516140a560c0840182613c20565b5060c08301516140b860e0840182613c2d565b5060e08301516101006140cd81850183613c2d565b84015190506101206140e184820183613a0f565b84015190506101406140f584820183613a0f565b840151905061016061410984820183613a0f565b808501519150506101c061018081818601526141296101e0860184613bd6565b9250808601519050601f196101a08187860301818801526140178584613bd6565b600060208252611ca56020830184613a41565b6000604080835261417081840186613b6f565b838103602085810191909152855180835286820192820190855b81811015613dc457845180516001600160a01b0316845284810151858501528681015187850152606080820151908501526080808201519085015260a0808201519085015260c090810151908401529383019360e09092019160010161418a565b600060208252611ca56020830184613bd6565b81518152602080830151908201526040808301519082015260609182015115159181019190915260800190565b90815260200190565b9182526001600160a01b0316602082015260400190565b6040518181016001600160401b038111828210171561426957600080fd5b604052919050565b60006001600160401b03821115614286578081fd5b5060209081020190565b60005b838110156142ab578181015183820152602001614293565b83811115612b8e5750506000910152565b6001600160a01b03811681146142d157600080fd5b50565b80151581146142d157600080fd5b6001600160801b03811681146142d157600080fd5b6001600160401b03811681146142d157600080fdfea26469706673582212209b1a6621564261b41ce384771c4a425245add4430c2e763d88b18fc8590f3cb464736f6c634300060c0033",
  "devdoc": {
    "kind": "dev",
    "methods": {},
    "version": 1
  },
  "userdoc": {
    "kind": "user",
    "methods": {
      "accessControls()": {
        "notice": "Responsible for access rights to the contract"
      }
    },
    "version": 1
  },
  "storageLayout": {
    "storage": [
      {
        "astId": 9935,
        "contract": "contracts/Helper/MISOHelper.sol:MISOHelper",
        "label": "market",
        "offset": 0,
        "slot": "0",
        "type": "t_contract(IMisoMarketFactory)10886"
      },
      {
        "astId": 9937,
        "contract": "contracts/Helper/MISOHelper.sol:MISOHelper",
        "label": "tokenFactory",
        "offset": 0,
        "slot": "1",
        "type": "t_contract(IMisoTokenFactory)9808"
      },
      {
        "astId": 9939,
        "contract": "contracts/Helper/MISOHelper.sol:MISOHelper",
        "label": "farmFactory",
        "offset": 0,
        "slot": "2",
        "type": "t_contract(IMisoFarmFactory)10040"
      },
      {
        "astId": 9941,
        "contract": "contracts/Helper/MISOHelper.sol:MISOHelper",
        "label": "launcher",
        "offset": 0,
        "slot": "3",
        "type": "t_address"
      },
      {
        "astId": 9944,
        "contract": "contracts/Helper/MISOHelper.sol:MISOHelper",
        "label": "accessControls",
        "offset": 0,
        "slot": "4",
        "type": "t_contract(MISOAccessControls)510"
      }
    ],
    "types": {
      "t_address": {
        "encoding": "inplace",
        "label": "address",
        "numberOfBytes": "20"
      },
      "t_contract(IMisoFarmFactory)10040": {
        "encoding": "inplace",
        "label": "contract IMisoFarmFactory",
        "numberOfBytes": "20"
      },
      "t_contract(IMisoMarketFactory)10886": {
        "encoding": "inplace",
        "label": "contract IMisoMarketFactory",
        "numberOfBytes": "20"
      },
      "t_contract(IMisoTokenFactory)9808": {
        "encoding": "inplace",
        "label": "contract IMisoTokenFactory",
        "numberOfBytes": "20"
      },
      "t_contract(MISOAccessControls)510": {
        "encoding": "inplace",
        "label": "contract MISOAccessControls",
        "numberOfBytes": "20"
      }
    }
  }
}